:020000040800F2
:1000000000000220151F0008111E0008171E00081E
:100010001D1E0008231E0008291E00080000000005
:100020000000000000000000000000002F1E00087B
:100030003D1E0008000000004B1E0008591E00086D
:10004000651F0008651F0008651F0008651F000880
:10005000651F0008651F0008651F0008651F000870
:10006000651F0008651F0008651F0008651E000861
:10007000791E0008651F0008651F0008651F00083D
:10008000651F0008651F00088D1E000800000000A5
:10009000000000000000000000000000651F0008D4
:1000A000651F0008A11E0008651F0008651F0008E5
:1000B000651F0008B51E0008651F0008651F0008C1
:1000C000651F0008651F0008651F0008651F000800
:1000D000651F0008651F0008651F0008000000007C
:1000E000651F0008651F0008651F0008000000006C
:1000F000000000000000000000000000651F000874
:1001000000000000651F0008651F0008651F00084B
:1001100000000000000000000000000000000000DF
:10012000C91E0008651F0008651F0008651F00083C
:10013000651F000800000000000000000000000033
:10014000000000000000000000000000DD1E0008AC
:10015000651F0008651F0008651F0008651F00086F
:10016000651F0008651F0008000000000000000077
:10017000000000000000000000000000000000007F
:1001800000000000651F00080000000000000000E3
:08019000651F0008651F00084F
:1001980010B5054C237833B9044B13B10448AFF3B9
:1001A80000800123237010BD04010020000000001E
:1001B800F8BB000808B5034B1BB103490348AFF36C
:1001C800008008BD0000000008010020F8BB0008FE
:1001D80053B94AB9002908BF00281CBF4FF0FF31A6
:1001E8004FF0FF3000F070B9ADF1080C6DE904CEA6
:1001F80000F006F8DDF804E0DDE9022304B07047FA
:100208002DE9F047089E0D4604460F46002B4AD1BB
:100218008A42944665D9B2FA82F343B102FA03FCE2
:10022800C3F120029F4020FA02F217439C404FEA94
:100238001C4E1FFA8CF5B7FBFEF1220C0EFB117752
:1002480042EA074201FB05F090420AD91CEB020280
:1002580001F1FF3780F01C81904240F21981023988
:100268006244121AA4B2B2FBFEF00EFB102244EA5A
:10027800024400FB05F5A5420AD91CEB040400F171
:10028800FF3280F00781A54240F2048164440238BD
:1002980040EA0140641B00211EB1DC400023C6E98E
:1002A8000043BDE8F0878B4208D9002E00F0ED80AE
:1002B8000021C6E900050846BDE8F087B3FA83F1D6
:1002C800002949D1AB4202D3824200F2F880841A55
:1002D80065EB030201201746002EE2D0C6E900476D
:1002E800DFE702B9FFDEB2FA82F3002B40F090801C
:1002F8008A1A4FEA1C471FFA8CFE0121B2FBF7F558
:1003080007FB1520220C42EA00420EFB05F0904242
:1003180008D91CEB020205F1FF3802D2904200F224
:10032800CB804546121AA4B2B2FBF7F007FB1022A5
:1003380044EA02440EFB00FEA64508D91CEB04045F
:1003480000F1FF3202D2A64500F2BB801046A4EBB2
:100358000E0440EA05409FE7C1F120078B4022FACE
:1003680007FC4CEA030C05FA01F420FA07F3FD40F8
:100378004FEA1C492343B5FBF9F81FFA8CFE09FB29
:1003880018551C0C44EA054408FB0EF5A54202FA70
:1003980001F200FA01F00BD91CEB040408F1FF3A52
:1003A80080F08880A54240F28580A8F10208644464
:1003B800641B9DB2B4FBF9F309FB134445EA0444FA
:1003C80003FB0EFEA64508D91CEB040403F1FF3518
:1003D8006CD2A6456AD9023B644443EA0843A3FBAE
:1003E8000295A4EB0E04AC42C846AE4656D353D091
:1003F80056B1B0EB080264EB0E0404FA07F7CA40E2
:10040800CC401743C6E9007418460021BDE8F087C0
:10041800C3F1200102FA03FC20FA01F225FA01F1E6
:100428009D402A434FEA1C471FFA8CFEB1FBF7F0A8
:1004380007FB1015110C41EA054100FB0EF58D4232
:1004480004FA03F408D91CEB010100F1FF382FD29C
:100458008D422DD902386144491B92B2B1FBF7F5A0
:1004680007FB151142EA014205FB0EF1914208D93A
:100478001CEB020205F1FF3816D2914214D9023D55
:100488006244521A45EA004138E73146304608E7E7
:100498003946E6E61046FBE64845A9D2B9EB02081C
:1004A80065EB0C0E013BA3E74546EAE72B4694E7CC
:1004B8004046D1E7D0467BE7023D624432E7084632
:1004C8000AE76444023842E7704700BF80B485B049
:1004D80000AFF860B9607A607B80FB6802221A700E
:1004E800FB687A68DA60FB68BA681A61FB68002200
:1004F8005A607A88FB689A6000BF1437BD465DF879
:10050800047B704780B584B000AFF860B9601346CB
:10051800FB71FB68DB68002B5DD0FB681B69002B57
:1005280059D0FB685B68BA689A4256D0FB79012BB0
:1005380007D1FB6803221A70FB68DB680120984723
:100548004CE0FB689B68BA689A4202DDFB689B68CE
:10055800BB60FB689B685B42BA689A4203DAFB6837
:100568009B685B42BB60FB68BA685A60BB68002B3B
:1005780010DAFB6801221A70FB68DB6801209847D3
:10058800FB681B69FA68526892B2524292B21046EE
:10059800984723E0BB68002B0EDDFB6800221A7029
:1005A800FB68DB6800209847FB681B69FA6852689B
:1005B80092B21046984711E0BB68002B0ED1FB6839
:1005C80002221A70FB68DB6802209847FB681B69E7
:1005D8000020984702E000BF00E000BF1037BD468A
:1005E80080BD80B485B000AFF860B9607A603B60C8
:1005F800FB687A681A61FB683A689A60FB68BA68AF
:100608009A6100BF1437BD465DF8047B704700004F
:1006180080B584B000AF78607B681B7BFB73E4E037
:10062800774B1B78062B00F2DC8001A252F823F0EE
:10063800550600087D060008B1060008E506000812
:100648001907000841070008830700087B681A6932
:100658007B685B7B591CC8B27968487313441B7864
:10066800552B40F0C280664B01221A707B6800222D
:100678009A70BAE07B681A697B685B7B591CC8B2C0
:100688007968487313441B784E2B03D15C4B0222C4
:100698001A70AAE07B685B7B013BDAB27B685A730D
:1006A800574B00221A70A0E07B681A697B685B7B55
:1006B800591CC8B27968487313441B78452B03D179
:1006C8004F4B03221A7090E07B685B7B013BDAB2E8
:1006D8007B685A734A4B00221A7086E07B681A6955
:1006E8007B685B7B591CC8B27968487313441B78D4
:1006F800522B03D1424B04221A7076E07B685B7B55
:10070800013BDAB27B685A733D4B00221A706CE0E9
:100718007B685A7B7B685A707B681A697B685B7B4D
:10072800591CC8B27968487313441A78354B1A7043
:10073800334B05221A7058E07B681A697B685B7B2B
:10074800591CC8B27968487313441B783A2B0AD1EC
:100758002B4B06221A702B4B1B7883F03603DAB228
:100768007B689A7041E07B685B7B013BDAB27B680F
:100778005A73234B00221A7037E0224B1B78012B47
:100788000FD97B681A697B685B7B591CC8B279688A
:10079800487313441A787B689B785340DAB27B68B5
:1007A8009A70184B1B78013BDAB2164B1A70154B2E
:1007B8001B78002B19D1124B00221A707B689A788B
:1007C8007B681B697968497B0B441B789A420CD17A
:1007D8007B689B69002B08D07B689B697868984781
:1007E80003E0074B00221A7000BF7B685B7BFA7B33
:1007F8009A427FF415AF00BF00BF1037BD4680BDD9
:10080800200100202101002090B490B000AFF860D2
:10081800B9601346FB71002387F83F30002387F83F
:100828003E30002387F83D3097F83F305A1C87F850
:100838003F2040333B44552203F82C2C97F83F3097
:100848005A1C87F83F2040333B444E2203F82C2C97
:1008580097F83F305A1C87F83F2040333B444522E5
:1008680003F82C2C97F83F305A1C87F83F20403368
:100878003B44522203F82C2C97F83F305A1C87F837
:100888003F2040333B44FA7903F82C2C97F83F304B
:100898005A1C87F83F2040333B443A2203F82C2C5B
:1008A800002387F83D3012E097F83D30BA681A44C3
:1008B80097F83F30591C87F83F10127840333B4473
:1008C80003F82C2C97F83D30013387F83D3097F822
:1008D8003D20FB79013B9A42E6DB002387F83E3056
:1008E800002387F83D301FE097F83D3040333B4404
:1008F80013F82C2C97F83E30534087F83E3097F881
:100908003D20FB689968FB681B79581CC4B2F868DD
:1009180004710B4440323A4412F82C2C1A7097F8A0
:100928003D30013387F83D3097F83D2097F83F3048
:100938009A42D9D3FB689A68FB681B79591CC8B2DC
:10094800F9680871134497F83E201A70FB6897F805
:100958003F201A7500BF4037BD4690BC7047000065
:1009680080B582B000AF78607B681B68084A934204
:1009780004D1084A137843F040031370092206494A
:10098800064801F0D7FC00BF0837BD4680BD00BF50
:10099800000001407003002094030020240100207F
:1009A80080B483B000AF786000BF0C37BD465DF8F7
:1009B800047B704780B483B000AF7860294B93F80C
:1009C80030301B021AB2274B93F831301BB2134355
:1009D8001AB2244B1A80234B93F832301B021AB2F6
:1009E800204B93F833301BB213431AB21D4B1A82B3
:1009F8001C4B93F834301B021AB21A4B93F835305B
:100A08001BB213431AB2174B1A84164B93F838309B
:100A18001B021AB2134B93F839301BB213431AB2A4
:100A2800104B5A800F4B93F83A301B021AB20D4BF9
:100A380093F83B301BB213431AB20A4B5A82094B44
:100A480093F83C301B021AB2064B93F83D301BB2A8
:100A580013431AB2034B5A8400BF0C37BD465DF8E6
:100A6800047B7047E003002080B584B002AF002308
:100A7800FB710023BB7101F073FA44480AF062FC71
:100A8800434B444A44494548FFF7ABFD00F0A0F802
:100A980000F008FB00F0C8FA00F0F4F90AF0FEFADA
:100AA80000F0FEF800F03EFA00F0BEF93C4806F00F
:100AB80053F83C4806F050F804213A4806F008F983
:100AC8000021384806F004F9364B1B68DB6A9BB2F4
:100AD800354A36493648FFF7F9FC324B1B68DB6A62
:100AE8009BB2344A34493548FFF7F0FC344800F0EB
:100AF80041FF344A13786FF386131370314A137821
:100B080043F020031370254B00225A73234B002215
:100B18001A732C4B00221A70204800F085FB294BD1
:100B28001B7803F04003DBB2002BF5D0FB790133CF
:100B3800FB71244B1B7803F04003DBB2002B0CBF86
:100B480001230023D9B21F4A137861F38613137067
:100B5800FB79272BE0D9BB790133BB710023FB71EB
:100B6800BB790A2BD8D10E230193174B009301238D
:100B78003B22D021124803F081FA4FF40051134868
:100B880002F0F1FD0023BB71C6E700BFDD110008CC
:100B98003405002034040020C11200087803002026
:100BA800E002002028030020F1170008351900088A
:100BB800B80300209118000859190008CC03002038
:100BC800CC0100207003002010040020000802401F
:100BD80080B594B000AF07F12003302200211846F9
:100BE8000AF0DAFF07F10C0300221A605A609A60D3
:100BF800DA601A610023BB60274B1B6C264A43F05E
:100C080080531364244B1B6C03F08053BB60BB6898
:100C180000237B60214B1B68204A43F44043136048
:100C28001E4B1B6803F440437B607B6801233B62D7
:100C38004FF480337B620223BB634FF48003FB6372
:100C480019233B64C0237B640223BB640423FB6435
:100C580007F12003184605F0EBFA0346002B01D0F4
:100C680000F0DEFE0F23FB6002233B6100237B6163
:100C78004FF48053BB610023FB6107F10C03032190
:100C8800184605F04DFD0346002B01D000F0C8FEC4
:100C980000BF5037BD4680BD00380240007000409C
:100CA80080B584B000AF3B4600221A605A609A6053
:100CB800DA605A4B5A4A1A60584B4FF480325A60DD
:100CC800564B00229A60554B01221A61534B002261
:100CD8001A76524B002283F82020504B0022DA6209
:100CE8004E4B504A9A624D4B0022DA604B4B092218
:100CF800DA614A4B002283F83020484B01225A61BE
:100D0800464801F0C3F90346002B01D000F088FEE5
:100D180001233B6001237B600323BB603B461946EC
:100D28003E4801F019FC0346002B01D000F078FE84
:100D380002233B6002237B603B461946374801F09B
:100D48000BFC0346002B01D000F06AFE03233B6036
:100D580003237B603B461946304801F0FDFB034600
:100D6800002B01D000F05CFE04233B6004237B6071
:100D78003B461946294801F0EFFB0346002B01D0FA
:100D880000F04EFE05233B6005237B603B46194679
:100D9800224801F0E1FB0346002B01D000F040FEA1
:100DA80006233B6006237B603B4619461B4801F03F
:100DB800D3FB0346002B01D000F032FE07233B6033
:100DC80007237B603B461946144801F0C5FB0346E0
:100DD800002B01D000F024FE08233B6008237B6031
:100DE8003B4619460D4801F0B7FB0346002B01D0DE
:100DF80000F016FE09233B6009237B600023BB60DB
:100E08003B461946054801F0A7FB0346002B01D0D5
:100E180000F006FE00BF1037BD4680BD240100204B
:100E2800002001400100000F80B500AF124B134AAB
:100E38001A60114B124A5A600F4B00229A600E4BEF
:100E48000022DA600C4B4FF480421A610A4B0022F0
:100E58005A61094B00229A61074B0022DA61064B5E
:100E680000221A62044802F099FC0346002B01D0C4
:100E780000F0D6FD00BF80BDCC010020005400402A
:100E8800801A060080B586B000AF07F1080300227B
:100E98001A605A609A60DA603B4600221A605A600B
:100EA8001E4B1F4A1A601D4B00225A601B4B002222
:100EB8009A601A4B45F6BF52DA60184B00221A6145
:100EC800164B00225A61154B00229A61134805F00F
:100ED800F3FD0346002B01D000F0A2FD4FF4805330
:100EE800BB6007F1080319460C4806F053F903469E
:100EF800002B01D000F094FD00233B6000237B60B1
:100F08003B461946054806F007FD0346002B01D06D
:100F180000F086FD00BF1837BD4680BDE002002006
:100F28000000014080B58EB000AF07F12803002211
:100F38001A605A609A60DA6007F1200300221A608A
:100F48005A603B1D00221A605A609A60DA601A6182
:100F58005A619A61324B334A1A60314B0F225A60F8
:100F68002F4B00229A602E4B4EF65F22DA602C4BF4
:100F780000221A612A4B00229A61294805F09CFD3B
:100F88000346002B01D000F04BFD4FF48053BB62A9
:100F980007F128031946224806F0FCF80346002BFF
:100FA80001D000F03DFD1E4805F038FE0346002B39
:100FB80001D000F035FD00233B6200237B6207F17E
:100FC80020031946164806F0A7FC0346002B01D05B
:100FD80000F026FD60237B600023BB600023FB60DC
:100FE80000237B613B1D002219460D4806F010F8CE
:100FF8000346002B01D000F013FD3B1D04221946C7
:10100800074806F005F80346002B01D000F008FD5C
:10101800034800F0BFFE00BF3837BD4680BD00BFA3
:10102800280300200004004080B582B000AF0023F0
:101038007B601B4B1B6B1A4A43F480031363184BEA
:101048001B6B03F480037B607B6800233B60144BBD
:101058001B6B134A43F400131363114B1B6B03F40C
:1010680000133B603B68002200210B2001F009FEC1
:101078000B2001F022FE002200210C2001F001FECD
:101088000C2001F01AFE00220021382001F0F9FDA1
:10109800382001F012FE00BF0837BD4680BD00BFF2
:1010A8000038024080B58AB000AF07F1140300226F
:1010B8001A605A609A60DA601A6100233B61414BFA
:1010C8001B6B404A43F0040313633E4B1B6B03F056
:1010D80004033B613B690023FB603A4B1B6B394AB5
:1010E80043F080031363374B1B6B03F08003FB60F3
:1010F800FB680023BB60334B1B6B324A43F0010390
:101108001363304B1B6B03F00103BB60BB68002308
:101118007B602C4B1B6B2B4A43F002031363294B58
:101128001B6B03F002037B607B6800224FF40051C5
:10113800254802F0FFFA00224FF40641234802F046
:10114800F9FA00220821224802F0F4FA4FF4005379
:101158007B610123BB610023FB6100233B6207F134
:1011680014031946184802F061F901237B61002332
:10117800BB610023FB6107F114031946134802F011
:1011880055F94FF406437B610123BB610023FB61E2
:1011980000233B6207F1140319460C4802F046F994
:1011A80008237B610123BB610023FB6100233B62B1
:1011B80007F114031946064802F038F900BF28372A
:1011C800BD4680BD003802400008024000000240D1
:1011D8000004024080B485B000AF78600B467B8085
:1011E8000023FB8112E0FB897A681A440D4B1B69C6
:1011F8000C49097B0B4412781A700A4B1B7B01338C
:10120800DAB2084B1A73FB890133FB81FA897B88B0
:101218009A42E8D300BF00BF1437BD465DF8047B8F
:10122800704700BF7803002080B582B000AF7860B7
:101238007B685A7B7B681B7B9A4206D07868FFF7ED
:10124800E7F97B681A7B7B685A737B685A797B68F5
:101258001B799A422CD07B681A797B685B799A4211
:1012680008D97B681A797B685B79D31ADAB27B680C
:101278001A7506E07B685B79C3F10403DAB27B6810
:101288001A757B689B687A6852791A447B681B7D5B
:101298009BB2194610460AF01DF80346002B07D1E9
:1012A8007B685A797B681B7D1344DAB27B685A7174
:1012B80000BF0837BD4680BD80B58EB000AF7860EE
:1012C800002387F83630002387F8373000233B6344
:1012D8000023FB627B681A697B685B7802331344DE
:1012E8001B78F12B2BD0F12B00F36082F02B0ED062
:1012F800F02B00F35B82A22B00F09081A22B00F36D
:101308005582A02B29D0A12B00F025814EE297F819
:1013180036305A1C87F8362038333B44F02203F81D
:101328002C2C97F836305A1C87F8362038333B4433
:101338000D2203F82C2C032387F8373044E297F862
:1013480036305A1C87F8362038333B44F12203F8EC
:101358002C2C022387F8373036E297F836305A1C9F
:1013680087F8362038333B44A02203F82C2CA74BAF
:101378001A88A74B1A8097F836305A1C87F83620F7
:101388001946A34B1A7801F138033B4403F82C2C77
:1013980097F836305A1C87F8362019469C4B5A78ED
:1013A80001F138033B4403F82C2C984B5A88984B8E
:1013B8001A8097F836305A1C87F836201946944B0D
:1013C8001A7801F138033B4403F82C2C97F836308F
:1013D8005A1C87F8362019468D4B5A7801F1380384
:1013E8003B4403F82C2C894B9A88894B1A8097F830
:1013F80036305A1C87F836201946854B1A7801F181
:1014080038033B4403F82C2C97F836305A1C87F8DD
:10141800362019467E4B5A7801F138033B4403F8CD
:101428002C2C7A4BDA887A4B1A8097F836305A1C6B
:1014380087F836201946764B1A7801F138033B4471
:1014480003F82C2C97F836305A1C87F836201946A2
:101458006F4B5A7801F138033B4403F82C2C6B4B43
:101468001A896B4B1A8097F836305A1C87F8362041
:101478001946674B1A7801F138033B4403F82C2CC2
:1014880097F836305A1C87F836201946604B5A7838
:1014980001F138033B4403F82C2C5C4B5A895C4B14
:1014A8001A8097F836305A1C87F836201946584B58
:1014B8001A7801F138033B4403F82C2C97F836309E
:1014C8005A1C87F836201946514B5A7801F13803CF
:1014D8003B4403F82C2C4D4B9A894D4B1A8097F8B6
:1014E80036305A1C87F836201946494B1A7801F1CC
:1014F80038033B4403F82C2C97F836305A1C87F8ED
:1015080036201946424B5A7801F138033B4403F818
:101518002C2C3E4BDA893E4B1A8097F836305A1CF1
:1015280087F8362019463A4B1A7801F138033B44BC
:1015380003F82C2C97F836305A1C87F836201946B1
:10154800334B5A7801F138033B4403F82C2C12230F
:1015580087F8373038E17B681A697B685B78033332
:1015680013441A782A4B1A707B681A697B685B786F
:10157800043313441A78264B5A707B681A697B68BF
:101588005B78053313441A78214B9A707B681A6983
:101598007B685B78063313441A781D4BDA701C4B52
:1015A8001B683B637B681A697B685B780733134465
:1015B8001A78174B1A707B681A697B685B7808334E
:1015C80013441A78124B5A707B681A697B685B78E7
:1015D800093313441A780E4B9A707B681A697B6832
:1015E8005B780A3313441A78094BDA70084B1B6886
:1015F800FB623B6B002219460648FEF783FFFB6A35
:10160800002219460448FEF77DFFDDE02004002093
:1016180074030020B8030020CC03002097F836306C
:101628005A1C87F8362038333B44A22203F82C2C66
:101638006B4BB3F900206B4B1A8097F836305A1C65
:1016480087F836201946674B1A7801F138033B446E
:1016580003F82C2C97F836305A1C87F83620194690
:10166800604B5A7801F138033B4403F82C2C5C4B4F
:10167800B3F910205B4B1A8097F836305A1C87F85C
:1016880036201946574B1A7801F138033B4403F8C2
:101698002C2C97F836305A1C87F836201946514BAF
:1016A8005A7801F138033B4403F82C2C4C4BB3F91E
:1016B80020204C4B1A8097F836305A1C87F8362071
:1016C8001946484B1A7801F138033B4403F82C2C8F
:1016D80097F836305A1C87F836201946414B5A7805
:1016E80001F138033B4403F82C2C3D4BB3F902209D
:1016F8003C4B1A8097F836305A1C87F83620194622
:10170800384B1A7801F138033B4403F82C2C97F82E
:1017180036305A1C87F836201946324B5A7801F170
:1017280038033B4403F82C2C2D4BB3F912202D4BD6
:101738001A8097F836305A1C87F836201946294BF4
:101748001A7801F138033B4403F82C2C97F836300B
:101758005A1C87F836201946224B5A7801F138036B
:101768003B4403F82C2C1E4BB3F922201D4B1A8046
:1017780097F836305A1C87F836201946194B1A78CC
:1017880001F138033B4403F82C2C97F836305A1CE7
:1017980087F836201946134B5A7801F138033B4431
:1017A80003F82C2C0E2387F837300DE097F83630E5
:1017B8005A1C87F8362038333B44FF2203F82C2C78
:1017C800022387F8373000BF97F8372007F10C035A
:1017D80019467868FFF718F800BF3837BD4680BD4E
:1017E800E00300207403002080B582B000AF0346F8
:1017F800FB71224B1B78032B3AD801A252F823F035
:10180800311800084918000861180008191800085C
:10181800012208211A4801F08DFF01224FF40041EE
:10182800184801F087FF24E001220821144801F03C
:1018380081FF00224FF40041124801F07BFF18E0BD
:10184800002208210E4801F075FF01224FF40041E3
:101858000C4801F06FFF0CE000220821084801F055
:1018680069FF00224FF40041064801F063FF00E0E1
:1018780000BF00BF0837BD4680BD00BFB8030020C9
:10188800000402400000024080B582B000AF034669
:10189800FB71244B1B78032B3ED801A252F823F08E
:1018A800D3180008ED18000807190008B91800082F
:1018B80001224FF400711C4801F03CFF01224FF453
:1018C8008061194801F036FF27E001224FF40071CA
:1018D800154801F02FFF00224FF48061124801F0F3
:1018E80029FF1AE000224FF400710F4801F022FF8F
:1018F80001224FF480610C4801F01CFF0DE000222A
:101908004FF40071084801F015FF00224FF4806180
:10191800054801F00FFF00E000BF00BF0837BD46D3
:1019280080BD00BFCC0300200000024080B483B01B
:1019380000AF0346FB80054B1B68FA889A6300BF1B
:101948000C37BD465DF8047B704700BF28030020B4
:1019580080B483B000AF0346FB80054B1B68FA8850
:101968005A6300BF0C37BD465DF8047B704700BF63
:101978002803002080B588B004AF78600023FB738B
:101988000A2302930123019307F10F030093012314
:101998007522D021786802F03FF9FB7B682B3BD198
:1019A8000023FB730A2302930123019307F10F031A
:1019B800009301236B22D021786802F033F80023CA
:1019C800FB730A2302930123019307F10F0300938A
:1019D80001231C22D021786802F024F80023FB732D
:1019E8000A2302930123019307F10F0300930123B4
:1019F8001B22D021786802F015F80423FB730A2310
:101A080002930123019307F10F03009301231A2284
:101A1800D021786802F006F800BF1037BD4680BDB7
:101A280080B400AF72B600BFFEE7000080B483B098
:101A380000AF00237B60104B5B6C0F4A43F480437C
:101A480053640D4B5B6C03F480437B607B6800231D
:101A58003B60094B1B6C084A43F080531364064BE8
:101A68001B6C03F080533B603B6800BF0C37BD46DE
:101A78005DF8047B704700BF0038024080B58AB02B
:101A880000AF786007F1140300221A605A609A6068
:101A9800DA601A617B681B683F4A934278D1002359
:101AA8003B613E4B5B6C3D4A43F4807353643B4B54
:101AB8005B6C03F480733B613B690023FB60374B2D
:101AC8001B6B364A43F001031363344B1B6B03F063
:101AD8000103FB60FB680023BB60304B1B6B2F4A84
:101AE80043F0020313632D4B1B6B03F00203BB602F
:101AF800BB68FE237B610323BB610023FB6107F105
:101B080014031946264801F091FC03237B61032343
:101B1800BB610023FB6107F114031946214801F05A
:101B280085FC214B214A1A601F4B00225A601E4B2C
:101B380000229A601C4B0022DA601B4B4FF4806233
:101B48001A61194B4FF400625A61174B4FF4005257
:101B58009A61154B0022DA61134B00221A62124B6C
:101B680000225A62104801F0C3F80346002B01D046
:101B7800FFF756FF7B680C4A9A630B4A7B689363AE
:101B880000220021122001F07CF8122001F095F8C3
:101B980000BF2837BD4680BD002001400038024004
:101BA80000000240000402406C0100201064024062
:101BB80080B58AB000AF786007F1140300221A607C
:101BC8005A609A60DA601A617B681B68474A9342D8
:101BD80040F0878000233B61454B1B6B444A43F030
:101BE80002031363424B1B6B03F002033B613B6927
:101BF800C0237B611223BB610023FB6103233B628B
:101C080004237B6207F1140319463A4801F00EFCDD
:101C18000023FB60364B1B6C354A43F400131364F6
:101C2800334B1B6C03F40013FB60FB68324B334AE5
:101C38001A60314B4FF000725A602F4B00229A60A5
:101C48002D4B0022DA602C4B4FF480621A612A4B2C
:101C580000225A61284B00229A61274B0022DA6140
:101C6800254B00221A62244B00225A62224801F0B6
:101C78003FF80346002B01D0FFF7D2FE7B681E4ACF
:101C88009A631D4A7B6893631D4B1E4A1A601C4B5E
:101C980000225A601A4B40229A60194B0022DA60DF
:101CA800174B4FF480621A61154B00225A61144B8E
:101CB80000229A61124B0022DA61114B00221A624B
:101CC8000F4B00225A620E4801F012F80346002B0F
:101CD80001D0FFF7A5FE7B68094A5A63084A7B686A
:101CE800936300BF2837BD4680BD00BF0054004045
:101CF8000038024000040240200200201060024028
:101D0800800200202860024080B584B000AF78606F
:101D18007B681B681C4A934216D10023FB601B4B4F
:101D28005B6C1A4A43F001035364184B5B6C03F075
:101D38000103FB60FB6800220021192000F0A1FFCD
:101D4800192000F0BAFF1AE07B681B68104A93421A
:101D580015D10023BB600D4B1B6C0C4A43F00203EA
:101D680013640A4B1B6C03F00203BB60BB680022C0
:101D780000211D2000F085FF1D2000F09EFF00BF00
:101D88001037BD4680BD00BF00000140003802404A
:101D98000004004080B588B000AF786007F10C03FC
:101DA80000221A605A609A60DA601A617B681B68C0
:101DB800124A93421DD10023BB60114B1B6B104A82
:101DC80043F0020313630E4B1B6B03F00203BB606B
:101DD800BB683023FB6002233B6100237B61002347
:101DE800BB610223FB6107F10C031946054801F0AA
:101DF8001DFB00BF2037BD4680BD00BF000400406A
:101E0800003802400004024080B400AFFEE780B40E
:101E180000AFFEE780B400AFFEE780B400AFFEE796
:101E280080B400AFFEE780B400AF00BFBD465DF8E8
:101E3800047B704780B400AF00BFBD465DF8047BEB
:101E4800704780B400AF00BFBD465DF8047B7047A3
:101E580080B500AF00F0D6F800BF80BD80B500AFF8
:101E6800024801F06DF800BF80BD00BF20020020CD
:101E780080B500AF024801F063F800BF80BD00BF25
:101E88008002002080B500AF024800F042F900BF90
:101E980080BD00BF2401002080B500AF024804F0D7
:101EA800C7FF00BF80BD00BFE002002080B500AFC3
:101EB800024804F0BDFF00BF80BD00BF280300201A
:101EC80080B500AF024801F03BF800BF80BD00BFFD
:101ED8006C01002080B500AF024803F09BF800BFFA
:101EE80080BD00BF1C0F002080B400AF064BD3F8A4
:101EF8008830054A43F47003C2F8883000BFBD46F5
:101F08005DF8047B704700BF00ED00E0DFF834D0D7
:101F1800FFF7EAFF0C480D490D4A002302E0D458A8
:101F2800C4500433C4188C42F9D30A4A0A4C00231B
:101F380001E013600432A242FBD309F035FEFEF73C
:101F480093FD7047000002200000002004010020DB
:101F580088BC00080401002020160020FEE70000CD
:101F680080B500AF0E4B1B680D4A43F40073136035
:101F78000B4B1B680A4A43F480631360084B1B68C9
:101F8800074A43F480731360032000F06FFE0F20AC
:101F980000F008F8FFF74AFD0023184680BD00BF8F
:101FA800003C024080B582B000AF7860124B1A68DE
:101FB800124B1B7819464FF47A73B3FBF1F3B2FB5B
:101FC800F3F3184600F087FE0346002B01D00123E7
:101FD8000EE07B680F2B0AD8002279684FF0FF309B
:101FE80000F04FFE064A7B681360002300E00123DF
:101FF80018460837BD4680BD0000002008000020B4
:102008000400002080B400AF064B1B781A46064B2C
:102018001B681344044A136000BFBD465DF8047B87
:10202800704700BF080000203406002080B400AFCD
:10203800034B1B681846BD465DF8047B704700BF1C
:102048003406002080B584B000AF7860FFF7EEFF5B
:10205800B8607B68FB60FB68B3F1FF3F05D00A4BB3
:102068001B781A46FB681344FB6000BFFFF7DEFFCE
:102078000246BB68D31AFA689A42F7D800BF00BF75
:102088001037BD4680BD00BF0800002080B584B071
:1020980000AF78600023FB737B68002B01D101231C
:1020A80033E07B681B6C002B09D17868FFF7E6FCEE
:1020B8007B6800225A647B68002283F83C207B6896
:1020C8001B6C03F01003002B18D17B681B6C23F4E6
:1020D800885323F0020343F002027B681A6478688D
:1020E80000F06CFB7B6800225A647B681B6C23F051
:1020F800030343F001027B681A6401E00123FB73C8
:102108007B68002283F83C20FB7B18461037BD46CD
:1021180080BD80B586B000AF786000237B61002366
:102128003B617B681B681B68FB607B681B685B689E
:10213800BB60FB6803F002037B61BB6803F020030C
:102148003B617B69002B49D03B69002B46D07B68FB
:102158001B6C03F01003002B05D17B681B6C43F448
:1021680000727B681A647B681B689B6803F04053A5
:10217800002B2BD17B681B7E002B27D17B681B682B
:10218800DB6A03F47003002B06D07B681B689B682E
:1021980003F48063002B19D17B681B685A687B683D
:1021A8001B6822F020025A607B681B6C23F4807243
:1021B8007B681A647B681B6C03F48053002B05D181
:1021C8007B681B6C43F001027B681A647868FEF731
:1021D800E7FB7B681B686FF012021A60FB6803F06C
:1021E80004037B61BB6803F080033B617B69002BC0
:1021F80057D03B69002B54D07B681B6C03F010034D
:10220800002B05D17B681B6C43F400527B681A6471
:102218007B681B689B6803F44013002B39D17B68EB
:102228001B689B6B03F44013002B06D07B681B686C
:102238009B6803F48063002B2BD17B681B685B6869
:1022480003F48063002B24D17B681B689B6803F030
:102258004053002B1DD17B681B7E002B19D17B6856
:102268001B685A687B681B6822F080025A607B688A
:102278001B6C23F480527B681A647B681B6C03F424
:102288008073002B05D17B681B6C43F001027B68CF
:102298001A64786800F010FC7B681B686FF00C0209
:1022A8001A60FB6803F001037B61BB6803F040031D
:1022B8003B617B69002B17D03B69002B14D07B68EE
:1022C8001B681B6803F00103012B0DD17B681B6C95
:1022D80043F480327B681A64786800F029F97B68D7
:1022E8001B686FF001021A60FB6803F020037B6132
:1022F800BB6803F080633B617B69002B15D03B69A9
:10230800002B12D07B685B6C43F002027B685A6436
:102318007B681B686FF020021A60786800F012F979
:102328007B681B686FF020021A6000BF1837BD4633
:1023380080BD000080B588B000AFF860B9607A60F1
:1023480000237B610023FB77FB6893F83C30012B6B
:1023580001D10223D0E0FB68012283F83C20FB680E
:102368001B689B6803F00103012B18D0FB681B68EE
:102378009A68FB681B6842F001029A60604B1B6810
:10238800604AA2FB03239A0C13465B0013447B614B
:1023980002E07B69013B7B617B69002BF9D1FB681B
:1023A8001B689B6803F48073B3F5807F07D1FB68D3
:1023B8001B689A68FB681B6822F480729A60FB6845
:1023C8001B689B6803F00103012B40F08880FB68C1
:1023D8001B6C23F4E06323F0010343F48072FB6871
:1023E8001A64FB681B685B6803F48063002B07D0E2
:1023F800FB681B6C23F4405343F48052FB681A6457
:10240800FB681B6C03F48053B3F5805F06D1FB684F
:102418005B6C23F00602FB685A6402E0FB6800224A
:102428005A64FB68002283F83C20374BBB61FB6889
:102438009B6B364ADA63FB689B6B354A1A64FB6808
:102448009B6B344ADA64FB681B686FF022021A60DF
:10245800FB681B685A68FB681B6842F080625A6018
:10246800FB681B689A68FB681B6842F480729A6074
:10247800FB68986BFB681B684C331946BA687B6825
:1024880000F0E4FC0346FB77BB695B6803F01F03BD
:10249800002B0FD1FB681B689B6803F04053002B8F
:1024A80029D1FB681B689A68FB681B6842F0804268
:1024B8009A6020E0FB681B68174A93421BD1FB68AF
:1024C8001B689B6803F04053002B14D1FB681B6802
:1024D8009A68FB681B6842F080429A600BE0FB68D0
:1024E8001B6C43F01002FB681A64FB685B6C43F0DA
:1024F8000102FB685A64FB7F18462037BD4680BD41
:102508000000002083DE1B4300230140BD29000892
:10251800772A0008932A00080020014080B483B07D
:1025280000AF786000BF0C37BD465DF8047B70478C
:1025380080B483B000AF786000BF0C37BD465DF84B
:10254800047B704780B483B000AF786000BF0C375D
:10255800BD465DF8047B704780B485B000AF7860F5
:1025680039600023BB607B6893F83C30012B01D1B4
:10257800022313E17B68012283F83C203B681B6837
:10258800092B25D97B681B68D9683B681B689BB2F7
:102598001A4613465B0013441E3B072202FA03F354
:1025A800DA437B681B680A40DA607B681B68D96875
:1025B8003B689A683B681B689BB2184603465B00F9
:1025C80003441E3B9A407B681B680A43DA6022E09A
:1025D8007B681B6819693B681B689BB21A461346DF
:1025E8005B001344072202FA03F3DA437B681B6893
:1025F8000A401A617B681B6819693B689A683B68DE
:102608001B689BB2184603465B0003449A407B68EC
:102618001B680A431A613B685B68062B24D87B68F1
:102628001B68596B3B685A6813469B001344053B6B
:102638001F2202FA03F3DA437B681B680A405A63D5
:102648007B681B68596B3B681B689BB218463B68E4
:102658005A6813469B001344053B00FA03F27B6853
:102668001B680A435A634CE03B685B680C2B24D810
:102678007B681B68196B3B685A6813469B001344B8
:10268800233B1F2202FA03F3DA437B681B680A40E4
:102698001A637B681B68196B3B681B689BB21846FA
:1026A8003B685A6813469B001344233B00FA03F225
:1026B8007B681B680A431A6323E07B681B68D96A36
:1026C8003B685A6813469B001344413B1F2202FA99
:1026D80003F3DA437B681B680A40DA627B681B688D
:1026E800D96A3B681B689BB218463B685A68134610
:1026F8009B001344413B00FA03F27B681B680A43C2
:10270800DA62294BFB607B681B68284A93420FD129
:102718003B681B68122B0BD1FB685B6823F4000233
:10272800FB685A60FB685B6843F48002FB685A6088
:102738007B681B681D4A93422BD13B681B681C4A67
:10274800934203D03B681B68112B22D1FB685B685E
:1027580023F48002FB685A60FB685B6843F400025C
:10276800FB685A603B681B68114A934211D1114BB0
:102778001B68114AA2FB03239A0C13469B001344BF
:102788005B00BB6002E0BB68013BBB60BB68002B21
:10279800F9D17B68002283F83C20002318461437BF
:1027A800BD465DF8047B70470023014000200140CE
:1027B800120000100000002083DE1B4380B485B0A7
:1027C80000AF7860794BFB60FB685B6823F44032AC
:1027D800FB685A60FB685A687B685B681A43FB6849
:1027E8005A607B681B685A687B681B6822F4807291
:1027F8005A607B681B6859687B681B691A027B688A
:102808001B680A435A607B681B685A687B681B68A8
:1028180022F040725A607B681B6859687B689A6826
:102828007B681B680A435A607B681B689A687B68E8
:102838001B6822F400629A607B681B6899687B6851
:10284800DA687B681B680A439A607B689B6A584A07
:10285800934222D07B681B689A687B681B6822F0C9
:1028680070629A607B681B6899687B689A6A7B6863
:102878001B680A439A607B681B689A687B681B68B8
:1028880022F040529A607B681B6899687B68DA6A14
:102898007B681B680A439A600FE07B681B689A682C
:1028A8007B681B6822F070629A607B681B689A6874
:1028B8007B681B6822F040529A607B681B689A68A4
:1028C8007B681B6822F002029A607B681B68996823
:1028D8007B681B7E5A007B681B680A439A607B688A
:1028E80093F82030002B1BD07B681B685A687B68E4
:1028F8001B6842F400625A607B681B685A687B68F0
:102908001B6822F460425A607B681B6859687B68C0
:102918005B6A013B5A037B681B680A435A6007E0FD
:102928007B681B685A687B681B6822F400625A60DF
:102938007B681B68DA6A7B681B6822F47002DA62BB
:102948007B681B68D96A7B68DB69013B1A057B6871
:102958001B680A43DA627B681B689A687B681B6895
:1029680022F400729A607B681B6899687B6893F808
:1029780030305A027B681B680A439A607B681B6880
:102988009A687B681B6822F480629A607B681B687F
:1029980099687B685B699A027B681B680A439A603E
:1029A80000BF1437BD465DF8047B70470023014023
:1029B8000100000F80B584B000AF78607B689B6B26
:1029C800FB60FB681B6C03F05003002B3CD1FB68D9
:1029D8001B6C43F40072FB681A64FB681B689B68F5
:1029E80003F04053002B2BD1FB681B7E002B27D113
:1029F800FB681B68DB6A03F47003002B06D0FB68D6
:102A08001B689B6803F48063002B19D1FB681B6863
:102A18005A68FB681B6822F020025A60FB681B6C2E
:102A280023F48072FB681A64FB681B6C03F4805300
:102A3800002B05D1FB681B6C43F00102FB681A648C
:102A4800F868FDF7ADFF0EE0FB681B6C03F01003A0
:102A5800002B03D0F868FFF775FD04E0FB689B6B5B
:102A6800DB6C7868984700BF1037BD4680BD80B5DD
:102A780084B000AF78607B689B6BFB60F868FFF7F9
:102A88004DFD00BF1037BD4680BD80B584B000AF96
:102A980078607B689B6BFB60FB6840221A64FB686C
:102AA8005B6C43F00402FB685A64F868FFF74AFD60
:102AB80000BF1037BD4680BD80B483B000AF7860DA
:102AC80000BF0C37BD465DF8047B704780B485B005
:102AD80000AF78607B6803F00703FB600C4BDB6892
:102AE800BB60BA684FF6FF031340BB60FB681A026D
:102AF800BB68134343F0BF6343F40033BB60044A2D
:102B0800BB68D36000BF1437BD465DF8047B7047CF
:102B180000ED00E080B400AF044BDB681B0A03F053
:102B280007031846BD465DF8047B704700ED00E0DA
:102B380080B483B000AF0346FB7197F90730002BD0
:102B48000BDBFB7903F01F02074997F907305B0994
:102B5800012000FA02F241F8232000BF0C37BD46DD
:102B68005DF8047B704700BF00E100E080B483B0EB
:102B780000AF03463960FB7197F90730002B0ADB79
:102B88003B68DAB20C4997F907301201D2B20B440C
:102B980083F800230AE03B68DAB20849FB7903F0BE
:102BA8000F03043B1201D2B20B441A7600BF0C3754
:102BB800BD465DF8047B704700E100E000ED00E0F1
:102BC80080B489B000AFF860B9607A60FB6803F040
:102BD8000703FB61FB69C3F10703042B28BF042328
:102BE800BB61FB690433062B02D9FB69033B00E098
:102BF80000237B614FF0FF32BB6902FA03F3DA432B
:102C0800BB681A407B699A404FF0FF317B6901FA33
:102C180003F3D9437B680B40134318462437BD465A
:102C28005DF8047B7047000080B582B000AF786023
:102C38007B68013BB3F1807F01D301230FE00A4A8F
:102C48007B68013B53600F214FF0FF30FFF78EFF89
:102C5800054B00229A60044B07221A60002318468D
:102C68000837BD4680BD00BF10E000E080B582B0E7
:102C780000AF78607868FFF729FF00BF0837BD46C6
:102C880080BD80B586B000AF0346B9607A60FB733B
:102C980000237B61FFF73EFF78617A68B96878693D
:102CA800FFF78EFF024697F90F3011461846FFF7D7
:102CB8005DFF00BF1837BD4680BD80B582B000AF4C
:102CC8000346FB7197F907301846FFF731FF00BF3D
:102CD8000837BD4680BD80B582B000AF786078689F
:102CE800FFF7A2FF034618460837BD4680BD00001F
:102CF80080B586B000AF786000237B61FFF796F956
:102D080038617B68002B01D1012399E07B6802229E
:102D180083F835207B68002283F834207B681B68A1
:102D28001A687B681B6822F001021A600FE0FFF73F
:102D38007DF902463B69D31A052B08D97B68202206
:102D48005A657B68032283F83520032378E07B6883
:102D58001B681B6803F00103002BE8D17B681B6824
:102D68001B687B617A69384B13407B617B685A68C2
:102D78007B689B681A437B68DB681A437B681B691E
:102D88001A437B685B691A437B689B691A437B68B3
:102D9800DB691A437B681B6A13437A6913437B61B7
:102DA8007B685B6A042B07D17B68DA6A7B681B6BDC
:102DB80013437A6913437B617B681B687A691A60DD
:102DC8007B681B685B697B617B6923F007037B6118
:102DD8007B685B6A7A6913437B617B685B6A042B57
:102DE80017D17B689B6A7A6913437B617B68DB6ACE
:102DF800002B0ED0786800F09DFA0346002B08D00F
:102E08007B6840225A657B68012283F835200123BC
:102E180016E07B681B687A695A61786800F054FA92
:102E28000346FB607B68DB6D3F229A40FB689A6033
:102E38007B6800225A657B68012283F835200023CD
:102E480018461837BD4680BD3F8010F080B586B063
:102E580000AFF860B9607A603B600023FB75FB68DF
:102E68009B6D3B61FB6893F83430012B01D1022341
:102E780040E0FB68012283F83420FB6893F8353082
:102E8800DBB2012B2FD1FB68022283F83520FB68C7
:102E980000225A653B687A68B968F86800F0E6F974
:102EA800FB68DB6D3F229A403B699A60FB681B68B0
:102EB8001A68FB681B6842F016021A60FB681B6CF4
:102EC800002B07D0FB681B681A68FB681B6842F078
:102ED80008021A60FB681B681A68FB681B6842F0E6
:102EE80001021A6005E0FB68002283F834200223FF
:102EF800FB75FB7D18461837BD4680BD80B483B08E
:102F080000AF78607B6893F83530DBB2022B04D0D1
:102F18007B6880225A6501230CE07B68052283F8D0
:102F280035207B681B681A687B681B6822F00102E1
:102F38001A60002318460C37BD465DF8047B7047BD
:102F480080B586B000AF78600023BB608E4B1B68ED
:102F58008E4AA2FB03239B0A7B617B689B6D3B61C6
:102F68003B691B68FB607B68DB6D08229A40FB6845
:102F78001340002B1AD07B681B681B6803F00403FE
:102F8800002B13D07B681B681A687B681B6822F0CB
:102F980004021A607B68DB6D08229A403B699A60DC
:102FA8007B685B6D43F001027B685A657B68DB6D6B
:102FB80001229A40FB681340002B12D07B681B68E3
:102FC8005B6903F08003002B0BD07B68DB6D01226B
:102FD8009A403B699A607B685B6D43F002027B68AC
:102FE8005A657B68DB6D04229A40FB681340002B0E
:102FF80012D07B681B681B6803F00203002B0BD000
:103008007B68DB6D04229A403B699A607B685B6D44
:1030180043F004027B685A657B68DB6D10229A4096
:10302800FB681340002B43D07B681B681B6803F0C8
:103038000803002B3CD07B68DB6D10229A403B696B
:103048009A607B681B681B6803F48023002B18D0E8
:103058007B681B681B6803F40023002B08D17B687E
:103068001B6C002B24D07B681B6C786898471FE08A
:103078007B689B6C002B1BD07B689B6C786898479F
:1030880016E07B681B681B6803F48073002B07D16C
:103098007B681B681A687B681B6822F008021A6044
:1030A8007B681B6C002B03D07B681B6C7868984787
:1030B8007B68DB6D20229A40FB681340002B00F0F0
:1030C8008F807B681B681B6803F01003002B00F0DF
:1030D80087807B68DB6D20229A403B699A607B6819
:1030E80093F83530DBB2052B36D17B681B681A683C
:1030F8007B681B6822F016021A607B681B685A6995
:103108007B681B6822F080025A617B681B6C002B6D
:1031180003D17B689B6C002B07D07B681B681A68FF
:103128007B681B6822F008021A607B68DB6D3F220F
:103138009A403B699A607B68012283F835207B6856
:10314800002283F834207B681B6D002B7ED07B68BF
:103158001B6D7868984779E07B681B681B6803F4E7
:103168008023002B1DD07B681B681B6803F4002399
:10317800002B0DD17B685B6C002B31D07B685B6CBE
:10318800786898472CE000BF00000020B5814E1BEE
:103198007B68DB6B002B23D07B68DB6B78689847F8
:1031A8001EE07B681B681B6803F48073002B0FD13B
:1031B8007B681B681A687B681B6822F010021A601B
:1031C8007B68012283F835207B68002283F834204D
:1031D8007B68DB6B002B03D07B68DB6B78689847D8
:1031E8007B685B6D002B32D07B685B6D03F001035D
:1031F800002B22D07B68052283F835207B681B686A
:103208001A687B681B6822F001021A60BB680133E8
:10321800BB607A699A4207D37B681B681B6803F016
:103228000103002BF2D100E000BF7B68012283F884
:1032380035207B68002283F834207B68DB6C002B08
:1032480005D07B68DB6C7868984700E000BF1837CA
:10325800BD4680BD80B483B000AF78607B685B6D8D
:1032680018460C37BD465DF8047B704780B485B0BE
:1032780000AFF860B9607A603B60FB681B681A6849
:10328800FB681B6822F480221A60FB681B683A6896
:103298005A60FB689B68402B08D1FB681B687A68FA
:1032A8009A60FB681B68BA68DA6007E0FB681B680D
:1032B800BA689A60FB681B687A68DA6000BF1437DE
:1032C800BD465DF8047B704780B485B000AF786078
:1032D8007B681B68DBB2103B144AA2FB03231B0963
:1032E800FB60134AFB6813441B781A467B68DA654F
:1032F800FB68032B09D97B681B6823F47F7323F0D1
:1033080003031A1D7B689A6507E07B681B6823F432
:103318007F7323F003037A6893657B689B6D184677
:103328001437BD465DF8047B704700BFABAAAAAA54
:1033380070BC000880B485B000AF78600023FB73D0
:103348007B689B6ABB607B689B69002B1FD1BB684D
:10335800032B56D801A252F823F000BF753300089A
:1033680087330008753300080B3400087B68DB6A74
:1033780003F08073002B46D00123FB7343E07B6886
:10338800DB6AB3F1C07F40D10123FB733DE07B686A
:103398009B69B3F5005F21D1BB68032B37D801A225
:1033A80052F823F0BD330008C3330008BD330008CA
:1033B800D53300080123FB7330E07B68DB6A03F038
:1033C8008073002B25D00123FB7322E07B68DB6A26
:1033D800B3F1C07F1FD10123FB731CE0BB68022B34
:1033E80003D9BB68032B03D018E00123FB7315E056
:1033F8007B68DB6A03F08073002B0ED00123FB731C
:103408000BE000BF0AE000BF08E000BF06E000BF15
:1034180004E000BF02E000BF00E000BFFB7B1846ED
:103428001437BD465DF8047B704700BF80B489B08F
:1034380000AF7860396000237B6100233B61002383
:10344800BB610023FB6159E10122FB6902FA03F326
:103458007B613B681B687A6913403B613A697B6909
:103468009A4240F048813B685B6803F00303012BF4
:1034780005D03B685B6803F00303022B30D17B68FF
:103488009B68BB61FB695B00032202FA03F3DB4321
:10349800BA691340BB613B68DA68FB695B0002FAF2
:1034A80003F3BA691343BB617B68BA699A607B68A6
:1034B8005B68BB610122FB6902FA03F3DB43BA696B
:1034C8001340BB613B685B681B0903F00102FB69A1
:1034D80002FA03F3BA691343BB617B68BA695A609D
:1034E8003B685B6803F00303032B17D07B68DB683A
:1034F800BB61FB695B00032202FA03F3DB43BA6991
:103508001340BB613B689A68FB695B0002FA03F3EE
:10351800BA691343BB617B68BA69DA603B685B6868
:1035280003F00303022B23D1FB69DA087B68083216
:1035380053F82230BB61FB6903F007039B000F229D
:1035480002FA03F3DB43BA691340BB613B681A69AB
:10355800FB6903F007039B0002FA03F3BA691343FC
:10356800BB61FB69DA087B680832B96943F8221045
:103578007B681B68BB61FB695B00032202FA03F3EB
:10358800DB43BA691340BB613B685B6803F0030225
:10359800FB695B0002FA03F3BA691343BB617B68FA
:1035A800BA691A603B685B6803F44033002B00F08B
:1035B800A2800023FB60574B5B6C564A43F4804360
:1035C8005364544B5B6C03F48043FB60FB68524AC2
:1035D800FB699B08023352F82330BB61FB6903F097
:1035E80003039B000F2202FA03F3DB43BA6913407B
:1035F800BB617B68494A934219D07B68484A934229
:1036080013D07B68474A93420DD07B68464A934261
:1036180007D07B68454A934201D1042308E0072379
:1036280006E0032304E0022302E0012300E0002374
:10363800FA6902F0030292009340BA691343BB612E
:103648003549FB699B080233BA6941F82320384B96
:103658009B68BB613B69DB43BA691340BB613B684C
:103668005B6803F48013002B03D0BA693B691343EA
:10367800BB612F4ABB6993602D4BDB68BB613B691B
:10368800DB43BA691340BB613B685B6803F4001312
:10369800002B03D0BA693B691343BB61244ABB6959
:1036A800D360234B5B68BB613B69DB43BA6913405A
:1036B800BB613B685B6803F40033002B03D0BA6935
:1036C8003B691343BB611A4ABB695360184B1B68BB
:1036D800BB613B69DB43BA691340BB613B685B680C
:1036E80003F48033002B03D0BA693B691343BB61F1
:1036F8000F4ABB691360FB690133FB61FB690F2B40
:103708007FF6A2AE00BF00BF2437BD465DF8047B3C
:10371800704700BF003802400038014000000240F6
:103728000004024000080240000C02400010024061
:10373800003C014080B483B000AF78600B467B80CA
:1037480013467B707B78002B03D07A887B689A615C
:1037580003E07B881A047B689A6100BF0C37BD467A
:103768005DF8047B704780B485B000AF78600B4685
:103778007B807B685B69FB607A88FB6813401A046E
:10378800FB68D9437B880B401A437B689A6100BF6A
:103798001437BD465DF8047B7047000080B584B0DF
:1037A80000AF78607B68002B01D101232BE17B6897
:1037B80093F83D30DBB2002B06D17B68002283F8FA
:1037C8003C207868FEF7F4F97B68242283F83D20D2
:1037D8007B681B681A687B681B6822F001021A6004
:1037E8007B681B681A687B681B6842F400421A6091
:1037F8007B681B681A687B681B6822F400421A60A1
:1038080003F046F9F8607B685B68814A934207D801
:10381800FB68804A934294BF01230023DBB206E091
:10382800FB687D4A934294BF01230023DBB2002B3F
:1038380001D00123E7E0FB68784AA2FB03239B0C35
:10384800BB607B681B685B6823F03F017B681B6873
:10385800BA680A435A607B681B681B6A23F03F01F9
:103868007B685B686A4A934202D8BB68013309E007
:10387800BB684FF4967202FB03F3694AA2FB032369
:103888009B0901337A6812680B4313627B681B68D3
:10389800DB6923F44F4222F0FF027B685B685C49D6
:1038A8008B4219D8FB68591E7B685B685B00B1FBCB
:1038B800F3F3591C40F6FC730B40002B0AD0FB684D
:1038C800591E7B685B685B00B1FBF3F30133C3F3FC
:1038D8000B0351E004234FE07B689B68002B11D158
:1038E800FB68581E7B6859680B465B000B44B0FBAD
:1038F800F3F30133C3F30B03002B0CBF01230023A5
:10390800DBB212E0FB68581E7B6859680B469B00C7
:103918000B4499000B44B0FBF3F30133C3F30B03DF
:10392800002B0CBF01230023DBB2002B01D00123A5
:1039380022E07B689B68002B0ED1FB68581E7B68D1
:1039480059680B465B000B44B0FBF3F30133C3F338
:103958000B0343F400430FE0FB68581E7B6859686B
:103968000B469B000B4499000B44B0FBF3F3013367
:10397800C3F30B0343F44043796809681343CB61ED
:103988007B681B681B6823F0C0017B68DA697B6869
:103998001B6A1A437B681B680A431A607B681B68AA
:1039A8009B6823F4034323F0FF037A6811697A685C
:1039B800D26811437A6812680B4393607B681B686E
:1039C800DB6823F0FF017B685A697B689B691A43AF
:1039D8007B681B680A43DA607B681B681A687B6827
:1039E8001B6842F001021A607B6800221A647B6837
:1039F800202283F83D207B6800221A637B6800221E
:103A080083F83E20002318461037BD4680BD00BF0E
:103A1800A08601007F841E00FF083D0083DE1B4353
:103A2800D34D621080B588B002AFF86008461146E1
:103A38001A4603467B810B463B811346FB80FEF703
:103A4800F5FA7861FB6893F83D30DBB2202B40F043
:103A5800D9807B690093192301226D49F86800F029
:103A68005FFF0346002B01D00223CCE0FB6893F8EC
:103A78003C30012B01D10223C5E0FB68012283F809
:103A88003C20FB681B681B6803F00103012B07D06F
:103A9800FB681B681A68FB681B6842F001021A6021
:103AA800FB681B681A68FB681B6822F400621A60CE
:103AB800FB68212283F83D20FB68402283F83E20E2
:103AC800FB6800221A64FB683A6A5A62FB68BA8C7F
:103AD8005A85FB685B8D9AB2FB681A85FB684D4A6C
:103AE800DA62F8883A8979897B690193BB6A00931D
:103AF8000346F86800F07AFC0346002B52D00123F5
:103B080081E07A69B96AF86801F024F80346002B65
:103B18000DD0FB681B6C042B07D1FB681B681A6867
:103B2800FB681B6842F400721A6001236BE0FB68B3
:103B38005B6A1A78FB681B681A61FB685B6A5A1C27
:103B4800FB685A62FB681B8D013B9AB2FB681A85B9
:103B5800FB685B8D9BB2013B9AB2FB685A85FB6898
:103B68001B685B6903F00403042B1BD1FB681B8DE6
:103B7800002B17D0FB685B6A1A78FB681B681A6110
:103B8800FB685B6A5A1CFB685A62FB681B8D013B29
:103B98009AB2FB681A85FB685B8D9BB2013B9AB2AF
:103BA800FB685A85FB681B8D002BAAD17A69B96A14
:103BB800F86801F017F80346002B0DD0FB681B6C62
:103BC800042B07D1FB681B681A68FB681B6842F462
:103BD80000721A60012316E0FB681B681A68FB680C
:103BE8001B6842F400721A60FB68202283F83D20AB
:103BF800FB68002283F83E20FB68002283F83C2003
:103C0800002300E0022318461837BD4680BD00BFD8
:103C1800020010000000FFFF80B58CB002AFF86012
:103C2800084611461A4603467B810B463B811346DC
:103C3800FB80FEF7FBF97862FB6893F83D30DBB256
:103C4800202B40F014827B6A0093192301227B49C0
:103C5800F86800F065FE0346002B01D0022307E256
:103C6800FB6893F83C30012B01D1022300E2FB688A
:103C7800012283F83C20FB681B681B6803F00103E2
:103C8800012B07D0FB681B681A68FB681B6842F0A9
:103C980001021A60FB681B681A68FB681B6822F43B
:103CA80000621A60FB68222283F83D20FB684022EC
:103CB80083F83E20FB6800221A64FB683A6B5A625C
:103CC800FB68BA8E5A85FB685B8D9AB2FB681A85C9
:103CD800FB685B4ADA62F8883A8979897B6A0193DA
:103CE800BB6B00930346F86800F016FC0346002BF4
:103CF80001D00123BCE1FB681B8D002B13D10023ED
:103D08003B62FB681B685B693B62FB681B689B69DD
:103D18003B623B6AFB681B681A68FB681B6842F4D5
:103D280000721A6090E1FB681B8D012B1BD1FB68A8
:103D38001B681A68FB681B6822F480621A600023FB
:103D4800FB61FB681B685B69FB61FB681B689B691F
:103D5800FB61FB69FB681B681A68FB681B6842F417
:103D680000721A6070E1FB681B8D022B1BD1FB6887
:103D78001B681A68FB681B6822F480621A60FB687B
:103D88001B681A68FB681B6842F400621A6000230B
:103D9800BB61FB681B685B69BB61FB681B689B694F
:103DA800BB61BB6950E100237B61FB681B685B69F1
:103DB8007B61FB681B689B697B617B6944E1FB68ED
:103DC8001B8D032B00F2F180FB681B8D012B23D187
:103DD8007A6AB96BF86800F04DFF0346002B01D0F2
:103DE800012345E1FB681B681A69FB685B6AD2B26C
:103DF8001A70FB685B6A5A1CFB685A62FB681B8D69
:103E0800013B9AB2FB681A85FB685B8D9BB2013B4C
:103E18009AB2FB685A8517E1FB681B8D022B4ED1BD
:103E28007B6A0093BB6B00220649F86800F078FDB6
:103E38000346002B08D001231AE100BF020010003E
:103E48000000FFFF04000100FB681B681A68FB689C
:103E58001B6842F400721A60FB681B681A69FB68E9
:103E68005B6AD2B21A70FB685B6A5A1CFB685A62BA
:103E7800FB681B8D013B9AB2FB681A85FB685B8D5A
:103E88009BB2013B9AB2FB685A85FB681B681A69AA
:103E9800FB685B6AD2B21A70FB685B6A5A1CFB68E3
:103EA8005A62FB681B8D013B9AB2FB681A85FB6856
:103EB8005B8D9BB2013B9AB2FB685A85C4E07B6A72
:103EC8000093BB6B00226C49F86800F029FD03469B
:103ED800002B01D00123CBE0FB681B681A68FB6844
:103EE8001B6822F480621A60FB681B681A69FB6809
:103EF8005B6AD2B21A70FB685B6A5A1CFB685A622A
:103F0800FB681B8D013B9AB2FB681A85FB685B8DC9
:103F18009BB2013B9AB2FB685A857B6A0093BB6BE4
:103F280000225549F86800F0FBFC0346002B01D03D
:103F380001239DE0FB681B681A68FB681B6842F454
:103F480000721A60FB681B681A69FB685B6AD2B268
:103F58001A70FB685B6A5A1CFB685A62FB681B8D07
:103F6800013B9AB2FB681A85FB685B8D9BB2013BEB
:103F78009AB2FB685A85FB681B681A69FB685B6A1A
:103F8800D2B21A70FB685B6A5A1CFB685A62FB68FB
:103F98001B8D013B9AB2FB681A85FB685B8D9BB24F
:103FA800013B9AB2FB685A854EE07A6AB96BF868A9
:103FB80000F060FE0346002B01D0012358E0FB68A7
:103FC8001B681A69FB685B6AD2B21A70FB685B6A85
:103FD8005A1CFB685A62FB681B8D013B9AB2FB684E
:103FE8001A85FB685B8D9BB2013B9AB2FB685A85C8
:103FF800FB681B685B6903F00403042B24D1FB688E
:104008001B8D032B07D1FB681B681A68FB681B68AC
:1040180022F480621A60FB681B681A69FB685B6A95
:10402800D2B21A70FB685B6A5A1CFB685A62FB685A
:104038001B8D013B9AB2FB681A85FB685B8D9BB2AE
:10404800013B9AB2FB685A85FB681B8D002B7FF4F5
:10405800B6AEFB68202283F83D20FB68002283F877
:104068003E20FB68002283F83C20002300E0022366
:1040780018462837BD4680BD0400010080B58CB0C5
:1040880002AFF860084611461A4603467B810B4684
:104098003B811346FB80FDF7C9FF78620023FB6173
:1040A800FB6893F83D30DBB2202B40F07281934BD4
:1040B8001B68DB08924AA2FB03231A0A13469B00DB
:1040C80013449A001344FB61FB69013BFB61FB69E4
:1040D800002B12D1FB6800221A63FB68202283F8A8
:1040E8003D20FB68002283F83E20FB681B6C43F0F0
:1040F8002002FB681A6402234CE1FB681B689B6979
:1041080003F00203022BDFD0FB6893F83C30012B4D
:1041180001D102233EE1FB68012283F83C20FB68C1
:104128001B681B6803F00103012B07D0FB681B68A1
:104138001A68FB681B6842F001021A60FB681B687A
:104148001A68FB681B6822F400621A60FB68222266
:1041580083F83D20FB68402283F83E20FB6800225C
:104168001A64FB683A6B5A62FB68BA8E5A85FB6818
:104178005B8D9AB2FB681A85FB68624ADA627A89B3
:10418800FB685A643A89FB689A64FA88FB68DA64BF
:10419800FB6800221A65FB681B8D002B00F0CC80A1
:1041A800FB689B6B002B2DD0FB689B6B564ADA6330
:1041B800FB689B6B554ADA64FB689B6B00221A64A8
:1041C800FB689B6B00225A64FB689B6B00229A6415
:1041D800FB689B6B00221A65FB68986BFB681B6881
:1041E80010331946FB685B6A1A46FB681B8DFEF79D
:1041F8002DFE034687F8233097F82330002B40F034
:10420800878013E0FB68202283F83D20FB680022AA
:1042180083F83E20FB681B6C43F08002FB681A643D
:10422800FB68002283F83C200123B3E0F8883A8930
:1042380079897B6A0193232300930346F86800F089
:104248006BF90346002B23D0FB689B6B1846FEF7DF
:1042580055FE034687F82330FB689B6B0022DA6320
:10426800FB681B681A68FB681B6822F480621A6086
:10427800FB6800221A85FB6800225A85FB681B68C8
:104288001A68FB681B6822F001021A60012381E0AA
:10429800FB681B8D012B08D1FB681B681A68FB683B
:1042A8001B6822F480621A6007E0FB681B685A6882
:1042B800FB681B6842F480525A600023BB61FB68AC
:1042C8001B685B69BB61FB681B689B69BB61BB6959
:1042D800FB68002283F83C20FB681B685A68FB686F
:1042E8001B6842F480725A60FB681B685A68FB6856
:1042F8001B6842F400625A6049E000BF00000020D9
:1043080089B5F8140000FFFFF1460008AF4800081F
:10431800FB68202283F83D20FB68002283F83E20BA
:10432800FB681B6C43F01002FB681A64FB680022F0
:1043380083F83C2001232DE0F8883A8979897B6A43
:104348000193232300930346F86800F0E5F8034639
:10435800002B01D001231DE000237B61FB681B6853
:104368005B697B61FB681B689B697B617B69FB6898
:104378001B681A68FB681B6842F400721A60FB68C5
:10438800202283F83D20FB68002283F83C2000238C
:1043980000E0022318462837BD4680BD80B483B0AC
:1043A80000AF786000BF0C37BD465DF8047B7047EE
:1043B80080B483B000AF786000BF0C37BD465DF8AD
:1043C800047B704780B483B000AF786000BF0C37BF
:1043D800BD465DF8047B704780B483B000AF786059
:1043E80000BF0C37BD465DF8047B704780B588B0C8
:1043F80002AFF860084611461A4603467B810B4611
:104408003B811346FB80FB681B681A68FB681B68C6
:1044180042F480721A607B6A00933B6A00224FF074
:104428000111F86800F07CFA0346002B0DD0FB68F8
:104438001B681B6803F48073B3F5807F03D1FB68A6
:104448004FF400721A6403235FE07B89DBB21A46DB
:10445800FB681B6802F0FE021A617B6A3A6A2D4902
:10446800F86800F0D7FA0346002B01D001234CE08E
:1044780000237B61FB681B685B697B61FB681B68C9
:104488009B697B617B697A6A396AF86800F062FB2C
:104498000346002B0DD0FB681B6C042B07D1FB686F
:1044A8001B681A68FB681B6842F400721A600123D3
:1044B8002BE0FB88012B05D13B89DAB2FB681B682E
:1044C8001A6121E03B891B0A9BB2DAB2FB681B68C0
:1044D8001A617A6A396AF86800F03CFB0346002BD7
:1044E8000DD0FB681B6C042B07D1FB681B681A688E
:1044F800FB681B6842F400721A60012305E03B89DF
:10450800DAB2FB681B681A61002318461837BD46E3
:1045180080BD00BF0200010080B588B002AFF8601E
:10452800084611461A4603467B810B463B811346D3
:10453800FB80FB681B681A68FB681B6842F4806292
:104548001A60FB681B681A68FB681B6842F4807273
:104558001A607B6A00933B6A00224FF00111F868E9
:1045680000F0DEF90346002B0DD0FB681B681B68C2
:1045780003F48073B3F5807F03D1FB684FF40072B6
:104588001A640323AAE07B89DBB21A46FB681B681E
:1045980002F0FE021A617B6A3A6A5249F86800F032
:1045A80039FA0346002B01D0012397E000237B61F1
:1045B800FB681B685B697B61FB681B689B697B61A7
:1045C8007B697A6A396AF86800F0C4FA0346002BF6
:1045D8000DD0FB681B6C042B07D1FB681B681A689D
:1045E800FB681B6842F400721A60012376E0FB88BE
:1045F800012B05D13B89DAB2FB681B681A6121E0FF
:104608003B891B0A9BB2DAB2FB681B681A617A6A9B
:10461800396AF86800F09EFA0346002B0DD0FB6853
:104628001B6C042B07D1FB681B681A68FB681B68A6
:1046380042F400721A60012350E03B89DAB2FB6849
:104648001B681A617A6A396AF86800F083FA0346C7
:10465800002B0DD0FB681B6C042B07D1FB681B6873
:104668001A68FB681B6842F400721A60012335E07F
:10467800FB681B681A68FB681B6842F480721A6042
:104688007B6A00933B6A00224FF00111F86800F042
:1046980047F90346002B0DD0FB681B681B6803F421
:1046A8008073B3F5807F03D1FB684FF400721A64FE
:1046B800032313E07B89DBB243F00103DAB2FB6822
:1046C8001B681A617B6A3A6A0649F86800F0A2F921
:1046D8000346002B01D0012300E0002318461837B9
:1046E800BD4680BD0200010080B586B000AF78608D
:1046F8007B689B6B7B617B6993F83D30FB747B69BE
:1047080093F83E30BB747B69DB6AFB607B691B688E
:104718005A687B691B6822F440725A607B695B6B3C
:10472800002B03D07B695B6B0022DA637B699B6B90
:10473800002B03D07B699B6B0022DA63FB7C03F0C0
:104748002103212B07D0FB7C03F02203222B31D13C
:10475800BB7C202B2ED17B691B685A687B691B6840
:1047680022F400625A607B6900225A85FB7C292B5F
:104778000AD17B6921221A637B69282283F83D20AC
:104788007869FFF715FE0CE0FB7C2A2B09D17B69C1
:1047980022221A637B69282283F83D207869FFF773
:1047A80011FE7B691B685A687B691B6842F440727A
:1047B8005A6074E07B6993F83E30DBB2002B6ED010
:1047C8007B695B8D9BB2012B07D17B691B681A68DB
:1047D8007B691B6822F480621A607B691B685A68CF
:1047E8007B691B6822F440725A60FB6813F5803FAE
:1047F80009D0FB68082B06D0FB68B3F12A4F02D01A
:10480800FB68202B07D17B691B681A687B691B68CA
:1048180042F400721A607B691B685A687B691B68DE
:1048280022F480525A607B691B685A687B691B684E
:1048380022F400625A607B6900225A857B691B6CEE
:10484800002B03D07869FFF7C7FD28E07B69202299
:1048580083F83D207B6993F83E30DBB2402B0AD1C8
:104868007B69002283F83E207B6900221A637869FD
:10487800FCF7A0F813E07B69002283F83E20FB6870
:10488800082B02D0FB68202B03D17B6900221A6316
:1048980002E07B6912221A637869FFF77FFD00BF87
:1048A8001837BD4680BD80B584B000AF78607B689E
:1048B8009B6BFB60FB685B6B002B03D0FB685B6B3F
:1048C8000022DA63FB689B6B002B03D0FB689B6BB1
:1048D8000022DA637868FEF7BDFC0346022B1BD082
:1048E800FB681B681A68FB681B6822F480621A6000
:1048F800FB6800225A85FB68202283F83D20FB686C
:10490800002283F83E20FB681B6C43F01002FB6812
:104918001A64F868FFF760FD00BF1037BD4680BD18
:1049280080B584B000AFF860B9603B601346FB7196
:1049380048E03B68B3F1FF3F44D0FDF777FB024600
:10494800BB69D31A3A689A4202D33B68002B39D123
:10495800BB681B0CDBB2012B0DD1FB681B685B69C4
:10496800DA43BB6813409BB2002B0CBF0123002322
:10497800DBB21A460CE0FB681B689B69DA43BB682C
:1049880013409BB2002B0CBF01230023DBB21A4655
:10499800FB799A4216D1FB6800221A63FB68202231
:1049A80083F83D20FB68002283F83E20FB681B6CDF
:1049B80043F02002FB681A64FB68002283F83C205D
:1049C800012323E0BB681B0CDBB2012B0DD1FB6874
:1049D8001B685B69DA43BB6813409BB2002B0CBFB2
:1049E80001230023DBB21A460CE0FB681B689B69B5
:1049F800DA43BB6813409BB2002B0CBF0123002392
:104A0800DBB21A46FB799A4293D000231846103736
:104A1800BD4680BD80B584B000AFF860B9607A60EB
:104A28003B6071E0FB681B685B6903F48063B3F566
:104A3800806F23D1FB681B681A68FB681B6842F407
:104A480000721A60FB681B686FF480625A61FB6829
:104A580000221A63FB68202283F83D20FB680022AD
:104A680083F83E20FB681B6C43F00402FB681A6461
:104A7800FB68002283F83C20012367E07B68B3F1E0
:104A8800FF3F41D0FDF7D2FA02463B68D31A7A6855
:104A98009A4202D37B68002B36D1BB681B0CDBB271
:104AA800012B0CD1FB681B685B69DA43BB681340B8
:104AB8009BB2002B14BF01230023DBB20BE0FB6881
:104AC8001B689B69DA43BB6813409BB2002B14BF79
:104AD80001230023DBB2002B16D0FB6800221A63E7
:104AE800FB68202283F83D20FB68002283F83E20E3
:104AF800FB681B6C43F02002FB681A64FB68002209
:104B080083F83C20012321E0BB681B0CDBB2012B9E
:104B18000CD1FB681B685B69DA43BB6813409BB226
:104B2800002B14BF01230023DBB20BE0FB681B68DA
:104B38009B69DA43BB6813409BB2002B14BF012367
:104B48000023DBB2002B7FF46DAF0023184610372B
:104B5800BD4680BD80B584B000AFF860B9607A60AA
:104B680034E0F86800F0E3F80346002B01D0012395
:104B780034E0BB68B3F1FF3F28D0FDF757FA02468F
:104B88007B68D31ABA689A4202D3BB68002B1DD13E
:104B9800FB681B685B6903F08003802B16D0FB68F9
:104BA80000221A63FB68202283F83D20FB6800225C
:104BB80083F83E20FB681B6C43F02002FB681A64F4
:104BC800FB68002283F83C20012307E0FB681B6890
:104BD8005B6903F08003802BC3D10023184610378C
:104BE800BD4680BD80B584B000AFF860B9607A601A
:104BF80034E0F86800F09BF80346002B01D001234D
:104C080034E0BB68B3F1FF3F28D0FDF70FFA024646
:104C18007B68D31ABA689A4202D3BB68002B1DD1AD
:104C2800FB681B685B6903F00403042B16D0FB6860
:104C380000221A63FB68202283F83D20FB680022CB
:104C480083F83E20FB681B6C43F02002FB681A6463
:104C5800FB68002283F83C20012307E0FB681B68FF
:104C68005B6903F00403042BC3D1002318461037F3
:104C7800BD4680BD80B584B000AFF860B9607A6089
:104C880049E0FB681B685B6903F01003102B19D11E
:104C9800FB681B686FF010025A61FB6800221A63F8
:104CA800FB68202283F83D20FB68002283F83E2021
:104CB800FB681A6CFB681A64FB68002283F83C20C6
:104CC800012330E0FDF7B2F902467B68D31ABA68CF
:104CD8009A4202D3BB68002B1DD1FB681B685B6935
:104CE80003F04003402B16D0FB6800221A63FB68D0
:104CF800202283F83D20FB68002283F83E20FB68D1
:104D08001B6C43F02002FB681A64FB68002283F8DE
:104D18003C20012307E0FB681B685B6903F0400344
:104D2800402BAED1002318461037BD4680BD80B455
:104D380083B000AF78607B681B685B6903F48063AD
:104D4800B3F5806F1BD17B681B686FF480625A6172
:104D58007B6800221A637B68202283F83D207B68E9
:104D6800002283F83E207B681B6C43F004027B68BA
:104D78001A647B68002283F83C20012300E00023AA
:104D880018460C37BD465DF8047B704780B586B081
:104D980002AF78607B68002B01D1012301E17B68B9
:104DA8001B68BB607B6893F89534DBB2002B06D197
:104DB8007B68002283F89424786806F0E3FB7B681C
:104DC800032283F89524BB68B3F1A04F02D17B6816
:104DD80000229A717B681B68184602F036FF7B68D0
:104DE80018687B681A7C8DF8002004330ECB02F01B
:104DF80015FE0346002B05D07B68022283F8952414
:104E08000123CEE07B681B680021184602F02EFFC4
:104E18000346002B05D07B68022283F895240123E2
:104E2800BFE00023FB734AE0FA7B79681346DB0096
:104E380013449B000B44153301221A70FA7B7968DE
:104E48001346DB0013449B000B441433FA7B1A709F
:104E5800FA7BFB7B98B279681346DB0013449B000E
:104E68000B442E3302461A80FA7B79681346DB001E
:104E780013449B000B44183300221A70FA7B79689C
:104E88001346DB0013449B000B441C3300221A60BA
:104E9800FA7B79681346DB0013449B000B442033EC
:104EA80000221A60FA7B79681346DB0013449B00E2
:104EB8000B44243300221A60FB7B0133FB737B68AD
:104EC8001B79FA7B9A42AFD30023FB7344E0FA7B49
:104ED80079681346DB0013449B000B4403F2552307
:104EE80000221A70FA7B79681346DB0013449B0092
:104EF8000B4403F51573FA7B1A70FA7B796813462D
:104F0800DB0013449B000B4403F5167300221A7050
:104F1800FA7B79681346DB0013449B000B4403F5C6
:104F2800177300221A60FA7B79681346DB00134472
:104F38009B000B4403F5187300221A60FA7B79680A
:104F48001346DB0013449B000B4403F5197300223E
:104F58001A60FB7B0133FB737B681B79FA7B9A42EF
:104F6800B5D37B6818687B681A7C8DF800200433F9
:104F78000ECB02F0C7FE0346002B05D07B68022249
:104F880083F8952401230CE07B6800225A747B681F
:104F9800012283F895247B681B68184603F011FFEB
:104FA800002318461037BD4680BD80B584B000AFD9
:104FB80078607B681B68FB607B6893F89434012BEE
:104FC80001D1022322E07B68012283F89424FB6844
:104FD800DB6803F04003002B09D07B685B7B012B67
:104FE80005D1FB689B6B43F48032FB689A637B684E
:104FF8001B68184602F018FE7B681B68184603F009
:10500800BFFE7B68002283F89424002318461037DB
:10501800BD4680BD90B58DB000AF78607B681B68D9
:105028003B623B6AFB617B681B68184603F07DFFA7
:105038000346002B40F08C847B681B68184603F0FD
:10504800E1FE0346002B00F08284FB6903F5006350
:105058009B681B0AC3F30D027B68C3F8D4247B68E2
:105068001B68184603F0CEFE034603F00203022B2A
:1050780007D17B681B685A697B681B6802F00202CB
:105088005A617B681B68184603F0BCFE034603F0B0
:105098001003102B61D17B681B689A697B681B68B9
:1050A80022F010029A613B6A1B6ABB61BB6903F07C
:1050B8000F021346DB0013449B0003F514737A6850
:1050C800134404337B61BB695B0C03F00F03022BB1
:1050D80024D1BA6947F6F0731340002B35D07B69A9
:1050E800D968BB691B099BB2C3F30A039BB21A4672
:1050F800386A03F0F3FC7B69DA68BB691B09C3F300
:105108000A031A447B69DA607B695A69BB691B091F
:10511800C3F30A031A447B695A6116E0BB695B0C46
:1051280003F00F03062B10D17B6803F29C4308227F
:105138001946386A03F0D2FC7B695A69BB691B09B6
:10514800C3F30A031A447B695A617B681B689A692E
:105158007B681B6842F010029A617B681B681846DE
:1051680003F050FE034603F40023B3F5002F40F08C
:10517800A78000237B627B681B68184603F055FEF6
:10518800B86299E0BB6A03F00103002B00F08E803F
:105198007B681B687A6AD2B21146184603F079FE1A
:1051A80038613B6903F00103002B0CD07B6A5A017C
:1051B800FB69134403F530631A4601239360796A47
:1051C800786800F0A3FE3B6903F00803002B0CD0BD
:1051D8007B6A5A01FB69134403F530631A460823B6
:1051E8009360796A786800F079FF3B6903F01003EF
:1051F800002B08D07B6A5A01FB69134403F530631E
:105208001A46102393603B6903F00203002B30D049
:105218003B6A5B6903F08003802B09D1FB6903F5C6
:1052280000635B68FA6902F5006243F480635360C7
:105238007A6A1346DB0013449B0003F514737A68FB
:10524800134404337B617B69DB78012B08D17B69CC
:105258000022DA707B6ADBB21946786806F08EFAAB
:105268007B6A5A01FB69134403F530631A4602232B
:1052780093603B6903F02003002B08D07B6A5A0136
:10528800FB69134403F530631A46202393603B6996
:1052980003F40053002B09D07B6A5A01FB691344BD
:1052A80003F530631A464FF4005393607B6A013369
:1052B8007B62BB6A5B08BB62BB6A002B7FF462AF90
:1052C8007B681B68184603F09DFD034603F48023A2
:1052D800B3F5802F40F0DB807B681B68184603F02D
:1052E800BEFDB86200237B62CDE0BB6A03F0010318
:1052F800002B00F0C2807B681B687A6AD2B2114624
:10530800184603F0E4FD38613B6903F00103002B04
:1053180057D07B6A03F00F03012202FA03F3FB6004
:10532800FB6903F500635A6BFB68DB43F96901F518
:10533800006113404B637B6A5A01FB69134403F510
:1053480010631A46012393607B689B79012B32D145
:1053580079687A6A1346DB0013449B000B442033B8
:10536800196878687A6A1346DB0013449B00034483
:105378001C331B68194478687A6A1346DB001344A7
:105388009B000344203319607B6A002B13D1796892
:105398007A6A1346DB0013449B000B4424331B68D2
:1053A800002B08D17B6818687B6803F29C431A4677
:1053B800012103F0EBFD7B6ADBB21946786806F041
:1053C80062F93B6903F00803002B08D07B6A5A0195
:1053D800FB69134403F510631A46082393603B697D
:1053E80003F01003002B08D07B6A5A01FB691344B1
:1053F80003F510631A46102393603B6903F04003DA
:10540800002B08D07B6A5A01FB69134403F510632B
:105418001A46402393603B6903F00203002B23D014
:10542800796A386A02F0D2FD7A6A1346DB001344BF
:105438009B0010337A68134404337B617B69DB7803
:10544800012B08D17B690022DA707B6ADBB219462E
:10545800786806F0A5F97B6A5A01FB69134403F5DD
:1054680010631A46022393603B6903F08003002B04
:1054780003D0796A786800F0BDFC7B6A01337B62EF
:10548800BB6A5B08BB62BB6A002B7FF42EAF7B68EC
:105498001B68184603F0B6FC034603F00043B3F15B
:1054A800004F22D1FB6903F500635B68FA6902F5D6
:1054B800006223F0010353607B6893F8CC34012B1E
:1054C80008D17B68002283F8CC240021786800F09A
:1054D800A3FE02E0786806F043F97B681B685A6906
:1054E8007B681B6802F000425A617B681B6818469B
:1054F80003F088FC034603F40063B3F5006F12D190
:10550800FB6903F500639B6803F00103012B02D1DB
:10551800786806F0FFF87B681B685A697B681B6827
:1055280002F400625A617B681B68184603F06AFC43
:10553800034603F48053B3F5805F40F0B780FB69FE
:1055480003F500635B68FA6902F5006223F0010362
:1055580053607B681B681021184602F037FD002352
:10556800FB6246E0FB6A5A01FB69134403F51063CA
:105578001A464FF67F339360FB6A5A01FB6913445E
:1055880003F510631B68FA6A5101FA690A4402F5C7
:10559800106223F400131360FB6A5A01FB69134479
:1055A80003F530631A464FF67F339360FB6A5A015E
:1055B800FB69134403F530631B68FA6A5101FA6901
:1055C8000A4402F5306223F400131360FB6A5A019F
:1055D800FB69134403F530631B68FA6A5101FA69E1
:1055E8000A4402F5306243F000631360FB6A01333A
:1055F800FB627B681B791A46FB6A9342B2D3FB694C
:1056080003F50063DB69FA6902F5006243F00113F0
:10561800D3617B68DB7B002B16D0FB6903F5006345
:10562800D3F88430FA6902F5006243F00B03C2F83C
:105638008430FB6903F500635B6CFA6902F500626C
:1056480043F00B03536415E0FB6903F500635B69E2
:10565800FA6902F5006243F4005343F02B035361E7
:10566800FB6903F500631B69FA6902F5006243F000
:105678000B031361FB6903F500631B68FA6902F504
:10568800006223F4FE6313607B6818687B6899796D
:105698007B6803F29C431A4603F078FC7B681B681E
:1056A8005A697B681B6802F480525A617B681B68E0
:1056B800184603F0A7FB034603F40053B3F5005F55
:1056C80023D17B681B68184603F03DFC7B681B6888
:1056D800184602F0F4FC03461A467B68DA717B68C8
:1056E8001C6801F0C9F901467B68DB791A46204637
:1056F80002F0F8F9786805F0EEFF7B681B685A69D4
:105708007B681B6802F400525A617B681B68184664
:1057180003F078FB034603F00803082B0AD17868E6
:1057280005F0CBFF7B681B685A697B681B6802F031
:1057380008025A617B681B68184603F063FB03463E
:1057480003F08003802B23D13B6A9B6923F08002FE
:105758003B6A9A6101237B6214E079687A6A13468E
:10576800DB0013449B000B4403F257231B78012BE7
:1057780005D17B6ADBB21946786800F00AFB7B6AC0
:1057880001337B627B681B791A467B6A9342E4D3B8
:105798007B681B68184603F035FB034603F4801347
:1057A800B3F5801F3CD101237B622BE07B6A5A0151
:1057B800FB69134403F510631B68BB6179687A6A57
:1057C8001346DB0013449B000B4418331B78012B52
:1057D80015D1BB69002B12DA79687A6A1346DB00A7
:1057E80013449B000B44173301221A707B6ADBB207
:1057F80063F07F03DBB21946786800F0CAFA7B6A67
:1058080001337B627B681B791A467B6A9342CDD34E
:105818007B681B685A697B681B6802F480125A61AE
:105828007B681B68184603F0EDFA034603F400137F
:10583800B3F5001F56D101237B6245E07B6A5A010C
:10584800FB69134403F530631B68BB6179687A6AA6
:105858001346DB0013449B000B4403F516731B78B7
:10586800012B2ED1BB69002B2BDABB691A0C7B6884
:10587800D3F8D434534003F00103002B21D17968C5
:105888007A6A1346DB0013449B000B4403F2572348
:1058980001221A703B6A9B6943F080023B6A9A6155
:1058A8003B6A5B6903F08003002B0AD1FB6903F5AF
:1058B80000635B68FA6902F5006243F400735360A1
:1058C80008E07B6A01337B627B681B791A467B6A36
:1058D8009342B3D37B681B685A697B681B6802F4E0
:1058E80000125A617B681B68184603F08BFA03465E
:1058F80003F08043B3F1804F0AD1786805F062FF66
:105908007B681B685A697B681B6802F080425A6191
:105918007B681B68184603F075FA034603F0040316
:10592800042B15D17B681B685B68BB61BB6903F0FE
:105938000403002B02D0786805F052FF7B681B68CF
:1059480059687B681B68BA690A435A6000E000BF5F
:105958003437BD4690BD80B582B000AF78600B4645
:10596800FB707B6893F89434012B01D1022312E079
:105978007B68012283F894247B68FA785A747B68E0
:105988001B68FA781146184603F0D4F97B680022A0
:1059980083F89424002318460837BD4680BD80B597
:1059A80084B000AF7860084611461A460346FB707B
:1059B8000B463B801346BB700023FB7297F90330FC
:1059C800002B0FDAFB7803F00F021346DB001344B9
:1059D8009B0010337A6813440433FB60FB68012290
:1059E8005A700FE0FB7803F00F021346DB001344F4
:1059F8009B0003F514737A6813440433FB60FB6857
:105A080000225A70FB7803F00F03DAB2FB681A70B1
:105A18003B88C3F30A02FB689A60FB68BA781A717C
:105A2800FB685B78002B04D0FB681B789AB2FB6894
:105A38005A83BB78022B02D1FB6800225A717B681B
:105A480093F89434012B01D102230EE07B680122E4
:105A580083F894247B681B68F968184602F054FBA5
:105A68007B68002283F89424FB7A18461037BD46D9
:105A780080BD80B584B000AF78600B46FB7097F9A5
:105A88000330002B0FDAFB7803F00F021346DB001C
:105A980013449B0010337A6813440433FB60FB689B
:105AA80001225A700FE0FB7803F00F021346DB0067
:105AB80013449B0003F514737A6813440433FB60A2
:105AC800FB6800225A70FB7803F00F03DAB2FB6818
