:020000040800F2
:1000000000000220311C0008411B0008471B0008AB
:100010004D1B0008531B0008591B0008000000007E
:100020000000000000000000000000005F1B00084E
:100030006D1B0008000000007B1B0008891B0008E6
:10004000811C0008811C0008811C0008811C00081C
:10005000811C0008811C0008811C0008811C00080C
:10006000811C0008811C0008811C0008951B0008E9
:10007000A91B0008811C0008811C0008811C0008C5
:10008000811C0008811C0008811C00080000000081
:10009000000000000000000000000000811C0008BB
:1000A000811C0008BD1B0008811C0008811C000881
:1000B000811C0008D11B0008811C0008811C00085D
:1000C000811C0008811C0008811C0008811C00089C
:1000D000811C0008811C0008811C00080000000031
:1000E000811C0008811C0008811C00080000000021
:1000F000000000000000000000000000811C00085B
:1001000000000000811C0008811C0008811C000800
:1001100000000000000000000000000000000000DF
:10012000E51B0008811C0008811C0008811C0008D8
:10013000811C00080000000000000000000000001A
:10014000000000000000000000000000F91B000893
:10015000811C0008811C0008811C0008811C00080B
:10016000811C0008811C0008000000000000000045
:10017000000000000000000000000000000000007F
:1001800000000000811C00080000000000000000CA
:08019000811C0008811C00081D
:1001980010B5054C237833B9044B13B10448AFF3B9
:1001A80000800123237010BD04010020000000001E
:1001B80000AE000808B5034B1BB103490348AFF371
:1001C800008008BD000000000801002000AE000803
:1001D80053B94AB9002908BF00281CBF4FF0FF31A6
:1001E8004FF0FF3000F070B9ADF1080C6DE904CEA6
:1001F80000F006F8DDF804E0DDE9022304B07047FA
:100208002DE9F047089E0D4604460F46002B4AD1BB
:100218008A42944665D9B2FA82F343B102FA03FCE2
:10022800C3F120029F4020FA02F217439C404FEA94
:100238001C4E1FFA8CF5B7FBFEF1220C0EFB117752
:1002480042EA074201FB05F090420AD91CEB020280
:1002580001F1FF3780F01C81904240F21981023988
:100268006244121AA4B2B2FBFEF00EFB102244EA5A
:10027800024400FB05F5A5420AD91CEB040400F171
:10028800FF3280F00781A54240F2048164440238BD
:1002980040EA0140641B00211EB1DC400023C6E98E
:1002A8000043BDE8F0878B4208D9002E00F0ED80AE
:1002B8000021C6E900050846BDE8F087B3FA83F1D6
:1002C800002949D1AB4202D3824200F2F880841A55
:1002D80065EB030201201746002EE2D0C6E900476D
:1002E800DFE702B9FFDEB2FA82F3002B40F090801C
:1002F8008A1A4FEA1C471FFA8CFE0121B2FBF7F558
:1003080007FB1520220C42EA00420EFB05F0904242
:1003180008D91CEB020205F1FF3802D2904200F224
:10032800CB804546121AA4B2B2FBF7F007FB1022A5
:1003380044EA02440EFB00FEA64508D91CEB04045F
:1003480000F1FF3202D2A64500F2BB801046A4EBB2
:100358000E0440EA05409FE7C1F120078B4022FACE
:1003680007FC4CEA030C05FA01F420FA07F3FD40F8
:100378004FEA1C492343B5FBF9F81FFA8CFE09FB29
:1003880018551C0C44EA054408FB0EF5A54202FA70
:1003980001F200FA01F00BD91CEB040408F1FF3A52
:1003A80080F08880A54240F28580A8F10208644464
:1003B800641B9DB2B4FBF9F309FB134445EA0444FA
:1003C80003FB0EFEA64508D91CEB040403F1FF3518
:1003D8006CD2A6456AD9023B644443EA0843A3FBAE
:1003E8000295A4EB0E04AC42C846AE4656D353D091
:1003F80056B1B0EB080264EB0E0404FA07F7CA40E2
:10040800CC401743C6E9007418460021BDE8F087C0
:10041800C3F1200102FA03FC20FA01F225FA01F1E6
:100428009D402A434FEA1C471FFA8CFEB1FBF7F0A8
:1004380007FB1015110C41EA054100FB0EF58D4232
:1004480004FA03F408D91CEB010100F1FF382FD29C
:100458008D422DD902386144491B92B2B1FBF7F5A0
:1004680007FB151142EA014205FB0EF1914208D93A
:100478001CEB020205F1FF3816D2914214D9023D55
:100488006244521A45EA004138E73146304608E7E7
:100498003946E6E61046FBE64845A9D2B9EB02081C
:1004A80065EB0C0E013BA3E74546EAE72B4694E7CC
:1004B8004046D1E7D0467BE7023D624432E7084632
:1004C8000AE76444023842E7704700BF80B485B049
:1004D80000AFF860B9607A607B80FB6802221A700E
:1004E800FB687A68DA60FB68BA681A61FB68002200
:1004F8005A607A88FB689A6000BF1437BD465DF879
:10050800047B704780B584B000AFF860B9601346CB
:10051800FB71FB68DB68002B5DD0FB681B69002B57
:1005280059D0FB685B68BA689A4256D0FB79012BB0
:1005380007D1FB6803221A70FB68DB680120984723
:100548004CE0FB689B68BA689A4202DDFB689B68CE
:10055800BB60FB689B685B42BA689A4203DAFB6837
:100568009B685B42BB60FB68BA685A60BB68002B3B
:1005780010DAFB6801221A70FB68DB6801209847D3
:10058800FB681B69FA68526892B2524292B21046EE
:10059800984723E0BB68002B0EDDFB6800221A7029
:1005A800FB68DB6800209847FB681B69FA6852689B
:1005B80092B21046984711E0BB68002B0ED1FB6839
:1005C80002221A70FB68DB6802209847FB681B69E7
:1005D8000020984702E000BF00E000BF1037BD468A
:1005E80080BD80B485B000AFF860B9607A603B60C8
:1005F800FB687A681A61FB683A689A60FB68BA68AF
:100608009A6100BF1437BD465DF8047B704700004F
:1006180080B584B000AF78607B681B7BFB73E4E037
:10062800774B1B78062B00F2DC8001A252F823F0EE
:10063800550600087D060008B1060008E506000812
:100648001907000841070008830700087B681A6932
:100658007B685B7B591CC8B27968487313441B7864
:10066800552B40F0C280664B01221A707B6800222D
:100678009A70BAE07B681A697B685B7B591CC8B2C0
:100688007968487313441B784E2B03D15C4B0222C4
:100698001A70AAE07B685B7B013BDAB27B685A730D
:1006A800574B00221A70A0E07B681A697B685B7B55
:1006B800591CC8B27968487313441B78452B03D179
:1006C8004F4B03221A7090E07B685B7B013BDAB2E8
:1006D8007B685A734A4B00221A7086E07B681A6955
:1006E8007B685B7B591CC8B27968487313441B78D4
:1006F800522B03D1424B04221A7076E07B685B7B55
:10070800013BDAB27B685A733D4B00221A706CE0E9
:100718007B685A7B7B685A707B681A697B685B7B4D
:10072800591CC8B27968487313441A78354B1A7043
:10073800334B05221A7058E07B681A697B685B7B2B
:10074800591CC8B27968487313441B783A2B0AD1EC
:100758002B4B06221A702B4B1B7883F03603DAB228
:100768007B689A7041E07B685B7B013BDAB27B680F
:100778005A73234B00221A7037E0224B1B78012B47
:100788000FD97B681A697B685B7B591CC8B279688A
:10079800487313441A787B689B785340DAB27B68B5
:1007A8009A70184B1B78013BDAB2164B1A70154B2E
:1007B8001B78002B19D1124B00221A707B689A788B
:1007C8007B681B697968497B0B441B789A420CD17A
:1007D8007B689B69002B08D07B689B697868984781
:1007E80003E0074B00221A7000BF7B685B7BFA7B33
:1007F8009A427FF415AF00BF00BF1037BD4680BDD9
:10080800200100202101002090B48AB000AFF860D8
:10081800B9601346FB71002387F82730002387F857
:100828002630002387F8253097F827305A1C87F898
:10083800272028333B44552203F8182C97F82730F3
:100848005A1C87F8272028333B444E2203F8182CDB
:1008580097F827305A1C87F8272028333B4445222D
:1008680003F8182C97F827305A1C87F827202833C4
:100878003B44522203F8182C97F827305A1C87F863
:10088800272028333B44FA7903F8182C97F82730A7
:100898005A1C87F8272028333B443A2203F8182C9F
:1008A800002387F8253012E097F82530BA681A44F3
:1008B80097F82730591C87F82710127828333B44BB
:1008C80003F8182C97F82530013387F8253097F866
:1008D8002520FB79013B9A42E6DB002387F8263086
:1008E800002387F825301FE097F8253028333B444C
:1008F80013F8182C97F82630534087F8263097F8C5
:100908002520FB689968FB681B79581CC4B2F868F5
:1009180004710B4428323A4412F8182C1A7097F8CC
:100928002530013387F8253097F8252097F82730A8
:100938009A42D9D3FB689A68FB681B79591CC8B2DC
:10094800F9680871134497F826201A70FB6897F81D
:1009580027201A7500BF2837BD4690BC7047000095
:1009680080B483B000AF78607B681B68064A934206
:1009780004D1064A137843F04003137000BF0C37C4
:10098800BD465DF8047B70470000014070030020FD
:1009980080B483B000AF786000BF0C37BD465DF807
:1009A800047B704780B483B000AF7860294B93F81C
:1009B80030301B021AB2274B93F831301BB2134365
:1009C8001AB2244B1A80234B93F832301B021AB206
:1009D800204B93F833301BB213431AB21D4B1A82C3
:1009E8001C4B93F834301B021AB21A4B93F835306B
:1009F8001BB213431AB2174B1A84164B93F83830AC
:100A08001B021AB2134B93F839301BB213431AB2B4
:100A1800104B5A800F4B93F83A301B021AB20D4B09
:100A280093F83B301BB213431AB20A4B5A82094B54
:100A380093F83C301B021AB2064B93F83D301BB2B8
:100A480013431AB2034B5A8400BF0C37BD465DF8F6
:100A5800047B7047EC03002080B584B002AF00230C
:100A6800FB710023BB7101F009F9474809F06EFDDD
:100A7800464B474A47494848FFF7B3FD00F0AAF8F4
:100A880000F002FB00F0C2FA00F0EEF909F00AFCEF
:100A980000F008F900F038FA00F0B8F93F4805F01E
:100AA8005FF93F4805F05CF908223E493E4801F0ED
:100AB800BFF904213A4805F00FFA0021384805F03B
:100AC8000BFA374B1B68DB6A9BB2384A38493948FE
:100AD800FFF7FCFC324B1B68DB6A9BB2364A37498E
:100AE8003748FFF7F3FC374A13786FF38613137010
:100AF800344A13786FF345131370324A137843F06E
:100B080010031370244B00225A73234B00221A73CC
:100B18002C4B00221A70204800F06CFB294B1B78E4
:100B280003F04003DBB2002BF5D0FB790133FB71F6
:100B3800244B1B7803F04003DBB2002B0CBF0123CE
:100B48000023D9B21F4A137861F386131370FB7917
:100B5800272BE0D90E2301931B4B009301233B2243
:100B6800D0211A4802F0C8FCBB790133BB710023BD
:100B7800FB71BB790A2BCED14FF40051144802F017
:100B88005CFB0023BB71C6E7A91100082C050020F7
:100B98002C0400208D12000878030020E0020020B9
:100BA80028030020940300202401002015160008C3
:100BB80059170008C4030020B51600087D1700085F
:100BC800D8030020700300201C040020CC01002062
:100BD8000008024080B594B000AF07F1200330222E
:100BE800002118460AF0DCF807F10C0300221A600D
:100BF8005A609A60DA601A610023BB60274B1B6C4D
:100C0800264A43F080531364244B1B6C03F0805333
:100C1800BB60BB6800237B60214B1B68204A43F400
:100C2800404313601E4B1B6803F440437B607B68A2
:100C380001233B624FF480337B620223BB634FF492
:100C48008003FB6319233B64C0237B640223BB64DA
:100C58000423FB6407F12003184604F0EDFB034668
:100C6800002B01D000F098FD0F23FB6002233B61AD
:100C780000237B614FF48053BB610023FB6107F1C4
:100C88000C030321184604F04FFE0346002B01D045
:100C980000F082FD00BF5037BD4680BD00380240DD
:100CA8000070004080B584B000AF3B4600221A6057
:100CB8005A609A60DA60524B524A1A60504B4FF4AD
:100CC80080325A604E4B00229A604D4B01221A61C5
:100CD8004B4B00221A764A4B002283F82020484BBF
:100CE8000022DA62464B484A9A62454B0022DA6093
:100CF800434B0822DA61424B002283F83020404BF4
:100D080001225A613E4801F04FF80346002B01D0FA
:100D180000F042FD00233B6001237B600023BB60A1
:100D28003B461946364801F08BF90346002B01D0A3
:100D380000F032FD01233B6002237B603B461946ED
:100D48002F4801F07DF90346002B01D000F024FD67
:100D580002233B6003237B603B461946284801F089
:100D68006FF90346002B01D000F016FD03233B600A
:100D780004237B603B461946214801F061F903468C
:100D8800002B01D000F008FD04233B6005237B60A5
:100D98003B4619461A4801F053F90346002B01D087
:100DA80000F0FAFC05233B6006237B603B461946AE
:100DB800134801F045F90346002B01D000F0ECFC84
:100DC80006233B6007237B603B4619460C4801F02D
:100DD80037F90346002B01D000F0DEFC07233B6007
:100DE80008237B603B461946054801F029F903466C
:100DF800002B01D000F0D0FC00BF1037BD4680BDED
:100E080024010020002001400100000F80B500AF40
:100E1800124B134A1A60114B124A5A600F4B0022A8
:100E28009A600E4B0022DA600C4B4FF480421A6134
:100E38000A4B00225A61094B00229A61074B002293
:100E4800DA61064B00221A62044802F011FA0346DE
:100E5800002B01D000F0A0FC00BF80BDCC01002019
:100E680000540040801A060080B586B000AF07F134
:100E7800080300221A605A609A60DA603B46002232
:100E88001A605A601E4B1F4A1A601D4B00225A6096
:100E98001B4B00229A601A4B45F6BF52DA60184B7A
:100EA80000221A61164B00225A61154B00229A61E2
:100EB800134804F005FF0346002B01D000F06CFC3A
:100EC8004FF48053BB6007F1080319460C4805F03E
:100ED80065FA0346002B01D000F05EFC00233B605E
:100EE80000237B603B461946054805F019FE03467A
:100EF800002B01D000F050FC00BF1837BD4680BD64
:100F0800E00200200000014080B58EB000AF07F17C
:100F1800280300221A605A609A60DA6007F12003F9
:100F280000221A605A603B1D00221A605A609A60BB
:100F3800DA601A615A619A61324B334A1A60314B4E
:100F48000F225A602F4B00229A602E4B4EF65F22DA
:100F5800DA602C4B00221A612A4B00229A61294838
:100F680004F0AEFE0346002B01D000F015FC4FF450
:100F78008053BB6207F128031946224805F00EFA90
:100F88000346002B01D000F007FC1E4804F04AFF7E
:100F98000346002B01D000F0FFFB00233B62002337
:100FA8007B6207F120031946164805F0B9FD034690
:100FB800002B01D000F0F0FB60237B600023BB60B6
:100FC8000023FB6000237B613B1D002219460D486E
:100FD80005F022F90346002B01D000F0DDFB3B1D94
:100FE80004221946074805F017F90346002B01D0DB
:100FF80000F0D2FB034800F065FD00BF3837BD465E
:1010080080BD00BF280300200004004080B582B0E6
:1010180000AF00237B601B4B1B6B1A4A43F4800311
:101028001363184B1B6B03F480037B607B680023FE
:101038003B60144B1B6B134A43F400131363114BAF
:101048001B6B03F400133B603B68002200210B205C
:1010580001F081FB0B2001F09AFB002200210C20FB
:1010680001F079FB0C2001F092FB002200213820CE
:1010780001F071FB382001F08AFB00BF0837BD463C
:1010880080BD00BF0038024080B58AB000AF07F1CC
:10109800140300221A605A609A60DA601A61002309
:1010A8003B613B4B1B6B3A4A43F004031363384BD9
:1010B8001B6B03F004033B613B690023FB60344B6B
:1010C8001B6B334A43F080031363314B1B6B03F0F4
:1010D8008003FB60FB680023BB602D4B1B6B2C4A15
:1010E80043F0010313632A4B1B6B03F00103BB603E
:1010F800BB6800237B60264B1B6B254A43F0020329
:101108001363234B1B6B03F002037B607B68002295
:101118004FF400511F4802F077F800224FF40641BF
:101128001D4802F071F8002208211C4802F06CF8F2
:101138004FF400537B610123BB610023FB61002353
:101148003B6207F114031946124801F0D9FE4FF427
:1011580006437B610123BB610023FB6100233B62E3
:1011680007F1140319460C4801F0CAFE08237B61F5
:101178000123BB610023FB6100233B6207F11403D9
:101188001946064801F0BCFE00BF2837BD4680BDA1
:1011980000380240000802400000024000040240FB
:1011A80080B485B000AF78600B467B800023FB815C
:1011B80012E0FB897A681A440D4B1B690C49097BBC
:1011C8000B4412781A700A4B1B7B0133DAB2084BB6
:1011D8001A73FB890133FB81FA897B889A42E8D329
:1011E80000BF00BF1437BD465DF8047B704700BFE1
:1011F8007803002080B582B000AF78607B685A7BA6
:101208007B681B7B9A4206D07868FFF701FA7B68F7
:101218001A7B7B685A737B685A797B681B799A4278
:101228002CD07B681A797B685B799A4208D97B68ED
:101238001A797B685B79D31ADAB27B681A7506E08B
:101248007B685B79C3F10403DAB27B681A757B6843
:101258009B687A6852791A447B681B7D9BB2194651
:10126800104609F03BF90346002B07D17B685A79F1
:101278007B681B7D1344DAB27B685A7100BF08375C
:10128800BD4680BD80B58AB000AF7860002387F87E
:101298002630002387F8273000233B620023FB61B8
:1012A8007B681A697B685B78023313441B78F12BDF
:1012B8002AD0F12B00F38681F02B0DD0F02B00F310
:1012C8008181A22B00F0B680A22B00F37B81A02B9A
:1012D80028D0A12B53D075E197F826305A1C87F8EF
:1012E800262028333B44F02203F8202C97F8263098
:1012F8005A1C87F8262028333B440D2203F8202C5B
:10130800032387F827306BE197F826305A1C87F8B3
:10131800262028333B44F12203F8202C022387F8A7
:1013280027305DE197F826305A1C87F826202833A5
:101338003B44A02203F8202CAF4B1B689AB2AF4B5A
:101348001A8097F826305A1C87F826201946AB4B86
:101358001A7801F128033B4403F8202C97F826302B
:101368005A1C87F826201946A44B5A7801F12803FD
:101378003B4403F8202C042387F8273030E17B68AE
:101388001A697B685B78033313441A789B4B1A708D
:101398007B681A697B685B78043313441A78974B27
:1013A8005A707B681A697B685B78053313441A782E
:1013B800924B9A707B681A697B685B780633134492
:1013C8001A788E4BDA708D4B1B683B627B681A6902
:1013D8007B685B78073313441A78884B1A707B68EC
:1013E8001A697B685B78083313441A78834B5A7000
:1013F8007B681A697B685B78093313441A787F4BDA
:101408009A707B681A697B685B780A3313441A7888
:101418007A4BDA70794B1B68FB613B6A00221946EC
:101428007748FFF76FF8FB69002219467548FFF700
:1014380069F8D5E097F826305A1C87F82620283313
:101448003B44A22203F8202C6F4BB3F900206B4BCE
:101458001A8097F826305A1C87F826201946674BB9
:101468001A7801F128033B4403F8202C97F826301A
:101478005A1C87F826201946604B5A7801F1280330
:101488003B4403F8202C604BB3F910205B4B1A80C7
:1014980097F826305A1C87F826201946574B1A7891
:1014A80001F128033B4403F8202C97F826305A1CF6
:1014B80087F826201946514B5A7801F128033B44F6
:1014C80003F8202C504BB3F920204C4B1A8097F886
:1014D80026305A1C87F826201946484B1A7801F1FD
:1014E80028033B4403F8202C97F826305A1C87F829
:1014F80026201946414B5A7801F128033B4403F84A
:10150800202C414BB3F902203C4B1A8097F8263027
:101518005A1C87F826201946384B1A7801F12803F7
:101528003B4403F8202C97F826305A1C87F82620CD
:101538001946324B5A7801F128033B4403F8202C12
:10154800314BB3F912202D4B1A8097F826305A1CCC
:1015580087F826201946294B1A7801F128033B44BD
:1015680003F8202C97F826305A1C87F826201946AD
:10157800224B5A7801F128033B4403F8202C224BD4
:10158800B3F922201D4B1A8097F826305A1C87F889
:1015980026201946194B1A7801F128033B4403F811
:1015A800202C97F826305A1C87F826201946134B0A
:1015B8005A7801F128033B4403F8202C0E2387F8BE
:1015C80027300DE097F826305A1C87F82620283354
:1015D8003B44FF2203F8202C022387F8273000BF62
:1015E80097F8272007F1080319467868FFF70CF9E0
:1015F80000BF2837BD4680BD940300207403002037
:10160800C4030020D8030020EC03002080B582B07A
:1016180000AF0346FB71224B1B78032B3AD801A27B
:1016280052F823F0551600086D16000885160008B4
:101638003D160008012208211A4801F0E5FD0122A3
:101648004FF40041184801F0DFFD24E00122082191
:10165800144801F0D9FD00224FF40041124801F06E
:10166800D3FD18E0002208210E4801F0CDFD01222B
:101678004FF400410C4801F0C7FD0CE0002208219E
:10168800084801F0C1FD00224FF40041064801F06E
:10169800BBFD00E000BF00BF0837BD4680BD00BFEE
:1016A800C4030020000402400000024080B582B05C
:1016B80000AF0346FB71244B1B78032B3ED801A2D5
:1016C80052F823F0F7160008111700082B17000826
:1016D800DD16000801224FF400711C4801F094FD4A
:1016E80001224FF48061194801F08EFD27E00122A4
:1016F8004FF40071154801F087FD00224FF4806116
:10170800124801F081FD1AE000224FF400710F48E1
:1017180001F07AFD01224FF480610C4801F074FD5C
:101728000DE000224FF40071084801F06DFD002221
:101738004FF48061054801F067FD00E000BF00BF7D
:101748000837BD4680BD00BFD80300200000024016
:1017580080B483B000AF0346FB80054B1B68FA8852
:101768009A6300BF0C37BD465DF8047B704700BF25
:101778002803002080B483B000AF0346FB80054BEC
:101788001B68FA885A6300BF0C37BD465DF8047BB6
:10179800704700BF2803002080B400AF72B600BFB6
:1017A800FEE7000080B483B000AF00237B60104BDD
:1017B8005B6C0F4A43F4804353640D4B5B6C03F43A
:1017C80080437B607B6800233B60094B1B6C084AA5
:1017D80043F080531364064B1B6C03F080533B604B
:1017E8003B6800BF0C37BD465DF8047B704700BFFF
:1017F8000038024080B58AB000AF786007F1140362
:1018080000221A605A609A60DA601A617B681B6865
:101818002E4A934256D100233B612D4B5B6C2C4AD8
:1018280043F4807353642A4B5B6C03F480733B610D
:101838003B690023FB60264B1B6B254A43F00103E1
:101848001363234B1B6B03F00103FB60FB68FF234F
:101858007B610323BB610023FB6107F11403194675
:101868001C4801F04DFB1C4B1C4A1A601A4B002205
:101878005A60194B00229A60174B0022DA60164B07
:101888004FF480621A61144B4FF400625A61124B94
:101898004FF400529A61104B0022DA610E4B00227D
:1018A8001A620D4B00225A620B4800F08BFF034668
:1018B800002B01D0FFF770FF7B68074A9A63064A3E
:1018C8007B68936300BF2837BD4680BD0020014078
:1018D80000380240000002406C0100201064024001
:1018E80080B58AB000AF786007F1140300221A604F
:1018F8005A609A60DA601A617B681B68474A9342AB
:1019080040F0878000233B61454B1B6B444A43F002
:1019180002031363424B1B6B03F002033B613B69F9
:10192800C0237B611223BB610023FB6103233B625D
:1019380004237B6207F1140319463A4801F0E0FAE0
:101948000023FB60364B1B6C354A43F400131364C9
:10195800334B1B6C03F40013FB60FB68324B334AB8
:101968001A60314B4FF000725A602F4B00229A6078
:101978002D4B0022DA602C4B4FF480621A612A4BFF
:1019880000225A61284B00229A61274B0022DA6113
:10199800254B00221A62244B00225A62224800F08A
:1019A80011FF0346002B01D0FFF7F6FE7B681E4AA5
:1019B8009A631D4A7B6893631D4B1E4A1A601C4B31
:1019C80000225A601A4B40229A60194B0022DA60B2
:1019D800174B4FF480621A61154B00225A61144B61
:1019E80000229A61124B0022DA61114B00221A621E
:1019F8000F4B00225A620E4800F0E4FE0346002B0B
:101A080001D0FFF7C9FE7B68094A5A63084A7B6818
:101A1800936300BF2837BD4680BD00BF0054004017
:101A280000380240000402402002002010600240FA
:101A3800800200202860024080B584B000AF786042
:101A48007B681B681C4A934216D10023FB601B4B22
:101A58005B6C1A4A43F001035364184B5B6C03F048
:101A68000103FB60FB6800220021192000F073FECF
:101A7800192000F08CFE1AE07B681B68104A93421C
:101A880015D10023BB600D4B1B6C0C4A43F00203BD
:101A980013640A4B1B6C03F00203BB60BB68002293
:101AA80000211D2000F057FE1D2000F070FE00BF31
:101AB8001037BD4680BD00BF00000140003802401D
:101AC8000004004080B588B000AF786007F10C03CF
:101AD80000221A605A609A60DA601A617B681B6893
:101AE800124A93421DD10023BB60114B1B6B104A55
:101AF80043F0020313630E4B1B6B03F00203BB603E
:101B0800BB683023FB6002233B6100237B61002319
:101B1800BB610223FB6107F10C031946054801F07C
:101B2800EFF900BF2037BD4680BD00BF000400406C
:101B3800003802400004024080B400AFFEE780B4E1
:101B480000AFFEE780B400AFFEE780B400AFFEE769
:101B580080B400AFFEE780B400AF00BFBD465DF8BB
:101B6800047B704780B400AF00BFBD465DF8047BBE
:101B7800704780B400AF00BFBD465DF8047B704776
:101B880080B500AF00F0CCF800BF80BD80B500AFD5
:101B9800024800F03FFF00BF80BD00BF20020020C8
:101BA80080B500AF024800F035FF00BF80BD00BF20
:101BB8008002002080B500AF024804F03DFA00BF63
:101BC80080BD00BFE002002080B500AF024804F0ED
:101BD80033FA00BF80BD00BF2803002080B500AFE6
:101BE800024800F017FF00BF80BD00BF6C01002055
:101BF80080B500AF024802F010FB00BF80BD00BFF7
:101C0800140F002080B400AF064BD3F88830054A83
:101C180043F47003C2F8883000BFBD465DF8047B0A
:101C2800704700BF00ED00E0DFF834D0FFF7EAFFAF
:101C38000C480D490D4A002302E0D458C45004331F
:101C4800C4188C42F9D30A4A0A4C002301E01360F5
:101C58000432A242FBD309F0ABF8FEF7FDFE704751
:101C680000000220000000200401002090AE0008BF
:101C78000401002018160020FEE7000080B500AF20
:101C88000E4B1B680D4A43F4007313600B4B1B6823
:101C98000A4A43F480631360084B1B68074A43F4FD
:101CA80080731360032000F04BFD0F2000F008F84C
:101CB800FFF778FD0023184680BD00BF003C0240B6
:101CC80080B582B000AF7860124B1A68124B1B784F
:101CD80019464FF47A73B3FBF1F3B2FBF3F31846EA
:101CE80000F063FD0346002B01D001230EE07B6862
:101CF8000F2B0AD8002279684FF0FF3000F02BFD37
:101D0800064A7B681360002300E001231846083761
:101D1800BD4680BD0000002008000020040000200F
:101D280080B400AF064B1B781A46064B1B68134459
:101D3800044A136000BFBD465DF8047B704700BFCE
:101D4800080000202C06002080B400AF034B1B685D
:101D58001846BD465DF8047B704700BF2C0600207E
:101D680080B584B000AF7860FFF7EEFFB8607B689D
:101D7800FB60FB68B3F1FF3F05D00A4B1B781A469E
:101D8800FB681344FB6000BFFFF7DEFF0246BB6839
:101D9800D31AFA689A42F7D800BF00BF1037BD4679
:101DA80080BD00BF0800002080B584B000AF786017
:101DB8000023FB737B68002B01D1012333E07B6890
:101DC8001B6C002B09D17868FFF714FD7B68002293
:101DD8005A647B68002283F83C207B681B6C03F004
:101DE8001003002B18D17B681B6C23F4885323F055
:101DF800020343F002027B681A64786800F052FA22
:101E08007B6800225A647B681B6C23F0030343F051
:101E180001027B681A6401E00123FB737B680022DE
:101E280083F83C20FB7B18461037BD4680BD000078
:101E380080B588B000AFF860B9607A6000237B6134
:101E48000023FB77FB6893F83C30012B01D1022378
:101E5800D0E0FB68012283F83C20FB681B689B6884
:101E680003F00103012B18D0FB681B689A68FB6814
:101E78001B6842F001029A60604B1B68604AA2FB33
:101E880003239A0C13465B0013447B6102E07B69D1
:101E9800013B7B617B69002BF9D1FB681B689B6860
:101EA80003F48073B3F5807F07D1FB681B689A68D9
:101EB800FB681B6822F480729A60FB681B689B6849
:101EC80003F00103012B40F08880FB681B6C23F4AE
:101ED800E06323F0010343F48072FB681A64FB6833
:101EE8001B685B6803F48063002B07D0FB681B6CDE
:101EF80023F4405343F48052FB681A64FB681B6C5C
:101F080003F48053B3F5805F06D1FB685B6C23F064
:101F18000602FB685A6402E0FB6800225A64FB6808
:101F2800002283F83C20374BBB61FB689B6B364A29
:101F3800DA63FB689B6B354A1A64FB689B6B344A0F
:101F4800DA64FB681B686FF022021A60FB681B6882
:101F58005A68FB681B6842F080625A60FB681B681D
:101F68009A68FB681B6842F480729A60FB68986BF9
:101F7800FB681B684C331946BA687B6800F0D0FCD4
:101F88000346FB77BB695B6803F01F03002B0FD187
:101F9800FB681B689B6803F04053002B29D1FB6842
:101FA8001B689A68FB681B6842F080429A6020E0D0
:101FB800FB681B68174A93421BD1FB681B689B6828
:101FC80003F04053002B14D1FB681B689A68FB6828
:101FD8001B6842F080429A600BE0FB681B6C43F080
:101FE8001002FB681A64FB685B6C43F00102FB6833
:101FF8005A64FB7F18462037BD4680BD000000208C
:1020080083DE1B4300230140A52400085F25000848
:102018007B2500080020014080B483B000AF7860C1
:1020280000BF0C37BD465DF8047B704780B483B0B1
:1020380000AF786000BF0C37BD465DF8047B704781
:1020480080B485B000AF786039600023BB607B68DE
:1020580093F83C30012B01D1022313E17B68012264
:1020680083F83C203B681B68092B25D97B681B68D3
:10207800D9683B681B689BB21A4613465B00134439
:102088001E3B072202FA03F3DA437B681B680A4007
:10209800DA607B681B68D9683B689A683B681B688C
:1020A8009BB2184603465B0003441E3B9A407B687C
:1020B8001B680A43DA6022E07B681B6819693B6881
:1020C8001B689BB21A4613465B001344072202FAA8
:1020D80003F3DA437B681B680A401A617B681B6854
:1020E80019693B689A683B681B689BB218460346A7
:1020F8005B0003449A407B681B680A431A613B688B
:102108005B68062B24D87B681B68596B3B685A6848
:1021180013469B001344053B1F2202FA03F3DA43DC
:102128007B681B680A405A637B681B68596B3B686D
:102138001B689BB218463B685A6813469B001344B9
:10214800053B00FA03F27B681B680A435A634CE0BC
:102158003B685B680C2B24D87B681B68196B3B6851
:102168005A6813469B001344233B1F2202FA03F3C9
:10217800DA437B681B680A401A637B681B68196B23
:102188003B681B689BB218463B685A6813469B001D
:102198001344233B00FA03F27B681B680A431A6363
:1021A80023E07B681B68D96A3B685A6813469B0022
:1021B8001344413B1F2202FA03F3DA437B681B688E
:1021C8000A40DA627B681B68D96A3B681B689BB265
:1021D80018463B685A6813469B001344413B00FA73
:1021E80003F27B681B680A43DA62294BFB607B6851
:1021F8001B68284A93420FD13B681B68122B0BD1EE
:10220800FB685B6823F40002FB685A60FB685B6844
:1022180043F48002FB685A607B681B681D4A93423E
:102228002BD13B681B681C4A934203D03B681B6850
:10223800112B22D1FB685B6823F48002FB685A608B
:10224800FB685B6843F40002FB685A603B681B68E4
:10225800114A934211D1114B1B68114AA2FB032367
:102268009A0C13469B0013445B00BB6002E0BB68FA
:10227800013BBB60BB68002BF9D17B68002283F867
:102288003C20002318461437BD465DF8047B704790
:10229800002301400020014012000010000000202F
:1022A80083DE1B4380B485B000AF7860794BFB6058
:1022B800FB685B6823F44032FB685A60FB685A6825
:1022C8007B685B681A43FB685A607B681B685A68BE
:1022D8007B681B6822F480725A607B681B685968A7
:1022E8007B681B691A027B681B680A435A607B6813
:1022F8001B685A687B681B6822F040725A607B68CA
:102308001B6859687B689A687B681B680A435A602F
:102318007B681B689A687B681B6822F400629A6075
:102328007B681B6899687B68DA687B681B680A4366
:102338009A607B689B6A584A934222D07B681B68E4
:102348009A687B681B6822F070629A607B681B68D9
:1023580099687B689A6A7B681B680A439A607B68FD
:102368001B689A687B681B6822F040529A607B68F9
:102378001B6899687B68DA6A7B681B680A439A60FD
:102388000FE07B681B689A687B681B6822F07062A4
:102398009A607B681B689A687B681B6822F04052C9
:1023A8009A607B681B689A687B681B6822F0020247
:1023B8009A607B681B6899687B681B7E5A007B68FB
:1023C8001B680A439A607B6893F82030002B1BD067
:1023D8007B681B685A687B681B6842F400625A6015
:1023E8007B681B685A687B681B6822F460425A60E5
:1023F8007B681B6859687B685B6A013B5A037B688A
:102408001B680A435A6007E07B681B685A687B6848
:102418001B6822F400625A607B681B68DA6A7B6872
:102428001B6822F47002DA627B681B68D96A7B68D1
:10243800DB69013B1A057B681B680A43DA627B6823
:102448001B689A687B681B6822F400729A607B6834
:102458001B6899687B6893F830305A027B681B6860
:102468000A439A607B681B689A687B681B6822F439
:1024780080629A607B681B6899687B685B699A02CE
:102488007B681B680A439A6000BF1437BD465DF835
:10249800047B7047002301400100000F80B584B021
:1024A80000AF78607B689B6BFB60FB681B6C03F07C
:1024B8005003002B3CD1FB681B6C43F40072FB6893
:1024C8001A64FB681B689B6803F04053002B2BD1F0
:1024D800FB681B7E002B27D1FB681B68DB6A03F4B3
:1024E8007003002B06D0FB681B689B6803F48063AD
:1024F800002B19D1FB681B685A68FB681B6822F01F
:1025080020025A60FB681B6C23F48072FB681A6413
:10251800FB681B6C03F48053002B05D1FB681B6C14
:1025280043F00102FB681A64F868FEF731FA0EE01E
:10253800FB681B6C03F01003002B03D0F868FFF74F
:1025480075FD04E0FB689B6BDB6C7868984700BFFF
:102558001037BD4680BD80B584B000AF78607B6819
:102568009B6BFB60F868FFF757FD00BF1037BD464F
:1025780080BD80B584B000AF78607B689B6BFB60E2
:10258800FB6840221A64FB685B6C43F00402FB683A
:102598005A64F868FFF74AFD00BF1037BD4680BD92
:1025A80080B485B000AF78607B6803F00703FB60F8
:1025B8000C4BDB68BB60BA684FF6FF031340BB6087
:1025C800FB681A02BB68134343F0BF6343F400334C
:1025D800BB60044ABB68D36000BF1437BD465DF8D2
:1025E800047B704700ED00E080B400AF044BDB686B
:1025F8001B0A03F007031846BD465DF8047B7047C5
:1026080000ED00E080B483B000AF0346FB7197F99A
:102618000730002B0BDBFB7903F01F02074997F902
:1026280007305B09012000FA02F241F8232000BFBD
:102638000C37BD465DF8047B704700BF00E100E041
:1026480080B483B000AF03463960FB7197F9073057
:10265800002B0ADB3B68DAB20C4997F90730120104
:10266800D2B20B4483F800230AE03B68DAB2084987
:10267800FB7903F00F03043B1201D2B20B441A7624
:1026880000BF0C37BD465DF8047B704700E100E0F1
:1026980000ED00E080B489B000AFF860B9607A60FE
:1026A800FB6803F00703FB61FB69C3F10703042B15
:1026B80028BF0423BB61FB690433062B02D9FB69DD
:1026C800033B00E000237B614FF0FF32BB6902FA55
:1026D80003F3DA43BB681A407B699A404FF0FF3135
:1026E8007B6901FA03F3D9437B680B40134318460F
:1026F8002437BD465DF8047B7047000080B582B082
:1027080000AF78607B68013BB3F1807F01D3012380
:102718000FE00A4A7B68013B53600F214FF0FF30FE
:10272800FFF78EFF054B00229A60044B07221A60C0
:10273800002318460837BD4680BD00BF10E000E002
:1027480080B582B000AF78607868FFF729FF00BFD6
:102758000837BD4680BD80B586B000AF0346B96076
:102768007A60FB7300237B61FFF73EFF78617A682C
:10277800B9687869FFF78EFF024697F90F3011465E
:102788001846FFF75DFF00BF1837BD4680BD80B50E
:1027980082B000AF0346FB7197F907301846FFF780
:1027A80031FF00BF0837BD4680BD80B582B000AF9D
:1027B80078607868FFF7A2FF034618460837BD46D9
:1027C80080BD000080B586B000AF786000237B61D3
:1027D800FFF7BAFA38617B68002B01D1012399E031
:1027E8007B68022283F835207B68002283F8342036
:1027F8007B681B681A687B681B6822F001021A60F4
:102808000FE0FFF7A1FA02463B69D31A052B08D956
:102818007B6820225A657B68032283F835200323CE
:1028280078E07B681B681B6803F00103002BE8D184
:102838007B681B681B687B617A69384B13407B6136
:102848007B685A687B689B681A437B68DB681A4315
:102858007B681B691A437B685B691A437B689B69C1
:102868001A437B68DB691A437B681B6A13437A69DE
:1028780013437B617B685B6A042B07D17B68DA6A48
:102888007B681B6B13437A6913437B617B681B6806
:102898007A691A607B681B685B697B617B6923F0D6
:1028A80007037B617B685B6A7A6913437B617B689A
:1028B8005B6A042B17D17B689B6A7A6913437B6137
:1028C8007B68DB6A002B0ED0786800F09DFA03461F
:1028D800002B08D07B6840225A657B68012283F868
:1028E8003520012316E07B681B687A695A6178688D
:1028F80000F054FA0346FB607B68DB6D3F229A4088
:10290800FB689A607B6800225A657B68012283F81D
:102918003520002318461837BD4680BD3F8010F08B
:1029280080B586B000AFF860B9607A603B6000237C
:10293800FB75FB689B6D3B61FB6893F83430012B9A
:1029480001D1022340E0FB68012283F83420FB68B0
:1029580093F83530DBB2012B2FD1FB68022283F8C4
:102968003520FB6800225A653B687A68B968F868C0
:1029780000F0E6F9FB68DB6D3F229A403B699A60FC
:10298800FB681B681A68FB681B6842F016021A602D
:10299800FB681B6C002B07D0FB681B681A68FB6878
:1029A8001B6842F008021A60FB681B681A68FB681B
:1029B8001B6842F001021A6005E0FB68002283F8F8
:1029C80034200223FB75FB7D18461837BD4680BDB1
:1029D80080B483B000AF78607B6893F83530DBB2A1
:1029E800022B04D07B6880225A6501230CE07B68A7
:1029F800052283F835207B681B681A687B681B688A
:102A080022F001021A60002318460C37BD465DF813
:102A1800047B704780B586B000AF78600023BB6048
:102A28008E4B1B688E4AA2FB03239B0A7B617B6843
:102A38009B6D3B613B691B68FB607B68DB6D082213
:102A48009A40FB681340002B1AD07B681B681B68F0
:102A580003F00403002B13D07B681B681A687B689B
:102A68001B6822F004021A607B68DB6D08229A401A
:102A78003B699A607B685B6D43F001027B685A652D
:102A88007B68DB6D01229A40FB681340002B12D053
:102A98007B681B685B6903F08003002B0BD07B68A5
:102AA800DB6D01229A403B699A607B685B6D43F05D
:102AB80002027B685A657B68DB6D04229A40FB68DA
:102AC8001340002B12D07B681B681B6803F00203BD
:102AD800002B0BD07B68DB6D04229A403B699A601F
:102AE8007B685B6D43F004027B685A657B68DB6D2D
:102AF80010229A40FB681340002B43D07B681B6868
:102B08001B6803F00803002B3CD07B68DB6D1022A8
:102B18009A403B699A607B681B681B6803F48023B2
:102B2800002B18D07B681B681B6803F40023002B5C
:102B380008D17B681B6C002B24D07B681B6C7868E1
:102B480098471FE07B689B6C002B1BD07B689B6CB5
:102B58007868984716E07B681B681B6803F48073E5
:102B6800002B07D17B681B681A687B681B6822F0FA
:102B780008021A607B681B6C002B03D07B681B6CF7
:102B8800786898477B68DB6D20229A40FB68134081
:102B9800002B00F08F807B681B681B6803F0100314
:102BA800002B00F087807B68DB6D20229A403B6910
:102BB8009A607B6893F83530DBB2052B36D17B6899
:102BC8001B681A687B681B6822F016021A607B680B
:102BD8001B685A697B681B6822F080025A617B680F
:102BE8001B6C002B03D17B689B6C002B07D07B6888
:102BF8001B681A687B681B6822F008021A607B68E9
:102C0800DB6D3F229A403B699A607B68012283F81A
:102C180035207B68002283F834207B681B6D002BED
:102C28007ED07B681B6D7868984779E07B681B6865
:102C38001B6803F48023002B1DD07B681B681B686E
:102C480003F40023002B0DD17B685B6C002B31D083
:102C58007B685B6C786898472CE000BF0000002018
:102C6800B5814E1B7B68DB6B002B23D07B68DB6B4D
:102C7800786898471EE07B681B681B6803F48073BC
:102C8800002B0FD17B681B681A687B681B6822F0D1
:102C980010021A607B68012283F835207B680022C5
:102CA80083F834207B68DB6B002B03D07B68DB6BFD
:102CB800786898477B685B6D002B32D07B685B6DCA
:102CC80003F00103002B22D07B68052283F835200E
:102CD8007B681B681A687B681B6822F001021A600F
:102CE800BB680133BB607A699A4207D37B681B686B
:102CF8001B6803F00103002BF2D100E000BF7B68E2
:102D0800012283F835207B68002283F834207B6811
:102D1800DB6C002B05D07B68DB6C7868984700E09B
:102D280000BF1837BD4680BD80B483B000AF78605F
:102D38007B685B6D18460C37BD465DF8047B7047B1
:102D480080B485B000AFF860B9607A603B60FB681A
:102D58001B681A68FB681B6822F480221A60FB68EB
:102D68001B683A685A60FB689B68402B08D1FB686F
:102D78001B687A689A60FB681B68BA68DA6007E0C3
:102D8800FB681B68BA689A60FB681B687A68DA6037
:102D980000BF1437BD465DF8047B704780B485B02A
:102DA80000AF78607B681B68DBB2103B144AA2FB5B
:102DB80003231B09FB60134AFB6813441B781A465C
:102DC8007B68DA65FB68032B09D97B681B6823F4E9
:102DD8007F7323F003031A1D7B689A6507E07B68FD
:102DE8001B6823F47F7323F003037A6893657B6879
:102DF8009B6D18461437BD465DF8047B704700BFCD
:102E0800ABAAAAAA78AE000880B485B000AF7860F3
:102E18000023FB737B689B6ABB607B689B69002B04
:102E28001FD1BB68032B56D801A252F823F000BF6C
:102E3800492E00085B2E0008492E0008DF2E0008E6
:102E48007B68DB6A03F08073002B46D00123FB7399
:102E580043E07B68DB6AB3F1C07F40D10123FB7399
:102E68003DE07B689B69B3F5005F21D1BB68032B0C
:102E780037D801A252F823F0912E0008972E0008A7
:102E8800912E0008A92E00080123FB7330E07B680F
:102E9800DB6A03F08073002B25D00123FB7322E04B
:102EA8007B68DB6AB3F1C07F1FD10123FB731CE091
:102EB800BB68022B03D9BB68032B03D018E001239E
:102EC800FB7315E07B68DB6A03F08073002B0ED080
:102ED8000123FB730BE000BF0AE000BF08E000BF5E
:102EE80006E000BF04E000BF02E000BF00E000BF52
:102EF800FB7B18461437BD465DF8047B704700BF5E
:102F080080B489B000AF7860396000237B6100230A
:102F18003B610023BB610023FB6159E10122FB698E
:102F280002FA03F37B613B681B687A6913403B61D3
:102F38003A697B699A4240F048813B685B6803F0D4
:102F48000303012B05D03B685B6803F00303022BE6
:102F580030D17B689B68BB61FB695B00032202FA86
:102F680003F3DB43BA691340BB613B68DA68FB696A
:102F78005B0002FA03F3BA691343BB617B68BA6961
:102F88009A607B685B68BB610122FB6902FA03F304
:102F9800DB43BA691340BB613B685B681B0903F0FC
:102FA8000102FB6902FA03F3BA691343BB617B6848
:102FB800BA695A603B685B6803F00303032B17D0B8
:102FC8007B68DB68BB61FB695B00032202FA03F3E1
:102FD800DB43BA691340BB613B689A68FB695B00D5
:102FE80002FA03F3BA691343BB617B68BA69DA6012
:102FF8003B685B6803F00303022B23D1FB69DA0803
:103008007B68083253F82230BB61FB6903F0070381
:103018009B000F2202FA03F3DB43BA691340BB613A
:103028003B681A69FB6903F007039B0002FA03F384
:10303800BA691343BB61FB69DA087B680832B9696E
:1030480043F822107B681B68BB61FB695B000322A5
:1030580002FA03F3DB43BA691340BB613B685B6860
:1030680003F00302FB695B0002FA03F3BA69134336
:10307800BB617B68BA691A603B685B6803F44033DC
:10308800002B00F0A2800023FB60574B5B6C564A74
:1030980043F480435364544B5B6C03F48043FB60FC
:1030A800FB68524AFB699B08023352F82330BB6124
:1030B800FB6903F003039B000F2202FA03F3DB43CF
:1030C800BA691340BB617B68494A934219D07B684F
:1030D800484A934213D07B68474A93420DD07B6895
:1030E800464A934207D07B68454A934201D104235C
:1030F80008E0072306E0032304E0022302E001239B
:1031080000E00023FA6902F0030292009340BA69D2
:103118001343BB613549FB699B080233BA6941F81F
:103128002320384B9B68BB613B69DB43BA6913407A
:10313800BB613B685B6803F48013002B03D0BA695A
:103148003B691343BB612F4ABB6993602D4BDB6816
:10315800BB613B69DB43BA691340BB613B685B6891
:1031680003F40013002B03D0BA693B691343BB6116
:10317800244ABB69D360234B5B68BB613B69DB4373
:10318800BA691340BB613B685B6803F40033002BEA
:1031980003D0BA693B691343BB611A4ABB695360E0
:1031A800184B1B68BB613B69DB43BA691340BB61C1
:1031B8003B685B6803F48033002B03D0BA693B6932
:1031C8001343BB610F4ABB691360FB690133FB61A1
:1031D800FB690F2B7FF6A2AE00BF00BF2437BD46A8
:1031E8005DF8047B704700BF00380240003801409A
:1031F800000002400004024000080240000C0240A7
:1032080000100240003C014080B483B000AF7860F9
:103218000B467B8013467B707B78002B03D07A8823
:103228007B689A6103E07B881A047B689A6100BF17
:103238000C37BD465DF8047B704780B485B000AF9D
:1032480078600B467B807B685B69FB607A88FB68EB
:1032580013401A04FB68D9437B880B401A437B68E8
:103268009A6100BF1437BD465DF8047B70470000C3
:1032780080B584B000AF78607B68002B01D1012352
:103288002BE17B6893F83D30DBB2002B06D17B68DD
:10329800002283F83C207868FEF722FB7B68242212
:1032A80083F83D207B681B681A687B681B6822F0DE
:1032B80001021A607B681B681A687B681B6842F405
:1032C80000421A607B681B681A687B681B6822F4D6
:1032D80000421A6002F0E0FCF8607B685B68814A93
:1032E800934207D8FB68804A934294BF0123002386
:1032F800DBB206E0FB687D4A934294BF01230023BA
:10330800DBB2002B01D00123E7E0FB68784AA2FB7F
:1033180003239B0CBB607B681B685B6823F03F0141
:103328007B681B68BA680A435A607B681B681B6A1B
:1033380023F03F017B685B686A4A934202D8BB6806
:10334800013309E0BB684FF4967202FB03F3694A44
:10335800A2FB03239B0901337A6812680B431362AB
:103368007B681B68DB6923F44F4222F0FF027B680D
:103378005B685C498B4219D8FB68591E7B685B689F
:103388005B00B1FBF3F3591C40F6FC730B40002BB8
:103398000AD0FB68591E7B685B685B00B1FBF3F3DE
:1033A8000133C3F30B0351E004234FE07B689B68B0
:1033B800002B11D1FB68581E7B6859680B465B00CF
:1033C8000B44B0FBF3F30133C3F30B03002B0CBF27
:1033D80001230023DBB212E0FB68581E7B685968A2
:1033E8000B469B000B4499000B44B0FBF3F30133ED
:1033F800C3F30B03002B0CBF01230023DBB2002B0C
:1034080001D0012322E07B689B68002B0ED1FB686A
:10341800581E7B6859680B465B000B44B0FBF3F3FE
:103428000133C3F30B0343F400430FE0FB68581E5A
:103438007B6859680B469B000B4499000B44B0FB12
:10344800F3F30133C3F30B0343F44043796809688A
:103458001343CB617B681B681B6823F0C0017B6842
:10346800DA697B681B6A1A437B681B680A431A601F
:103478007B681B689B6823F4034323F0FF037A6887
:1034880011697A68D26811437A6812680B439360AD
:103498007B681B68DB6823F0FF017B685A697B68DF
:1034A8009B691A437B681B680A43DA607B681B6860
:1034B8001A687B681B6842F001021A607B68002268
:1034C8001A647B68202283F83D207B6800221A63F7
:1034D8007B68002283F83E20002318461037BD463B
:1034E80080BD00BFA08601007F841E00FF083D004C
:1034F80083DE1B43D34D621080B58CB002AFF860F9
:10350800084611461A4603467B810B463B81134603
:10351800FB80FEF719FC78620023FB61FB6893F8D7
:103528003D30DBB2202B40F07281934B1B68DB08E7
:10353800924AA2FB03231A0A13469B0013449A00DB
:103548001344FB61FB69013BFB61FB69002B12D152
:10355800FB6800221A63FB68202283F83D20FB6881
:10356800002283F83E20FB681B6C43F02002FB68B6
:103578001A6402234CE1FB681B689B6903F0020391
:10358800022BDFD0FB6893F83C30012B01D10223DA
:103598003EE1FB68012283F83C20FB681B681B683E
:1035A80003F00103012B07D0FB681B681A68FB684E
:1035B8001B6842F001021A60FB681B681A68FB6806
:1035C8001B6822F400621A60FB68222283F83D20FF
:1035D800FB68402283F83E20FB6800221A64FB68DF
:1035E8003A6B5A62FB68BA8E5A85FB685B8D9AB251
:1035F800FB681A85FB68624ADA627A89FB685A6452
:103608003A89FB689A64FA88FB68DA64FB680022E6
:103618001A65FB681B8D002B00F0CC80FB689B6B48
:10362800002B2DD0FB689B6B564ADA63FB689B6BBB
:10363800554ADA64FB689B6B00221A64FB689B6B33
:1036480000225A64FB689B6B00229A64FB689B6BA0
:1036580000221A65FB68986BFB681B6810331946D3
:10366800FB685B6A1A46FB681B8DFFF759F903462E
:1036780087F8233097F82330002B40F0878013E039
:10368800FB68202283F83D20FB68002283F83E2057
:10369800FB681B6C43F08002FB681A64FB6800221D
:1036A80083F83C200123B3E0F8883A8979897B6A5A
:1036B8000193232300930346F86800F0D5F80346E6
:1036C800002B23D0FB689B6B1846FFF781F9034654
:1036D80087F82330FB689B6B0022DA63FB681B6862
:1036E8001A68FB681B6822F480621A60FB68002273
:1036F8001A85FB6800225A85FB681B681A68FB68F4
:103708001B6822F001021A60012381E0FB681B8D0F
:10371800012B08D1FB681B681A68FB681B6822F438
:1037280080621A6007E0FB681B685A68FB681B68C0
:1037380042F480525A600023BB61FB681B685B69D6
:10374800BB61FB681B689B69BB61BB69FB680022A6
:1037580083F83C20FB681B685A68FB681B6842F4C6
:1037680080725A60FB681B685A68FB681B6842F4E1
:1037780000625A6049E000BF0000002089B5F814D3
:103788000000FFFF413A0008FF3B0008FB682022C9
:1037980083F83D20FB68002283F83E20FB681B6C01
:1037A80043F01002FB681A64FB68002283F83C208F
:1037B80001232DE0F8883A8979897B6A01932323CC
:1037C80000930346F86800F04FF80346002B01D039
:1037D80001231DE000237B61FB681B685B697B613B
:1037E800FB681B689B697B617B69FB681B681A68BF
:1037F800FB681B6842F400721A60FB68202283F899
:103808003D20FB68002283F83C20002300E00223CF
:1038180018462837BD4680BD80B483B000AF7860B5
:1038280000BF0C37BD465DF8047B704780B483B099
:1038380000AF786000BF0C37BD465DF8047B704769
:1038480080B483B000AF786000BF0C37BD465DF828
:10385800047B704780B483B000AF786000BF0C373A
:10386800BD465DF8047B704780B588B002AFF8604C
:10387800084611461A4603467B810B463B81134690
:10388800FB80FB681B681A68FB681B6842F480624F
:103898001A60FB681B681A68FB681B6842F4807230
:1038A8001A607B6A00933B6A00224FF00111F868A6
:1038B80000F0DEF90346002B0DD0FB681B681B687F
:1038C80003F48073B3F5807F03D1FB684FF4007273
:1038D8001A640323AAE07B89DBB21A46FB681B68DB
:1038E80002F0FE021A617B6A3A6A5249F86800F0EF
:1038F80039FA0346002B01D0012397E000237B61AE
:10390800FB681B685B697B61FB681B689B697B6163
:103918007B697A6A396AF86800F0C4FA0346002BB2
:103928000DD0FB681B6C042B07D1FB681B681A6859
:10393800FB681B6842F400721A60012376E0FB887A
:10394800012B05D13B89DAB2FB681B681A6121E0BB
:103958003B891B0A9BB2DAB2FB681B681A617A6A58
:10396800396AF86800F09EFA0346002B0DD0FB6810
:103978001B6C042B07D1FB681B681A68FB681B6863
:1039880042F400721A60012350E03B89DAB2FB6806
:103998001B681A617A6A396AF86800F083FA034684
:1039A800002B0DD0FB681B6C042B07D1FB681B6830
:1039B8001A68FB681B6842F400721A60012335E03C
:1039C800FB681B681A68FB681B6842F480721A60FF
:1039D8007B6A00933B6A00224FF00111F86800F0FF
:1039E80047F90346002B0DD0FB681B681B6803F4DE
:1039F8008073B3F5807F03D1FB684FF400721A64BB
:103A0800032313E07B89DBB243F00103DAB2FB68DE
:103A18001B681A617B6A3A6A0649F86800F0A2F9DD
:103A28000346002B01D0012300E000231846183775
:103A3800BD4680BD0200010080B586B000AF786049
:103A48007B689B6B7B617B6993F83D30FB747B697A
:103A580093F83E30BB747B69DB6AFB607B691B684B
:103A68005A687B691B6822F440725A607B695B6BF9
:103A7800002B03D07B695B6B0022DA637B699B6B4D
:103A8800002B03D07B699B6B0022DA63FB7C03F07D
:103A98002103212B07D0FB7C03F02203222B31D1F9
:103AA800BB7C202B2ED17B691B685A687B691B68FD
:103AB80022F400625A607B6900225A85FB7C292B1C
:103AC8000AD17B6921221A637B69282283F83D2069
:103AD8007869FFF7ABFE0CE0FB7C2A2B09D17B69E8
:103AE80022221A637B69282283F83D207869FFF730
:103AF800A7FE7B691B685A687B691B6842F44072A1
:103B08005A6074E07B6993F83E30DBB2002B6ED0CC
:103B18007B695B8D9BB2012B07D17B691B681A6897
:103B28007B691B6822F480621A607B691B685A688B
:103B38007B691B6822F440725A60FB6813F5803F6A
:103B480009D0FB68082B06D0FB68B3F12A4F02D0D6
:103B5800FB68202B07D17B691B681A687B691B6887
:103B680042F400721A607B691B685A687B691B689B
:103B780022F480525A607B691B685A687B691B680B
:103B880022F400625A607B6900225A857B691B6CAB
:103B9800002B03D07869FFF75DFE28E07B692022BF
:103BA80083F83D207B6993F83E30DBB2402B0AD185
:103BB8007B69002283F83E207B6900221A637869BA
:103BC800FCF7F0FE13E07B69002283F83E20FB68D7
:103BD800082B02D0FB68202B03D17B6900221A63D3
:103BE80002E07B6912221A637869FFF715FE00BFAD
:103BF8001837BD4680BD80B584B000AF78607B685B
:103C08009B6BFB60FB685B6B002B03D0FB685B6BFB
:103C18000022DA63FB689B6B002B03D0FB689B6B6D
:103C28000022DA637868FFF77FF80346022B1BD07F
:103C3800FB681B681A68FB681B6822F480621A60BC
:103C4800FB6800225A85FB68202283F83D20FB6828
:103C5800002283F83E20FB681B6C43F01002FB68CF
:103C68001A64F868FFF7F6FD00BF1037BD4680BD3F
:103C780080B584B000AFF860B9603B601346FB7153
:103C880048E03B68B3F1FF3F44D0FEF75DF80246D9
:103C9800BB69D31A3A689A4202D33B68002B39D1E0
:103CA800BB681B0CDBB2012B0DD1FB681B685B6981
:103CB800DA43BB6813409BB2002B0CBF01230023DF
:103CC800DBB21A460CE0FB681B689B69DA43BB68E9
:103CD80013409BB2002B0CBF01230023DBB21A4612
:103CE800FB799A4216D1FB6800221A63FB682022EE
:103CF80083F83D20FB68002283F83E20FB681B6C9C
:103D080043F02002FB681A64FB68002283F83C2019
:103D1800012323E0BB681B0CDBB2012B0DD1FB6830
:103D28001B685B69DA43BB6813409BB2002B0CBF6E
:103D380001230023DBB21A460CE0FB681B689B6971
:103D4800DA43BB6813409BB2002B0CBF012300234E
:103D5800DBB21A46FB799A4293D0002318461037F3
:103D6800BD4680BD80B584B000AFF860B9607A60A8
:103D78003B6071E0FB681B685B6903F48063B3F523
:103D8800806F23D1FB681B681A68FB681B6842F4C4
:103D980000721A60FB681B686FF480625A61FB68E6
:103DA80000221A63FB68202283F83D20FB6800226A
:103DB80083F83E20FB681B6C43F00402FB681A641E
:103DC800FB68002283F83C20012367E07B68B3F19D
:103DD800FF3F41D0FDF7B8FF02463B68D31A7A6827
:103DE8009A4202D37B68002B36D1BB681B0CDBB22E
:103DF800012B0CD1FB681B685B69DA43BB68134075
:103E08009BB2002B14BF01230023DBB20BE0FB683D
:103E18001B689B69DA43BB6813409BB2002B14BF35
:103E280001230023DBB2002B16D0FB6800221A63A3
:103E3800FB68202283F83D20FB68002283F83E209F
:103E4800FB681B6C43F02002FB681A64FB680022C5
:103E580083F83C20012321E0BB681B0CDBB2012B5B
:103E68000CD1FB681B685B69DA43BB6813409BB2E3
:103E7800002B14BF01230023DBB20BE0FB681B6897
:103E88009B69DA43BB6813409BB2002B14BF012324
:103E98000023DBB2002B7FF46DAF002318461037E8
:103EA800BD4680BD80B584B000AFF860B9607A6067
:103EB80034E0F86800F03EF80346002B01D00123F7
:103EC80034E0BB68B3F1FF3F28D0FDF73DFF024661
:103ED8007B68D31ABA689A4202D3BB68002B1DD1FB
:103EE800FB681B685B6903F08003802B16D0FB68B6
:103EF80000221A63FB68202283F83D20FB68002219
:103F080083F83E20FB681B6C43F02002FB681A64B0
:103F1800FB68002283F83C20012307E0FB681B684C
:103F28005B6903F08003802BC3D100231846103748
:103F3800BD4680BD80B483B000AF78607B681B68E5
:103F48005B6903F48063B3F5806F1BD17B681B68E2
:103F58006FF480625A617B6800221A637B682022B2
:103F680083F83D207B68002283F83E207B681B6C29
:103F780043F004027B681A647B68002283F83C20C3
:103F8800012300E0002318460C37BD465DF8047B8A
:103F9800704780B586B002AF78607B68002B01D18E
:103FA800012301E17B681B68BB607B6893F895344B
:103FB800DBB2002B06D17B68002283F89424786852
:103FC80006F0E4FB7B68032283F89524BB68B3F111
:103FD800A04F02D17B6800229A717B681B68184643
:103FE80002F037FF7B6818687B681A7C8DF8002020
:103FF80004330ECB02F016FE0346002B05D07B6877
:10400800022283F895240123CEE07B681B680021F7
:10401800184602F02FFF0346002B05D07B680222CA
:1040280083F895240123BFE00023FB734AE0FA7B61
:1040380079681346DB0013449B000B4415330122B7
:104048001A70FA7B79681346DB0013449B000B4413
:104058001433FA7B1A70FA7BFB7B98B279681346A3
:10406800DB0013449B000B442E3302461A80FA7B74
:1040780079681346DB0013449B000B441833002275
:104088001A70FA7B79681346DB0013449B000B44D3
:104098001C3300221A60FA7B79681346DB0013444C
:1040A8009B000B44203300221A60FA7B7968134680
:1040B800DB0013449B000B44243300221A60FB7B73
:1040C8000133FB737B681B79FA7B9A42AFD30023D9
:1040D800FB7344E0FA7B79681346DB0013449B00CA
:1040E8000B4403F2552300221A70FA7B79681346B1
:1040F800DB0013449B000B4403F51573FA7B1A701D
:10410800FA7B79681346DB0013449B000B4403F5E4
:10411800167300221A70FA7B79681346DB00134481
:104128009B000B4403F5177300221A60FA7B796829
:104138001346DB0013449B000B4403F5187300225D
:104148001A60FA7B79681346DB0013449B000B4422
:1041580003F5197300221A60FB7B0133FB737B683C
:104168001B79FA7B9A42B5D37B6818687B681A7CFE
:104178008DF8002004330ECB02F0C8FE0346002B56
:1041880005D07B68022283F8952401230CE07B6824
:1041980000225A747B68012283F895247B681B6887
:1041A800184603F012FF002318461037BD4680BD9D
:1041B80080B584B000AF78607B681B68FB607B6863
:1041C80093F89434012B01D1022322E07B68012269
:1041D80083F89424FB68DB6803F04003002B09D0C4
:1041E8007B685B7B012B05D1FB689B6B43F48032BA
:1041F800FB689A637B681B68184602F019FE7B68A7
:104208001B68184603F0C0FE7B68002283F89424DC
:10421800002318461037BD4680BD90B58DB000AF5D
:1042280078607B681B683B623B6AFB617B681B6844
:10423800184603F07EFF0346002B40F08C847B6811
:104248001B68184603F0E2FE0346002B00F0828448
:10425800FB6903F500639B681B0AC3F30D027B68C7
:10426800C3F8D4247B681B68184603F0CFFE0346C6
:1042780003F00203022B07D17B681B685A697B682D
:104288001B6802F002025A617B681B68184603F03B
:10429800BDFE034603F01003102B61D17B681B6839
:1042A8009A697B681B6822F010029A613B6A1B6A54
:1042B800BB61BB6903F00F021346DB0013449B008C
:1042C80003F514737A68134404337B61BB695B0C90
:1042D80003F00F03022B24D1BA6947F6F073134099
:1042E800002B35D07B69D968BB691B099BB2C3F326
:1042F8000A039BB21A46386A03F0F4FC7B69DA6851
:10430800BB691B09C3F30A031A447B69DA607B693A
:104318005A69BB691B09C3F30A031A447B695A61CA
:1043280016E0BB695B0C03F00F03062B10D17B680A
:1043380003F29C4308221946386A03F0D3FC7B69D0
:104348005A69BB691B09C3F30A031A447B695A619A
:104358007B681B689A697B681B6842F010029A6147
:104368007B681B68184603F051FE034603F40023DC
:10437800B3F5002F40F0A78000237B627B681B68A1
:10438800184603F056FEB86299E0BB6A03F00103D1
:10439800002B00F08E807B681B687A6AD2B21146C7
:1043A800184603F07AFE38613B6903F00103002BDD
:1043B8000CD07B6A5A01FB69134403F530631A4633
:1043C80001239360796A786800F0A4FE3B6903F0E2
:1043D8000803002B0CD07B6A5A01FB69134403F5D0
:1043E80030631A4608239360796A786800F07AFF88
:1043F8003B6903F01003002B08D07B6A5A01FB6964
:10440800134403F530631A46102393603B6903F0A5
:104418000203002B30D03B6A5B6903F08003802BDA
:1044280009D1FB6903F500635B68FA6902F500626C
:1044380043F4806353607A6A1346DB0013449B009D
:1044480003F514737A68134404337B617B69DB7862
:10445800012B08D17B690022DA707B6ADBB219462E
:10446800786806F08FFA7B6A5A01FB69134403F5F2
:1044780030631A46022393603B6903F02003002B44
:1044880008D07B6A5A01FB69134403F530631A4666
:10449800202393603B6903F40053002B09D07B6A07
:1044A8005A01FB69134403F530631A464FF400536D
:1044B80093607B6A01337B62BB6A5B08BB62BB6A41
:1044C800002B7FF462AF7B681B68184603F09EFDE3
:1044D800034603F48023B3F5802F40F0DB807B682C
:1044E8001B68184603F0BFFDB86200237B62CDE06D
:1044F800BB6A03F00103002B00F0C2807B681B68D5
:104508007A6AD2B21146184603F0E5FD38613B6974
:1045180003F00103002B57D07B6A03F00F0301223D
:1045280002FA03F3FB60FB6903F500635A6BFB684F
:10453800DB43F96901F5006113404B637B6A5A015B
:10454800FB69134403F510631A46012393607B68E3
:104558009B79012B32D179687A6A1346DB001344C0
:104568009B000B442033196878687A6A1346DB008D
:1045780013449B0003441C331B68194478687A6A07
:104588001346DB0013449B000344203319607B6A05
:10459800002B13D179687A6A1346DB0013449B0019
:1045A8000B4424331B68002B08D17B6818687B6890
:1045B80003F29C431A46012103F0ECFD7B6ADBB24F
:1045C8001946786806F063F93B6903F00803002B85
:1045D80008D07B6A5A01FB69134403F510631A4635
:1045E800082393603B6903F01003002B08D07B6A13
:1045F8005A01FB69134403F510631A4610239360AC
:104608003B6903F04003002B08D07B6A5A01FB6921
:10461800134403F510631A46402393603B6903F083
:104628000203002B23D0796A386A02F0D3FD7A6A34
:104638001346DB0013449B0010337A681344043399
:104648007B617B69DB78012B08D17B690022DA70FA
:104658007B6ADBB21946786806F0A6F97B6A5A01CC
:10466800FB69134403F510631A46022393603B6900
:1046780003F08003002B03D0796A786800F0BDFC52
:104688007B6A01337B62BB6A5B08BB62BB6A002B37
:104698007FF42EAF7B681B68184603F0B7FC03460F
:1046A80003F00043B3F1004F22D1FB6903F5006327
:1046B8005B68FA6902F5006223F0010353607B68C6
:1046C80093F8CC34012B08D17B68002283F8CC24E2
:1046D8000021786800F0A4FE02E0786806F044F94A
:1046E8007B681B685A697B681B6802F000425A6144
:1046F8007B681B68184603F089FC034603F40063D3
:10470800B3F5006F12D1FB6903F500639B6803F0F2
:104718000103012B02D1786806F000F97B681B6859
:104728005A697B681B6802F400625A617B681B68DF
:10473800184603F06BFC034603F48053B3F5805F1F
:1047480040F0B780FB6903F500635B68FA6902F51E
:10475800006223F0010353607B681B681021184630
:1047680002F038FD0023FB6246E0FB6A5A01FB6950
:10477800134403F510631A464FF67F339360FB6AC0
:104788005A01FB69134403F510631B68FA6A510167
:10479800FA690A4402F5106223F400131360FB6AF5
:1047A8005A01FB69134403F530631A464FF67F3309
:1047B8009360FB6A5A01FB69134403F530631B6875
:1047C800FA6A5101FA690A4402F5306223F40013C7
:1047D8001360FB6A5A01FB69134403F530631B68D5
:1047E800FA6A5101FA690A4402F5306243F000633B
:1047F8001360FB6A0133FB627B681B791A46FB6A0C
:104808009342B2D3FB6903F50063DB69FA6902F5E9
:10481800006243F00113D3617B68DB7B002B16D069
:10482800FB6903F50063D3F88430FA6902F5006286
:1048380043F00B03C2F88430FB6903F500635B6C3B
:10484800FA6902F5006243F00B03536415E0FB6953
:1048580003F500635B69FA6902F5006243F40053EB
:1048680043F02B035361FB6903F500631B69FA6985
:1048780002F5006243F00B031361FB6903F5006363
:104888001B68FA6902F5006223F4FE6313607B6813
:1048980018687B6899797B6803F29C431A4603F091
:1048A80079FC7B681B685A697B681B6802F4805234
:1048B8005A617B681B68184603F0A8FB034603F49B
:1048C8000053B3F5005F23D17B681B68184603F0DB
:1048D8003EFC7B681B68184602F0F5FC03461A4646
:1048E8007B68DA717B681C6801F0CAF901467B684D
:1048F800DB791A46204602F0F9F9786805F0EFFFEF
:104908007B681B685A697B681B6802F400525A610D
:104918007B681B68184603F079FB034603F008031D
:10492800082B0AD1786805F0CCFF7B681B685A69A8
:104938007B681B6802F008025A617B681B6818468E
:1049480003F064FB034603F08003802B23D13B6A0A
:104958009B6923F080023B6A9A6101237B6214E021
:1049680079687A6A1346DB0013449B000B4403F210
:1049780057231B78012B05D17B6ADBB2194678686F
:1049880000F00AFB7B6A01337B627B681B791A465D
:104998007B6A9342E4D37B681B68184603F036FBB6
:1049A800034603F48013B3F5801F3CD101237B62D7
:1049B8002BE07B6A5A01FB69134403F510631B68FB
:1049C800BB6179687A6A1346DB0013449B000B4489
:1049D80018331B78012B15D1BB69002B12DA7968C3
:1049E8007A6A1346DB0013449B000B4417330122F9
:1049F8001A707B6ADBB263F07F03DBB21946786812
:104A080000F0CAFA7B6A01337B627B681B791A461D
:104A18007B6A9342CDD37B681B685A697B681B68A5
:104A280002F480125A617B681B68184603F0EEFA9C
:104A3800034603F40013B3F5001F56D101237B622C
:104A480045E07B6A5A01FB69134403F530631B6830
:104A5800BB6179687A6A1346DB0013449B000B44F8
:104A680003F516731B78012B2ED1BB69002B2BDAAB
:104A7800BB691A0C7B68D3F8D434534003F00103A4
:104A8800002B21D179687A6A1346DB0013449B0016
:104A98000B4403F2572301221A703B6A9B6943F0C7
:104AA80080023B6A9A613B6A5B6903F08003002BD2
:104AB8000AD1FB6903F500635B68FA6902F50062D5
:104AC80043F40073536008E07B6A01337B627B68C0
:104AD8001B791A467B6A9342B3D37B681B685A6971
:104AE8007B681B6802F400125A617B681B681846D1
:104AF80003F08CFA034603F08043B3F1804F0AD1E8
:104B0800786805F063FF7B681B685A697B681B68D7
:104B180002F080425A617B681B68184603F076FAF7
:104B2800034603F00403042B15D17B681B685B68FC
:104B3800BB61BB6903F00403002B02D0786805F061
:104B480053FF7B681B6859687B681B68BA690A430E
:104B58005A6000E000BF3437BD4690BD80B582B0D2
:104B680000AF78600B46FB707B6893F89434012B98
:104B780001D1022312E07B68012283F894247B6828
:104B8800FA785A747B681B68FA781146184603F05D
:104B9800D5F97B68002283F8942400231846083747
:104BA800BD4680BD80B584B000AF78600846114628
:104BB8001A460346FB700B463B801346BB70002326
:104BC800FB7297F90330002B0FDAFB7803F00F0222
:104BD8001346DB0013449B0010337A6813440433F4
:104BE800FB60FB6801225A700FE0FB7803F00F02AC
:104BF8001346DB0013449B0003F514737A681344CF
:104C08000433FB60FB6800225A70FB7803F00F0343
:104C1800DAB2FB681A703B88C3F30A02FB689A6031
:104C2800FB68BA781A71FB685B78002B04D0FB68C4
:104C38001B789AB2FB685A83BB78022B02D1FB68B7
:104C480000225A717B6893F89434012B01D1022316
:104C58000EE07B68012283F894247B681B68F9685E
:104C6800184602F055FB7B68002283F89424FB7AEF
:104C780018461037BD4680BD80B584B000AF786057
:104C88000B46FB7097F90330002B0FDAFB7803F023
:104C98000F021346DB0013449B0010337A68134459
:104CA8000433FB60FB6801225A700FE0FB7803F0C5
:104CB8000F021346DB0013449B0003F514737A6854
:104CC80013440433FB60FB6800225A70FB7803F03E
:104CD8000F03DAB2FB681A707B6893F89434012BDF
:104CE80001D102230EE07B68012283F894247B68BB
:104CF8001B68F968184602F093FB7B68002283F86A
:104D08009424002318461037BD4680BD80B586B070
:104D180000AFF8607A603B600B46FB72FB7A03F0E9
:104D28000F021346DB0013449B0003F51473FA6863
:104D3800134404337B617B697A68DA607B693A687B
:104D48001A617B6900225A617B6900225A70FB7ADA
:104D580003F00F03DAB27B691A70FB689B79012BA9
:104D680002D17A687B69DA61FB681868FB689B790D
:104D78001A46796902F030FC002318461837BD46F8
:104D880080BD80B483B000AF78600B46FB70FB78C1
:104D980003F00F0279681346DB0013449B000B44B1
:104DA80003F51A731B6818460C37BD465DF8047B7B
:104DB800704780B586B000AFF8607A603B600B46FC
:104DC800FB72FB7A03F00F021346DB0013449B00CF
:104DD8001033FA68134404337B617B697A68DA60BC
:104DE8007B693A681A617B6900225A617B690122F2
:104DF8005A70FB7A03F00F03DAB27B691A70FB680A
:104E08009B79012B02D17A687B69DA61FB681868A3
:104E1800FB689B791A46796902F0DEFB0023184685
:104E28001837BD4680BD80B584B000AF78600B46AA
:104E3800FB70FB7803F00F037A681279934201D96B
:104E480001234FE097F90330002B0FDAFB7803F0CA
:104E58000F021346DB0013449B0010337A68134497
:104E68000433FB60FB6801225A700DE0FA781346A0
:104E7800DB0013449B0003F514737A68134404336E
:104E8800FB60FB6800225A70FB6801229A70FB786D
:104E980003F00F03DAB2FB681A707B6893F8943456
:104EA800012B01D102231DE07B68012283F89424A1
:104EB8007B681B68F968184602F06CFFFB7803F002
:104EC8000F03002B09D17B6818687B6899797B6888
:104ED80003F29C431A4603F05DF97B68002283F8CD
:104EE8009424002318461037BD4680BD80B584B091
:104EF80000AF78600B46FB70FB7803F00F037A680D
:104F08001279934201D9012342E097F90330002B2B
:104F18000FDAFB7803F00F021346DB0013449B0003
:104F280010337A6813440433FB60FB6801225A701B
:104F38000FE0FB7803F00F021346DB0013449B00DD
:104F480003F514737A6813440433FB60FB6800228A
:104F58005A70FB6800229A70FB7803F00F03DAB2EC
:104F6800FB681A707B6893F89434012B01D10223F3
:104F78000EE07B68012283F894247B681B68F9683B
:104F8800184602F075FF7B68002283F894240023FA
:104F980018461037BD4680BD80B584B000AF786034
:104FA8000B46FB7097F90330002B0CDAFB7803F003
:104FB8000F021346DB0013449B0010337A68134436
:104FC8000433FB600CE0FB7803F00F021346DB00B0
:104FD80013449B0003F514737A6813440433FB608D
:104FE8007B681B68F968184602F094FD0346FB725B
:104FF800FB7A18461037BD4680BD80B58AB002AF2F
:10500800786039607B681B687B617B693B613A68C3
:105018001346DB0013449B0010337A6813440433AF
:10502800FB60FB685A69FB681B699A4201D9012336
:105038006BE0FB681A69FB685B69D31AFB61FB6864
:105048009B68FA699A4202D9FB689B68FB61FB6915
:1050580003339B08BB612AE0FB681A69FB685B693C
:10506800D31AFB61FB689B68FA699A4202D9FB680C
:105078009B68FB61FB6903339B08BB61FB68D968CC
:105088003B68DAB2FB6998B27B689B790093034668
:10509800786902F0E9FDFB68DA68FB691A44FB6885
:1050A800DA60FB685A69FB691A44FB685A613B6815
:1050B8005A013B69134403F510639B699BB2BA69B3
:1050C8009A4209D8FB685A69FB681B699A4203D25D
:1050D800FB681B69002BBFD1FB681A69FB685B6919
:1050E8009A4211D83B6803F00F03012202FA03F336
:1050F800BB603B6903F500635A6BBB68DB433969E6
:1051080001F5006113404B63002318462037BD4664
:1051180080BD000080B588B000AF786039607B68DA
:105128001B68FB61FB69BB61FB693C3304331B688B
:105138007B613B685A01BB69134403F530639B6884
:105148003B617B689B79012B7BD13B6903F00803AA
:10515800002B15D07B69614A934240F2B9803B69C4
:1051680003F40043002B00F0B3803B685A01BB698D
:10517800134403F530631A464FF400439360A7E0E5
:105188003B6903F02003002B09D03B685A01BB6937
:10519800134403F530631A462023936098E03B6973
:1051A80003F02803002B40F093807B694B4A93421D
:1051B8000FD93B6903F40043002B0AD03B685A011E
:1051C800BB69134403F530631A464FF400439360F8
:1051D8007EE03A681346DB0013449B0003F5147322
:1051E8007A6813440433FB60FB681A6A3B68590108
:1051F800BB690B4403F530631B69C3F31203D21A6E
:10520800FB685A613B68002B14D1FB681B69002BB3
:1052180009D17B6818687B6803F29C431A46012110
:1052280002F0B8FF06E0FB68DA68FB685B691A44BD
:10523800FB68DA603B68DBB21946786805F00CFB5E
:1052480046E07B69264A934224D13B6903F4004334
:10525800002B0AD03B685A01BB69134403F530633D
:105268001A464FF40043936032E03B6903F0200391
:10527800002B08D03B685A01BB69134403F530631F
:105288001A46202393603B68DBB21946786805F01C
:10529800E3FA1DE03B68002B14D179683A6813469D
:1052A800DB0013449B000B4403F519731B68002BA8
:1052B80008D17B6818687B6803F29C431A46002172
:1052C80002F068FF3B68DBB21946786805F0C4FA5B
:1052D800002318462037BD4680BD00BF0A30544F12
:1052E8000A31544F80B586B000AF786039607B686A
:1052F8001B687B617B693B617B693C3304331B68BA
:10530800FB603B685A013B69134403F530639B68B3
:10531800BB60FB68154A93420ED9BB6803F400438F
:10532800002B09D03B685A013B69134403F53063ED
:105338001A464FF400439360786805F07BFAFB68DF
:105348000A4A93420CD97B689B79012B08D17B6868
:1053580018687B6803F29C431A46012102F01AFF81
:10536800002318461837BD4680BD00BF0A30544F89
:1053780080B485B000AF78600B46FB7013463B8065
:105388007B681B685B6ABB60FB78002B07D13B8896
:1053980019047B681B68BA680A439A6228E07B682C
:1053A8001B689B6A1B0CBA681344BB600023FB7321
:1053B8000DE07B681A68FB7B40339B0013445B68F5
:1053C8001B0CBA681344BB60FB7B0133FB73FA7B8D
:1053D800FB78013B9A42ECD33B8818047B68196838
:1053E800FB78013BBA68024340339B000B445A6088
:1053F800002318461437BD465DF8047B704780B417
:1054080083B000AF78600B467B807B681B687A8826
:105418005A62002318460C37BD465DF8047B704776
:1054280080B483B000AF78600B46FB7000BF0C37C8
:10543800BD465DF8047B704780B586B000AF7860E4
:105448007B68002B01D1012367E27B681B6803F0AE
:105458000103002B75D0884B9B6803F00C03042BC9
:105468000CD0854B9B6803F00C03082B12D1824BA0
:105478005B6803F48003B3F5800F0BD17E4B1B6888
:1054880003F40033002B5BD07B685B68002B57D19B
:10549800012342E27B685B68B3F5803F06D1764B17
:1054A8001B68754A43F4803313601DE07B685B68B2
:1054B800B3F5A02F0CD1704B1B686F4A43F48023BF
:1054C80013606D4B1B686C4A43F4803313600BE028
:1054D800694B1B68684A23F480331360664B1B686A
:1054E800654A23F4802313607B685B68002B13D024
:1054F800FCF72AFC386108E0FCF726FC02463B6909
:10550800D31A642B01D9032307E25B4B1B6803F40E
:105518000033002BF0D014E0FCF716FC386108E0EB
:10552800FCF712FC02463B69D31A642B01D903230A
:10553800F3E1514B1B6803F40033002BF0D100E07A
:1055480000BF7B681B6803F00203002B63D04A4B43
:105558009B6803F00C03002B0BD0474B9B6803F0B0
:105568000C03082B1CD1444B5B6803F48003002B0D
:1055780016D1414B1B6803F00203002B05D07B6852
:10558800DB68012B01D00123C7E13B4B1B6823F0EB
:10559800F8027B681B69DB00374913430B603AE06C
:1055A8007B68DB68002B20D0344B01221A60FCF7A3
:1055B800CBFB386108E0FCF7C7FB02463B69D31A0E
:1055C800022B01D90323A8E12B4B1B6803F002032C
:1055D800002BF0D0284B1B6823F0F8027B681B696E
:1055E800DB00254913430B6015E0244B00221A60A9
:1055F800FCF7AAFB386108E0FCF7A6FB02463B690A
:10560800D31A022B01D9032387E11B4B1B6803F034
:105618000203002BF0D17B681B6803F00803002B02
:1056280036D07B685B69002B16D0154B01221A60B7
:10563800FCF78AFB386108E0FCF786FB02463B6909
:10564800D31A022B01D9032367E10B4B5B6F03F0DD
:105658000203002BF0D01BE0094B00221A60FCF774
:1056680073FB38610EE0FCF76FFB02463B69D31A07
:10567800022B07D9032350E10038024000004742BB
:10568800800E4742884B5B6F03F00203002BEAD180
:105698007B681B6803F00403002B00F0978000234D
:1056A800FB75814B1B6C03F08053002B0FD100233B
:1056B800BB607D4B1B6C7C4A43F0805313647A4B70
:1056C8001B6C03F08053BB60BB680123FB75774BF1
:1056D8001B6803F48073002B18D1744B1B68734A42
:1056E80043F480731360FCF72FFB386108E0FCF784
:1056F8002BFB02463B69D31A022B01D903230CE189
:105708006A4B1B6803F48073002BF0D07B689B689E
:10571800012B06D1644B1B6F634A43F001031367E7
:105728001CE07B689B68052B0CD15F4B1B6F5E4AA6
:1057380043F0040313675C4B1B6F5B4A43F00103A0
:1057480013670BE0584B1B6F574A23F0010313678D
:10575800554B1B6F544A23F0040313677B689B68FF
:10576800002B15D0FCF7F0FA38610AE0FCF7ECFAE8
:1057780002463B69D31A41F28832934201D9032386
:10578800CBE0494B1B6F03F00203002BEED014E073
:10579800FCF7DAFA38610AE0FCF7D6FA02463B6908
:1057A800D31A41F28832934201D90323B5E03E4B24
:1057B8001B6F03F00203002BEED1FB7D012B05D1FB
:1057C800394B1B6C384A23F0805313647B689B6900
:1057D800002B00F0A180344B9B6803F00C03082BCE
:1057E8005CD07B689B69022B41D1314B00221A6047
:1057F800FCF7AAFA386108E0FCF7A6FA02463B690A
:10580800D31A022B01D9032387E0274B1B6803F027
:105818000073002BF0D17B68DA697B681B6A1A4336
:105828007B685B6A9B011A437B689B6A5B08013B48
:105838001B041A437B68DB6A1B061B4913434B6036
:105848001B4B01221A60FCF77FFA386108E0FCF76D
:105858007BFA02463B69D31A022B01D903235CE089
:10586800114B1B6803F00073002BF0D054E0104B71
:1058780000221A60FCF768FA386108E0FCF764FA5D
:1058880002463B69D31A022B01D9032345E0064B94
:105898001B6803F00073002BF0D13DE07B689B6927
:1058A800012B07D1012338E0003802400070004086
:1058B800600047421B4B5B68FB607B689B69012B60
:1058C80028D0FB6803F480027B68DB699A4221D107
:1058D800FB6803F03F027B681B6A9A421AD1FA6898
:1058E80047F6C07313407A68526A9201934211D105
:1058F800FB6803F440327B689B6A5B08013B1B042E
:105908009A4207D1FB6803F070627B68DB6A1B066A
:105918009A4201D0012300E0002318461837BD46FB
:1059280080BD00BF0038024080B584B000AF786009
:1059380039607B68002B01D10123CCE0684B1B68E0
:1059480003F007033A689A420CD9654B3A68D2B219
:105958001A70634B1B6803F007033A689A4201D038
:105968000123B8E07B681B6803F00203002B20D0FA
:105978007B681B6803F00403002B05D0594B9B6818
:10598800584A43F4E05393607B681B6803F00803AC
:10599800002B05D0534B9B68524A43F460439360F5
:1059A800504B9B6823F0F0027B689B684D4913437A
:1059B8008B607B681B6803F00103002B44D07B6875
:1059C8005B68012B07D1474B1B6803F40033002B9E
:1059D80019D101237FE07B685B68022B03D07B68C9
:1059E8005B68032B07D13F4B1B6803F00073002B48
:1059F80009D101236FE03B4B1B6803F00203002B26
:105A080001D1012367E0374B9B6823F003027B68D1
:105A18005B68344913438B60FCF796F9F8600AE039
:105A2800FCF792F90246FB68D31A41F28832934296
:105A380001D903234FE02B4B9B6803F00C027B68D2
:105A48005B689B009A42EBD1254B1B6803F0070368
:105A58003A689A420CD2224B3A68D2B21A70204B5A
:105A68001B6803F007033A689A4201D0012332E029
:105A78007B681B6803F00403002B08D0194B9B6854
:105A880023F4E0527B68DB68164913438B607B681C
:105A98001B6803F00803002B09D0124B9B6823F402
:105AA80060427B681B69DB000E4913438B6000F082
:105AB80021F802460B4B9B681B0903F00F030A49A8
:105AC800CB5C22FA03F3094A1360094B1B6818469A
