:020000040800F2
:1000000000000220E5190008F5180008FB18000898
:1000100001190008071900080D1900080000000068
:10002000000000000000000000000000131900089C
:1000300021190008000000002F1900083D190008D0
:10004000351A0008351A0008351A0008351A000854
:10005000351A0008351A0008351A0008351A000844
:10006000351A0008351A0008351A00084919000821
:100070005D190008351A0008351A0008351A0008FD
:10008000351A0008351A0008351A0008000000006B
:10009000000000000000000000000000351A000809
:1000A000351A000871190008351A0008351A0008B9
:1000B000351A000885190008351A0008351A000895
:1000C000351A0008351A0008351A0008351A0008D4
:1000D000351A0008351A0008351A0008000000001B
:1000E000351A0008351A0008351A0008000000000B
:1000F000000000000000000000000000351A0008A9
:1001000000000000351A0008351A0008351A0008EA
:1001100000000000000000000000000000000000DF
:1001200099190008351A0008351A0008351A000810
:10013000351A000800000000000000000000000068
:10014000000000000000000000000000AD190008E1
:10015000351A0008351A0008351A0008351A000843
:10016000351A0008351A00080000000000000000E1
:10017000000000000000000000000000000000007F
:1001800000000000351A0008000000000000000018
:08019000351A0008351A0008B9
:1001980010B5054C237833B9044B13B10448AFF3B9
:1001A80000800123237010BD04010020000000001E
:1001B800BCA0000808B5034B1BB103490348AFF3C3
:1001C800008008BD0000000008010020BCA0000855
:1001D80053B94AB9002908BF00281CBF4FF0FF31A6
:1001E8004FF0FF3000F070B9ADF1080C6DE904CEA6
:1001F80000F006F8DDF804E0DDE9022304B07047FA
:100208002DE9F047089E0D4604460F46002B4AD1BB
:100218008A42944665D9B2FA82F343B102FA03FCE2
:10022800C3F120029F4020FA02F217439C404FEA94
:100238001C4E1FFA8CF5B7FBFEF1220C0EFB117752
:1002480042EA074201FB05F090420AD91CEB020280
:1002580001F1FF3780F01C81904240F21981023988
:100268006244121AA4B2B2FBFEF00EFB102244EA5A
:10027800024400FB05F5A5420AD91CEB040400F171
:10028800FF3280F00781A54240F2048164440238BD
:1002980040EA0140641B00211EB1DC400023C6E98E
:1002A8000043BDE8F0878B4208D9002E00F0ED80AE
:1002B8000021C6E900050846BDE8F087B3FA83F1D6
:1002C800002949D1AB4202D3824200F2F880841A55
:1002D80065EB030201201746002EE2D0C6E900476D
:1002E800DFE702B9FFDEB2FA82F3002B40F090801C
:1002F8008A1A4FEA1C471FFA8CFE0121B2FBF7F558
:1003080007FB1520220C42EA00420EFB05F0904242
:1003180008D91CEB020205F1FF3802D2904200F224
:10032800CB804546121AA4B2B2FBF7F007FB1022A5
:1003380044EA02440EFB00FEA64508D91CEB04045F
:1003480000F1FF3202D2A64500F2BB801046A4EBB2
:100358000E0440EA05409FE7C1F120078B4022FACE
:1003680007FC4CEA030C05FA01F420FA07F3FD40F8
:100378004FEA1C492343B5FBF9F81FFA8CFE09FB29
:1003880018551C0C44EA054408FB0EF5A54202FA70
:1003980001F200FA01F00BD91CEB040408F1FF3A52
:1003A80080F08880A54240F28580A8F10208644464
:1003B800641B9DB2B4FBF9F309FB134445EA0444FA
:1003C80003FB0EFEA64508D91CEB040403F1FF3518
:1003D8006CD2A6456AD9023B644443EA0843A3FBAE
:1003E8000295A4EB0E04AC42C846AE4656D353D091
:1003F80056B1B0EB080264EB0E0404FA07F7CA40E2
:10040800CC401743C6E9007418460021BDE8F087C0
:10041800C3F1200102FA03FC20FA01F225FA01F1E6
:100428009D402A434FEA1C471FFA8CFEB1FBF7F0A8
:1004380007FB1015110C41EA054100FB0EF58D4232
:1004480004FA03F408D91CEB010100F1FF382FD29C
:100458008D422DD902386144491B92B2B1FBF7F5A0
:1004680007FB151142EA014205FB0EF1914208D93A
:100478001CEB020205F1FF3816D2914214D9023D55
:100488006244521A45EA004138E73146304608E7E7
:100498003946E6E61046FBE64845A9D2B9EB02081C
:1004A80065EB0C0E013BA3E74546EAE72B4694E7CC
:1004B8004046D1E7D0467BE7023D624432E7084632
:1004C8000AE76444023842E7704700BF80B485B049
:1004D80000AFF860B9607A607B80FB6802221A700E
:1004E800FB687A68DA60FB68BA681A61FB68002200
:1004F8005A607A88FB689A6000BF1437BD465DF879
:10050800047B704780B584B000AFF860B9601346CB
:10051800FB71FB68DB68002B5DD0FB681B69002B57
:1005280059D0FB685B68BA689A4256D0FB79012BB0
:1005380007D1FB6803221A70FB68DB680120984723
:100548004CE0FB689B68BA689A4202DDFB689B68CE
:10055800BB60FB689B685B42BA689A4203DAFB6837
:100568009B685B42BB60FB68BA685A60BB68002B3B
:1005780010DAFB6801221A70FB68DB6801209847D3
:10058800FB681B69FA68526892B2524292B21046EE
:10059800984723E0BB68002B0EDDFB6800221A7029
:1005A800FB68DB6800209847FB681B69FA6852689B
:1005B80092B21046984711E0BB68002B0ED1FB6839
:1005C80000221A70FB68DB6800209847FB681B69EB
:1005D8000020984702E000BF00E000BF1037BD468A
:1005E80080BD80B485B000AFF860B9607A603B60C8
:1005F800FB687A681A61FB683A689A60FB68BA68AF
:100608009A6100BF1437BD465DF8047B704700004F
:1006180080B584B000AF78607B681B7BFB73E4E037
:10062800774B1B78062B00F2DC8001A252F823F0EE
:10063800550600087D060008B1060008E506000812
:100648001907000841070008830700087B681A6932
:100658007B685B7B591CC8B27968487313441B7864
:10066800552B40F0C280664B01221A707B6800222D
:100678009A70BAE07B681A697B685B7B591CC8B2C0
:100688007968487313441B784E2B03D15C4B0222C4
:100698001A70AAE07B685B7B013BDAB27B685A730D
:1006A800574B00221A70A0E07B681A697B685B7B55
:1006B800591CC8B27968487313441B78452B03D179
:1006C8004F4B03221A7090E07B685B7B013BDAB2E8
:1006D8007B685A734A4B00221A7086E07B681A6955
:1006E8007B685B7B591CC8B27968487313441B78D4
:1006F800522B03D1424B04221A7076E07B685B7B55
:10070800013BDAB27B685A733D4B00221A706CE0E9
:100718007B685A7B7B685A707B681A697B685B7B4D
:10072800591CC8B27968487313441A78354B1A7043
:10073800334B05221A7058E07B681A697B685B7B2B
:10074800591CC8B27968487313441B783A2B0AD1EC
:100758002B4B06221A702B4B1B7883F03603DAB228
:100768007B689A7041E07B685B7B013BDAB27B680F
:100778005A73234B00221A7037E0224B1B78012B47
:100788000FD97B681A697B685B7B591CC8B279688A
:10079800487313441A787B689B785340DAB27B68B5
:1007A8009A70184B1B78013BDAB2164B1A70154B2E
:1007B8001B78002B19D1124B00221A707B689A788B
:1007C8007B681B697968497B0B441B789A420CD17A
:1007D8007B689B69002B08D07B689B697868984781
:1007E80003E0074B00221A7000BF7B685B7BFA7B33
:1007F8009A427FF415AF00BF00BF1037BD4680BDD9
:10080800200100202101002090B48AB000AFF860D8
:10081800B9601346FB71002387F82730002387F857
:100828002630002387F8253097F827305A1C87F898
:10083800272028333B44552203F8182C97F82730F3
:100848005A1C87F8272028333B444E2203F8182CDB
:1008580097F827305A1C87F8272028333B4445222D
:1008680003F8182C97F827305A1C87F827202833C4
:100878003B44522203F8182C97F827305A1C87F863
:10088800272028333B44FA7903F8182C97F82730A7
:100898005A1C87F8272028333B443A2203F8182C9F
:1008A800002387F8253012E097F82530BA681A44F3
:1008B80097F82730591C87F82710127828333B44BB
:1008C80003F8182C97F82530013387F8253097F866
:1008D8002520FB79013B9A42E6DB002387F8263086
:1008E800002387F825301FE097F8253028333B444C
:1008F80013F8182C97F82630534087F8263097F8C5
:100908002520FB689968FB681B79581CC4B2F868F5
:1009180004710B4428323A4412F8182C1A7097F8CC
:100928002530013387F8253097F8252097F82730A8
:100938009A42D9D3FB689A68FB681B79591CC8B2DC
:10094800F9680871134497F826201A70FB6897F81D
:1009580027201A7500BF2837BD4690BC7047000095
:1009680080B483B000AF78607B681B68064A934206
:1009780004D1064A137843F04003137000BF0C37C4
:10098800BD465DF8047B70470000014070030020FD
:1009980080B483B000AF786000BF0C37BD465DF807
:1009A800047B704780B582B000AF0023FB71002341
:1009B800BB710023BB8001F03BF84A4808F024FFD4
:1009C800494B4A4A4A494B48FFF70BFE00F0ACF83E
:1009D80000F004FB00F0C4FA00F0F0F908F0C0FDE4
:1009E80000F00AF900F03AFA00F0BAF9424804F0C7
:1009F80015FB424804F012FB08224149414801F026
:100A0800F1F804213D4804F0C5FB00213B4804F0FF
:100A1800C1FB3A4B1B68DB6A9BB23B4A3B493C48EB
:100A2800FFF754FD354B1B68DB6A9BB2394A3A49DC
:100A38003A48FFF74BFD3A4A13786FF38613137061
:100A4800374A13786FF345131370354A137843F018
:100A580010031370274B00225A73264B00221A7377
:100A68002F4B00221A70234800F06EFB2C4B1B788A
:100A780003F04003DBB2002BF5D0FB790133FB71A7
:100A8800274B1B7803F04003DBB2002B0CBF01237C
:100A98000023D9B2224A137861F38613137008220F
:100AA8001749184801F09EF8FB79272BDBD9BB7949
:100AB8000133BB710023FB71BB79642BD3D14FF495
:100AC8000051184802F065FABB8803F51673BB801D
:100AD8000023BB71BB884CF608729342C3D900232C
:100AE800BB80C0E7FD100008EC040020EC030020E8
:100AF800E111000878030020E0020020280300200C
:100B08009403002024010020C91300080D150008D3
:100B1800C40300206914000831150008D803002018
:100B2800700300200008024080B594B000AF07F1C0
:100B3800200330220021184609F090FA07F10C032F
:100B480000221A605A609A60DA601A610023BB605A
:100B5800274B1B6C264A43F080531364244B1B6CB1
:100B680003F08053BB60BB6800237B60214B1B688C
:100B7800204A43F4404313601E4B1B6803F4404370
:100B88007B607B6801233B624FF480337B620223E6
:100B9800BB634FF48003FB6319233B64C0237B646E
:100BA8000223BB640423FB6407F12003184603F007
:100BB800A1FD0346002B01D000F0C8FC0F23FB6009
:100BC80002233B6100237B614FF48053BB61002308
:100BD800FB6107F10C030321184604F003F80346F0
:100BE800002B01D000F0B2FC00BF5037BD4680BDDD
:100BF800003802400070004080B584B000AF3B462A
:100C080000221A605A609A60DA60524B524A1A609F
:100C1800504B4FF480325A604E4B00229A604D4B35
:100C280001221A614B4B00221A764A4B002283F8A4
:100C38002020484B0022DA62464B484A9A62454BCC
:100C48000022DA60434B0822DA61424B002283F823
:100C58003020404B01225A613E4800F07FFF034696
:100C6800002B01D000F072FC00233B6001237B6065
:100C78000023BB603B461946364801F0BBF80346E3
:100C8800002B01D000F062FC01233B6002237B6053
:100C98003B4619462F4801F0ADF80346002B01D01A
:100CA80000F054FC02233B6003237B603B4619465B
:100CB800284801F09FF80346002B01D000F046FCBD
:100CC80003233B6004237B603B461946214801F01F
:100CD80091F80346002B01D000F038FC04233B6058
:100CE80005237B603B4619461A4801F083F8034602
:100CF800002B01D000F02AFC05233B6006237B6013
:100D08003B461946134801F075F80346002B01D0FD
:100D180000F01CFC06233B6007237B603B4619461A
:100D28000C4801F067F80346002B01D000F00EFCD8
:100D380007233B6008237B603B461946054801F0C2
:100D480059F80346002B01D000F000FC00BF103713
:100D5800BD4680BD24010020002001400100000F95
:100D680080B500AF124B134A1A60114B124A5A60F1
:100D78000F4B00229A600E4B0022DA600C4B4FF4A6
:100D880080421A610A4B00225A61094B00229A617B
:100D9800074B0022DA61064B00221A62044802F06F
:100DA80013F90346002B01D000F0D0FB00BF80BD33
:100DB800CC01002000540040801A060080B586B09F
:100DC80000AF07F1080300221A605A609A60DA60DF
:100DD8003B4600221A605A601E4B1F4A1A601D4B80
:100DE80000225A601B4B00229A601A4B45F6BF52EC
:100DF800DA60184B00221A61164B00225A61154B13
:100E080000229A61134804F0B9F80346002B01D078
:100E180000F09CFB4FF48053BB6007F108031946B0
:100E28000C4804F019FC0346002B01D000F08EFB9F
:100E380000233B6000237B603B461946054804F0CD
:100E4800CDFF0346002B01D000F080FB00BF183710
:100E5800BD4680BDE00200200000014080B58EB094
:100E680000AF07F1280300221A605A609A60DA601E
:100E780007F1200300221A605A603B1D00221A6005
:100E88005A609A60DA601A615A619A61324B334A41
:100E98001A60314B0F225A602F4B00229A602E4B5A
:100EA8004EF65F22DA602C4B00221A612A4B002290
:100EB8009A61294804F062F80346002B01D000F03B
:100EC80045FB4FF48053BB6207F1280319462248BB
:100ED80004F0C2FB0346002B01D000F037FB1E488C
:100EE80004F0FEF80346002B01D000F02FFB00238E
:100EF8003B6200237B6207F120031946164804F081
:100F08006DFF0346002B01D000F020FB60237B60BF
:100F18000023BB600023FB6000237B613B1D002294
:100F280019460D4804F0D6FA0346002B01D000F00C
:100F38000DFB3B1D04221946074804F0CBFA034673
:100F4800002B01D000F002FB034800F095FC00BF25
:100F58003837BD4680BD00BF28030020000400408C
:100F680080B582B000AF00237B601B4B1B6B1A4A15
:100F780043F480031363184B1B6B03F480037B60FB
:100F88007B6800233B60144B1B6B134A43F400132C
:100F98001363114B1B6B03F400133B603B68002287
:100FA80000210B2001F0B1FA0B2001F0CAFA00224F
:100FB80000210C2001F0A9FA0C2001F0C2FA00224D
:100FC8000021382001F0A1FA382001F0BAFA00BF58
:100FD8000837BD4680BD00BF0038024080B58AB0E2
:100FE80000AF07F1140300221A605A609A60DA60B1
:100FF8001A6100233B613B4B1B6B3A4A43F00403E5
:101008001363384B1B6B03F004033B613B690023FC
:10101800FB60344B1B6B334A43F080031363314B43
:101028001B6B03F08003FB60FB680023BB602D4B48
:101038001B6B2C4A43F0010313632A4B1B6B03F011
:101048000103BB60BB6800237B60264B1B6B254AF2
:1010580043F002031363234B1B6B03F002037B6013
:101068007B6800224FF400511F4801F079FF0022ED
:101078004FF406411D4801F073FF002208211C4867
:1010880001F06EFF4FF400537B610123BB61002325
:10109800FB6100233B6207F114031946124801F073
:1010A800DBFD4FF406437B610123BB610023FB6139
:1010B80000233B6207F1140319460C4801F0CCFDEC
:1010C80008237B610123BB610023FB6100233B6292
:1010D80007F114031946064801F0BEFD00BF283782
:1010E800BD4680BD003802400008024000000240B2
:1010F8000004024080B485B000AF78600B467B8066
:101108000023FB8112E0FB897A681A440D4B1B69A6
:101118000C49097B0B4412781A700A4B1B7B01336C
:10112800DAB2084B1A73FB890133FB81FA897B8891
:101138009A42E8D300BF00BF1437BD465DF8047B70
:10114800704700BF7803002080B582B000AF786098
:101158007B685A7B7B681B7B9A4206D07868FFF7CE
:1011680057FA7B681A7B7B685A737B685A797B6865
:101178001B799A422CD07B681A797B685B799A42F2
:1011880008D97B681A797B685B79D31ADAB27B68ED
:101198001A7506E07B685B79C3F10403DAB27B68F1
:1011A8001A757B689B687A6852791A447B681B7D3C
:1011B8009BB21946104608F0EFFA0346002B07D1F8
:1011C8007B685A797B681B7D1344DAB27B685A7155
:1011D80000BF0837BD4680BD80B58AB000AF7860D3
:1011E800002387F82630002387F8273000233B6246
:1011F8000023FB617B681A697B685B7802331344C0
:101208001B78F12B24D0F12B00F3B880F02B07D0FA
:10121800F02B00F3B380A02B28D0A12B53D0ADE046
:1012280097F826305A1C87F8262028333B44F022AA
:1012380003F8202C97F826305A1C87F826202833E4
:101248003B440D2203F8202C032387F82730A3E022
:1012580097F826305A1C87F8262028333B44F12279
:1012680003F8202C022387F8273095E097F82630DA
:101278005A1C87F8262028333B44A02203F8202C48
:101288004B4B1B689AB24B4B1A8097F826305A1C66
:1012980087F826201946474B1A7801F128033B4462
:1012A80003F8202C97F826305A1C87F82620194670
:1012B800404B5A7801F128033B4403F8202C0423BF
:1012C80087F8273068E07B681A697B685B780333A6
:1012D80013441A78374B1A707B681A697B685B78F5
:1012E800043313441A78334B5A707B681A697B6845
:1012F8005B78053313441A782E4B9A707B681A6909
:101308007B685B78063313441A782A4BDA70294BCA
:101318001B683B627B681A697B685B7807331344F8
:101328001A78244B1A707B681A697B685B780833D3
:1013380013441A781F4B5A707B681A697B685B786C
:10134800093313441A781B4B9A707B681A697B68B7
:101358005B780A3313441A78164BDA70154B1B68FE
:10136800FB613B6A002219461348FFF7CBF8FB697B
:10137800002219461148FFF7C5F80DE097F8263006
:101388005A1C87F8262028333B44FF2203F8202CD8
:10139800022387F8273000BF97F8272007F10803B2
:1013A80019467868FFF730FA00BF2837BD4680BD78
:1013B8009403002074030020C4030020D8030020F5
:1013C80080B582B000AF0346FB71224B1B78032B1C
:1013D8003AD801A252F823F0091400082114000891
:1013E80039140008F1130008012208211A4801F0F5
:1013F800B7FD01224FF40041184801F0B1FD24E087
:1014080001220821144801F0ABFD00224FF40041ED
:10141800124801F0A5FD18E0002208210E4801F04D
:101428009FFD01224FF400410C4801F099FD0CE0AA
:1014380000220821084801F093FD00224FF40041E2
:10144800064801F08DFD00E000BF00BF0837BD462B
:1014580080BD00BFC4030020000402400000024019
:1014680080B582B000AF0346FB71244B1B78032B79
:101478003ED801A252F823F0AB140008C5140008A6
:10148800DF1400089114000801224FF400711C4871
:1014980001F066FD01224FF48061194801F060FDFA
:1014A80027E001224FF40071154801F059FD002290
:1014B8004FF48061124801F053FD1AE000224FF406
:1014C80000710F4801F04CFD01224FF480610C4877
:1014D80001F046FD0DE000224FF40071084801F0CC
:1014E8003FFD00224FF48061054801F039FD00E01E
:1014F80000BF00BF0837BD4680BD00BFD80300202D
:101508000000024080B483B000AF0346FB80054B67
:101518001B68FA889A6300BF0C37BD465DF8047BE8
:10152800704700BF2803002080B483B000AF034693
:10153800FB80054B1B68FA885A6300BF0C37BD4611
:101548005DF8047B704700BF2803002080B400AF1B
:1015580072B600BFFEE7000080B483B000AF00237E
:101568007B60104B5B6C0F4A43F4804353640D4B14
:101578005B6C03F480437B607B6800233B60094B12
:101588001B6C084A43F080531364064B1B6C03F032
:1015980080533B603B6800BF0C37BD465DF8047B59
:1015A800704700BF0038024080B58AB000AF78604D
:1015B80007F1140300221A605A609A60DA601A610F
:1015C8007B681B682E4A934256D100233B612D4B02
:1015D8005B6C2C4A43F4807353642A4B5B6C03F4B2
:1015E80080733B613B690023FB60264B1B6B254ADC
:1015F80043F001031363234B1B6B03F00103FB60F0
:10160800FB68FF237B610323BB610023FB6107F1B8
:10161800140319461C4801F01FFB1C4B1C4A1A6096
:101628001A4B00225A60194B00229A60174B00226D
:10163800DA60164B4FF480621A61144B4FF4006263
:101648005A61124B4FF400529A61104B0022DA6132
:101658000E4B00221A620D4B00225A620B4800F012
:101668008BFF0346002B01D0FFF770FF7B68074A0A
:101678009A63064A7B68936300BF2837BD4680BDDE
:101688000020014000380240000002406C010020A8
:101698001064024080B58AB000AF786007F1140387
:1016A80000221A605A609A60DA601A617B681B68C7
:1016B800474A934240F0878000233B61454B1B6BB0
:1016C800444A43F002031363424B1B6B03F00203CB
:1016D8003B613B69C0237B611223BB610023FB6133
:1016E80003233B6204237B6207F1140319463A483B
:1016F80001F0B2FA0023FB60364B1B6C354A43F409
:1017080000131364334B1B6C03F40013FB60FB687A
:10171800324B334A1A60314B4FF000725A602F4BEC
:1017280000229A602D4B0022DA602C4B4FF4806225
:101738001A612A4B00225A61284B00229A61274BD2
:101748000022DA61254B00221A62244B00225A62D9
:10175800224800F011FF0346002B01D0FFF7F6FEE8
:101768007B681E4A9A631D4A7B6893631D4B1E4A19
:101778001A601C4B00225A601A4B40229A60194B7F
:101788000022DA60174B4FF480621A61154B002271
:101798005A61144B00229A61124B0022DA61114BF4
:1017A80000221A620F4B00225A620E4800F0E4FE33
:1017B8000346002B01D0FFF7C9FE7B68094A5A632C
:1017C800084A7B68936300BF2837BD4680BD00BFC9
:1017D800005400400038024000040240200200206B
:1017E80010600240800200202860024080B584B06A
:1017F80000AF78607B681B681C4A934216D10023AF
:10180800FB601B4B5B6C1A4A43F001035364184B93
:101818005B6C03F00103FB60FB68002200211920C8
:1018280000F073FE192000F08CFE1AE07B681B683C
:10183800104A934215D10023BB600D4B1B6C0C4A18
:1018480043F0020313640A4B1B6C03F00203BB60F2
:10185800BB68002200211D2000F057FE1D2000F06B
:1018680070FE00BF1037BD4680BD00BF00000140BC
:10187800003802400004004080B588B000AF7860AE
:1018880007F10C0300221A605A609A60DA601A6144
:101898007B681B68124A93421DD10023BB60114B21
:1018A8001B6B104A43F0020313630E4B1B6B03F0D0
:1018B8000203BB60BB683023FB6002233B6100234B
:1018C8007B610023BB610223FB6107F10C0319460E
:1018D800054801F0C1F900BF2037BD4680BD00BFF3
:1018E80000040040003802400004024080B400AF09
:1018F800FEE780B400AFFEE780B400AFFEE780B437
:1019080000AFFEE780B400AFFEE780B400AF00BFD1
:10191800BD465DF8047B704780B400AF00BFBD468C
:101928005DF8047B704780B400AF00BFBD465DF82A
:10193800047B704780B500AF00F0CCF800BF80BDD5
:1019480080B500AF024800F01DFF00BF80BD00BF9A
:101958002002002080B500AF024800F013FF00BF4E
:1019680080BD00BF8002002080B500AF024803F0B0
:10197800C1FC00BF80BD00BFE002002080B500AF01
:10198800024803F0B7FC00BF80BD00BF2803002059
:1019980080B500AF024800F0F5FE00BF80BD00BF73
:1019A8006C01002080B500AF024801F095FD00BF32
:1019B80080BD00BFD40E002080B400AF064BD3F822
:1019C8008830054A43F47003C2F8883000BFBD462A
:1019D8005DF8047B704700BF00ED00E0DFF834D00D
:1019E800FFF7EAFF0C480D490D4A002302E0D458DE
:1019F800C4500433C4188C42F9D30A4A0A4C002351
:101A080001E013600432A242FBD308F02FFBFEF77B
:101A1800C9FF7047000002200000002004010020D8
:101A28004CA1000804010020D8150020FEE70000A2
:101A380080B500AF0E4B1B680D4A43F4007313606A
:101A48000B4B1B680A4A43F480631360084B1B68FE
:101A5800074A43F480731360032000F04BFD0F2006
:101A680000F008F8FFF778FD0023184680BD00BF96
:101A7800003C024080B582B000AF7860124B1A6813
:101A8800124B1B7819464FF47A73B3FBF1F3B2FB90
:101A9800F3F3184600F063FD0346002B01D0012341
:101AA8000EE07B680F2B0AD8002279684FF0FF30D0
:101AB80000F02BFD064A7B681360002300E0012339
:101AC80018460837BD4680BD0000002008000020E9
:101AD8000400002080B400AF064B1B781A46064B62
:101AE8001B681344044A136000BFBD465DF8047BBD
:101AF800704700BF08000020EC05002080B400AF4C
:101B0800034B1B681846BD465DF8047B704700BF51
:101B1800EC05002080B584B000AF7860FFF7EEFFD9
:101B2800B8607B68FB60FB68B3F1FF3F05D00A4BE8
:101B38001B781A46FB681344FB6000BFFFF7DEFF03
:101B48000246BB68D31AFA689A42F7D800BF00BFAA
:101B58001037BD4680BD00BF0800002080B584B0A6
:101B680000AF78600023FB737B68002B01D1012351
:101B780033E07B681B6C002B09D17868FFF714FDF4
:101B88007B6800225A647B68002283F83C207B68CB
:101B98001B6C03F01003002B18D17B681B6C23F41B
:101BA800885323F0020343F002027B681A647868C2
:101BB80000F052FA7B6800225A647B681B6C23F0A1
:101BC800030343F001027B681A6401E00123FB73FD
:101BD8007B68002283F83C20FB7B18461037BD4603
:101BE80080BD000080B588B000AFF860B9607A6049
:101BF80000237B610023FB77FB6893F83C30012BC3
:101C080001D10223D0E0FB68012283F83C20FB6865
:101C18001B689B6803F00103012B18D0FB681B6845
:101C28009A68FB681B6842F001029A60604B1B6867
:101C3800604AA2FB03239A0C13465B0013447B61A2
:101C480002E07B69013B7B617B69002BF9D1FB6872
:101C58001B689B6803F48073B3F5807F07D1FB682A
:101C68001B689A68FB681B6822F480729A60FB689C
:101C78001B689B6803F00103012B40F08880FB6818
:101C88001B6C23F4E06323F0010343F48072FB68C8
:101C98001A64FB681B685B6803F48063002B07D039
:101CA800FB681B6C23F4405343F48052FB681A64AE
:101CB800FB681B6C03F48053B3F5805F06D1FB68A7
:101CC8005B6C23F00602FB685A6402E0FB680022A2
:101CD8005A64FB68002283F83C20374BBB61FB68E1
:101CE8009B6B364ADA63FB689B6B354A1A64FB6860
:101CF8009B6B344ADA64FB681B686FF022021A6037
:101D0800FB681B685A68FB681B6842F080625A606F
:101D1800FB681B689A68FB681B6842F480729A60CB
:101D2800FB68986BFB681B684C331946BA687B687C
:101D380000F0D0FC0346FB77BB695B6803F01F0328
:101D4800002B0FD1FB681B689B6803F04053002BE6
:101D580029D1FB681B689A68FB681B6842F08042BF
:101D68009A6020E0FB681B68174A93421BD1FB6806
:101D78001B689B6803F04053002B14D1FB681B6859
:101D88009A68FB681B6842F080429A600BE0FB6827
:101D98001B6C43F01002FB681A64FB685B6C43F031
:101DA8000102FB685A64FB7F18462037BD4680BD98
:101DB8000000002083DE1B43002301405922000855
:101DC800132300082F2300080020014080B483B0AB
:101DD80000AF786000BF0C37BD465DF8047B7047E4
:101DE80080B483B000AF786000BF0C37BD465DF8A3
:101DF800047B704780B485B000AF786039600023F9
:101E0800BB607B6893F83C30012B01D1022313E1BE
:101E18007B68012283F83C203B681B68092B25D985
:101E28007B681B68D9683B681B689BB21A461346D7
:101E38005B0013441E3B072202FA03F3DA437B6874
:101E48001B680A40DA607B681B68D9683B689A6837
:101E58003B681B689BB2184603465B0003441E3B65
:101E68009A407B681B680A43DA6022E07B681B683B
:101E780019693B681B689BB21A4613465B001344FA
:101E8800072202FA03F3DA437B681B680A401A61E7
:101E98007B681B6819693B689A683B681B689BB23A
:101EA800184603465B0003449A407B681B680A4354
:101EB8001A613B685B68062B24D87B681B68596BE2
:101EC8003B685A6813469B001344053B1F2202FADD
:101ED80003F3DA437B681B680A405A637B681B6814
:101EE800596B3B681B689BB218463B685A68134697
:101EF8009B001344053B00FA03F27B681B680A4306
:101F08005A634CE03B685B680C2B24D87B681B68E1
:101F1800196B3B685A6813469B001344233B1F22E6
:101F280002FA03F3DA437B681B680A401A637B688A
:101F38001B68196B3B681B689BB218463B685A685C
:101F480013469B001344233B00FA03F27B681B688B
:101F58000A431A6323E07B681B68D96A3B685A689E
:101F680013469B001344413B1F2202FA03F3DA4352
:101F78007B681B680A40DA627B681B68D96A3B6821
:101F88001B689BB218463B685A6813469B0013446B
:101F9800413B00FA03F27B681B680A43DA62294B6B
:101FA800FB607B681B68284A93420FD13B681B681B
:101FB800122B0BD1FB685B6823F40002FB685A60A4
:101FC800FB685B6843F48002FB685A607B681B68A7
:101FD8001D4A93422BD13B681B681C4A934203D08D
:101FE8003B681B68112B22D1FB685B6823F48002D5
:101FF800FB685A60FB685B6843F40002FB685A6040
:102008003B681B68114A934211D1114B1B68114A56
:10201800A2FB03239A0C13469B0013445B00BB608E
:1020280002E0BB68013BBB60BB68002BF9D17B6851
:10203800002283F83C20002318461437BD465DF87B
:10204800047B70470023014000200140120000106B
:102058000000002083DE1B4380B485B000AF7860A9
:10206800794BFB60FB685B6823F44032FB685A607D
:10207800FB685A687B685B681A43FB685A607B6830
:102088001B685A687B681B6822F480725A607B68F8
:102098001B6859687B681B691A027B681B680A43BE
:1020A8005A607B681B685A687B681B6822F040721C
:1020B8005A607B681B6859687B689A687B681B68EC
:1020C8000A435A607B681B689A687B681B6822F41D
:1020D80000629A607B681B6899687B68DA687B682D
:1020E8001B680A439A607B689B6A584A934222D0CD
:1020F8007B681B689A687B681B6822F070629A602C
:102108007B681B6899687B689A6A7B681B680A43C6
:102118009A607B681B689A687B681B6822F040524B
:102128009A607B681B6899687B68DA6A7B681B68B9
:102138000A439A600FE07B681B689A687B681B6893
:1021480022F070629A607B681B689A687B681B68DB
:1021580022F040529A607B681B689A687B681B680B
:1021680022F002029A607B681B6899687B681B7E74
:102178005A007B681B680A439A607B6893F8203092
:10218800002B1BD07B681B685A687B681B6842F46D
:1021980000625A607B681B685A687B681B6822F477
:1021A80060425A607B681B6859687B685B6A013BC0
:1021B8005A037B681B680A435A6007E07B681B6800
:1021C8005A687B681B6822F400625A607B681B6847
:1021D800DA6A7B681B6822F47002DA627B681B6823
:1021E800D96A7B68DB69013B1A057B681B680A436F
:1021F800DA627B681B689A687B681B6822F4007245
:102208009A607B681B6899687B6893F830305A023B
:102218007B681B680A439A607B681B689A687B68BE
:102228001B6822F480629A607B681B6899687B68E7
:102238005B699A027B681B680A439A6000BF14377F
:10224800BD465DF8047B7047002301400100000F84
:1022580080B584B000AF78607B689B6BFB60FB68DF
:102268001B6C03F05003002B3CD1FB681B6C43F440
:102278000072FB681A64FB681B689B6803F0405394
:10228800002B2BD1FB681B7E002B27D1FB681B681A
:10229800DB6A03F47003002B06D0FB681B689B689D
:1022A80003F48063002B19D1FB681B685A68FB682C
:1022B8001B6822F020025A60FB681B6C23F48072B2
:1022C800FB681A64FB681B6C03F48053002B05D170
:1022D800FB681B6C43F00102FB681A64F868FEF7A0
:1022E80057FB0EE0FB681B6C03F01003002B03D0B8
:1022F800F868FFF775FD04E0FB689B6BDB6C78689A
:10230800984700BF1037BD4680BD80B584B000AF88
:1023180078607B689B6BFB60F868FFF757FD00BF30
:102328001037BD4680BD80B584B000AF78607B684B
:102338009B6BFB60FB6840221A64FB685B6C43F094
:102348000402FB685A64F868FFF74AFD00BF1037BB
:10235800BD4680BD80B485B000AF78607B6803F06F
:102368000703FB600C4BDB68BB60BA684FF6FF03E2
:102378001340BB60FB681A02BB68134343F0BF639A
:1023880043F40033BB60044ABB68D36000BF143712
:10239800BD465DF8047B704700ED00E080B400AFF7
:1023A800044BDB681B0A03F007031846BD465DF8BB
:1023B800047B704700ED00E080B483B000AF0346B3
:1023C800FB7197F90730002B0BDBFB7903F01F0239
:1023D800074997F907305B09012000FA02F241F832
:1023E800232000BF0C37BD465DF8047B704700BF53
:1023F80000E100E080B483B000AF03463960FB71B0
:1024080097F90730002B0ADB3B68DAB20C4997F9D9
:1024180007301201D2B20B4483F800230AE03B686C
:10242800DAB20849FB7903F00F03043B1201D2B278
:102438000B441A7600BF0C37BD465DF8047B704725
:1024480000E100E000ED00E080B489B000AFF86082
:10245800B9607A60FB6803F00703FB61FB69C3F1AD
:102468000703042B28BF0423BB61FB690433062B35
:1024780002D9FB69033B00E000237B614FF0FF3288
:10248800BB6902FA03F3DA43BB681A407B699A40D6
:102498004FF0FF317B6901FA03F3D9437B680B40A6
:1024A800134318462437BD465DF8047B7047000087
:1024B80080B582B000AF78607B68013BB3F1807F64
:1024C80001D301230FE00A4A7B68013B53600F21C7
:1024D8004FF0FF30FFF78EFF054B00229A60044B48
:1024E80007221A60002318460837BD4680BD00BF82
:1024F80010E000E080B582B000AF78607868FFF740
:1025080029FF00BF0837BD4680BD80B586B000AF43
:102518000346B9607A60FB7300237B61FFF73EFFD7
:1025280078617A68B9687869FFF78EFF024697F98B
:102538000F3011461846FFF75DFF00BF1837BD463C
:1025480080BD80B582B000AF0346FB7197F90730B4
:102558001846FFF731FF00BF0837BD4680BD80B57C
:1025680082B000AF78607868FFF7A2FF034618468C
:102578000837BD4680BD000080B586B000AF7860E2
:1025880000237B61FFF7BAFA38617B68002B01D121
:10259800012399E07B68022283F835207B680022BA
:1025A80083F834207B681B681A687B681B6822F0F4
:1025B80001021A600FE0FFF7A1FA02463B69D31A3D
:1025C800052B08D97B6820225A657B68032283F88B
:1025D8003520032378E07B681B681B6803F0010340
:1025E800002BE8D17B681B681B687B617A69384BD4
:1025F80013407B617B685A687B689B681A437B68D9
:10260800DB681A437B681B691A437B685B691A435A
:102618007B689B691A437B68DB691A437B681B6A82
:1026280013437A6913437B617B685B6A042B07D188
:102638007B68DA6A7B681B6B13437A6913437B6197
:102648007B681B687A691A607B681B685B697B61B9
:102658007B6923F007037B617B685B6A7A691343B4
:102668007B617B685B6A042B17D17B689B6A7A69FC
:1026780013437B617B68DB6A002B0ED0786800F01F
:102688006FFA0346002B08D07B6840225A657B68A6
:10269800012283F83520012316E07B681B687A69DC
:1026A8005A61786800F026FA0346FB607B68DB6DA8
:1026B8003F229A40FB689A607B6800225A657B68D3
:1026C800012283F83520002318461837BD4680BDFF
:1026D8003F8010F080B586B000AFF860B9607A60CE
:1026E8003B600023FB75FB689B6D3B61FB6893F8BF
:1026F8003430012B01D1022340E0FB68012283F82A
:102708003420FB6893F83530DBB2012B2FD1FB68FE
:10271800022283F83520FB6800225A653B687A68F4
:10272800B968F86800F0B8F9FB68DB6D3F229A4099
:102738003B699A60FB681B681A68FB681B6842F073
:1027480016021A60FB681B6C002B07D0FB681B681D
:102758001A68FB681B6842F008021A60FB681B686D
:102768001A68FB681B6842F001021A6005E0FB6802
:10277800002283F834200223FB75FB7D18461837A6
:10278800BD4680BD80B586B000AF78600023BB60D1
:102798008E4B1B688E4AA2FB03239B0A7B617B68D6
:1027A8009B6D3B613B691B68FB607B68DB6D0822A6
:1027B8009A40FB681340002B1AD07B681B681B6883
:1027C80003F00403002B13D07B681B681A687B682E
:1027D8001B6822F004021A607B68DB6D08229A40AD
:1027E8003B699A607B685B6D43F001027B685A65C0
:1027F8007B68DB6D01229A40FB681340002B12D0E6
:102808007B681B685B6903F08003002B0BD07B6837
:10281800DB6D01229A403B699A607B685B6D43F0EF
:1028280002027B685A657B68DB6D04229A40FB686C
:102838001340002B12D07B681B681B6803F002034F
:10284800002B0BD07B68DB6D04229A403B699A60B1
:102858007B685B6D43F004027B685A657B68DB6DBF
:1028680010229A40FB681340002B43D07B681B68FA
:102878001B6803F00803002B3CD07B68DB6D10223B
:102888009A403B699A607B681B681B6803F4802345
:10289800002B18D07B681B681B6803F40023002BEF
:1028A80008D17B681B6C002B24D07B681B6C786874
:1028B80098471FE07B689B6C002B1BD07B689B6C48
:1028C8007868984716E07B681B681B6803F4807378
:1028D800002B07D17B681B681A687B681B6822F08D
:1028E80008021A607B681B6C002B03D07B681B6C8A
:1028F800786898477B68DB6D20229A40FB68134014
:10290800002B00F08F807B681B681B6803F01003A6
:10291800002B00F087807B68DB6D20229A403B69A2
:102928009A607B6893F83530DBB2052B36D17B682B
:102938001B681A687B681B6822F016021A607B689D
:102948001B685A697B681B6822F080025A617B68A1
:102958001B6C002B03D17B689B6C002B07D07B681A
:102968001B681A687B681B6822F008021A607B687B
:10297800DB6D3F229A403B699A607B68012283F8AD
:1029880035207B68002283F834207B681B6D002B80
:102998007ED07B681B6D7868984779E07B681B68F8
:1029A8001B6803F48023002B1DD07B681B681B6801
:1029B80003F40023002B0DD17B685B6C002B31D016
:1029C8007B685B6C786898472CE000BF00000020AB
:1029D800B5814E1B7B68DB6B002B23D07B68DB6BE0
:1029E800786898471EE07B681B681B6803F480734F
:1029F800002B0FD17B681B681A687B681B6822F064
:102A080010021A607B68012283F835207B68002257
:102A180083F834207B68DB6B002B03D07B68DB6B8F
:102A2800786898477B685B6D002B32D07B685B6D5C
:102A380003F00103002B22D07B68052283F83520A0
:102A48007B681B681A687B681B6822F001021A60A1
:102A5800BB680133BB607A699A4207D37B681B68FD
:102A68001B6803F00103002BF2D100E000BF7B6874
:102A7800012283F835207B68002283F834207B68A4
:102A8800DB6C002B05D07B68DB6C7868984700E02E
:102A980000BF1837BD4680BD80B485B000AFF86070
:102AA800B9607A603B60FB681B681A68FB681B6842
:102AB80022F480221A60FB681B683A685A60FB6837
:102AC8009B68402B08D1FB681B687A689A60FB6892
:102AD8001B68BA68DA6007E0FB681B68BA689A6026
:102AE800FB681B687A68DA6000BF1437BD465DF87A
:102AF800047B704780B485B000AF78607B681B6842
:102B0800DBB2103B144AA2FB03231B09FB60134AE8
:102B1800FB6813441B781A467B68DA65FB68032B4D
:102B280009D97B681B6823F47F7323F003031A1DFC
:102B38007B689A6507E07B681B6823F47F7323F042
:102B480003037A6893657B689B6D18461437BD4606
:102B58005DF8047B704700BFABAAAAAA34A100089D
:102B680080B485B000AF78600023FB737B689B6AF4
:102B7800BB607B689B69002B1FD1BB68032B56D8B1
:102B880001A252F823F000BFA12B0008B32B0008C4
:102B9800A12B0008372C00087B68DB6A03F08073E0
:102BA800002B46D00123FB7343E07B68DB6AB3F15B
:102BB800C07F40D10123FB733DE07B689B69B3F57F
:102BC800005F21D1BB68032B37D801A252F823F04C
:102BD800E92B0008EF2B0008E92B0008012C00085E
:102BE8000123FB7330E07B68DB6A03F08073002B02
:102BF80025D00123FB7322E07B68DB6AB3F1C07F39
:102C08001FD10123FB731CE0BB68022B03D9BB68EF
:102C1800032B03D018E00123FB7315E07B68DB6A04
:102C280003F08073002B0ED00123FB730BE000BF71
:102C38000AE000BF08E000BF06E000BF04E000BFF4
:102C480002E000BF00E000BFFB7B18461437BD461A
:102C58005DF8047B704700BF80B489B000AF78602E
:102C6800396000237B6100233B610023BB610023A3
:102C7800FB6159E10122FB6902FA03F37B613B68BE
:102C88001B687A6913403B613A697B699A4240F054
:102C980048813B685B6803F00303012B05D03B6860
:102CA8005B6803F00303022B30D17B689B68BB6130
:102CB800FB695B00032202FA03F3DB43BA691340A2
:102CC800BB613B68DA68FB695B0002FA03F3BA6927
:102CD8001343BB617B68BA699A607B685B68BB61B8
:102CE8000122FB6902FA03F3DB43BA691340BB61B3
:102CF8003B685B681B0903F00102FB6902FA03F3F6
:102D0800BA691343BB617B68BA695A603B685B6800
:102D180003F00303032B17D07B68DB68BB61FB69F7
:102D28005B00032202FA03F3DB43BA691340BB6179
:102D38003B689A68FB695B0002FA03F3BA691343BC
:102D4800BB617B68BA69DA603B685B6803F00303C0
:102D5800022B23D1FB69DA087B68083253F822304A
:102D6800BB61FB6903F007039B000F2202FA03F320
:102D7800DB43BA691340BB613B681A69FB6903F01E
:102D880007039B0002FA03F3BA691343BB61FB69AB
:102D9800DA087B680832B96943F822107B681B6837
:102DA800BB61FB695B00032202FA03F3DB43BA69E8
:102DB8001340BB613B685B6803F00302FB695B007F
:102DC80002FA03F3BA691343BB617B68BA691A60F4
:102DD8003B685B6803F44033002B00F0A2800023BB
:102DE800FB60574B5B6C564A43F480435364544B27
:102DF8005B6C03F48043FB60FB68524AFB699B08E9
:102E0800023352F82330BB61FB6903F003039B00D4
:102E18000F2202FA03F3DB43BA691340BB617B68F4
:102E2800494A934219D07B68484A934213D07B6839
:102E3800474A93420DD07B68464A934207D07B6845
:102E4800454A934201D1042308E0072306E00323FF
:102E580004E0022302E0012300E00023FA6902F003
:102E6800030292009340BA691343BB613549FB6979
:102E78009B080233BA6941F82320384B9B68BB6131
:102E88003B69DB43BA691340BB613B685B6803F489
:102E98008013002B03D0BA693B691343BB612F4AE7
:102EA800BB6993602D4BDB68BB613B69DB43BA6947
:102EB8001340BB613B685B6803F40013002B03D02D
:102EC800BA693B691343BB61244ABB69D360234B8E
:102ED8005B68BB613B69DB43BA691340BB613B6814
:102EE8005B6803F40033002B03D0BA693B691343D2
:102EF800BB611A4ABB695360184B1B68BB613B69CD
:102F0800DB43BA691340BB613B685B6803F48033F9
:102F1800002B03D0BA693B691343BB610F4ABB69F5
:102F28001360FB690133FB61FB690F2B7FF6A2AECF
:102F380000BF00BF2437BD465DF8047B704700BF63
:102F480000380240003801400000024000040240FE
:102F580000080240000C024000100240003C014002
:102F680080B483B000AF78600B467B8013467B70DB
:102F78007B78002B03D07A887B689A6103E07B8892
:102F88001A047B689A6100BF0C37BD465DF8047B64
:102F9800704780B485B000AF78600B467B807B6853
:102FA8005B69FB607A88FB6813401A04FB68D943A5
:102FB8007B880B401A437B689A6100BF1437BD4673
:102FC8005DF8047B7047000080B584B000AF78607E
:102FD8007B68002B01D101232BE17B6893F83D30FE
:102FE800DBB2002B06D17B68002283F83C2078688E
:102FF800FEF750FB7B68242283F83D207B681B6822
:103008001A687B681B6822F001021A607B681B68DB
:103018001A687B681B6842F400421A607B681B6868
:103028001A687B681B6822F400421A6001F092FF5C
:10303800F8607B685B68814A934207D8FB68804ADE
:10304800934294BF01230023DBB206E0FB687D4A6C
:10305800934294BF01230023DBB2002B01D001234C
:10306800E7E0FB68784AA2FB03239B0CBB607B6804
:103078001B685B6823F03F017B681B68BA680A43DA
:103088005A607B681B681B6A23F03F017B685B689A
:103098006A4A934202D8BB68013309E0BB684FF41F
:1030A800967202FB03F3694AA2FB03239B090133CF
:1030B8007A6812680B4313627B681B68DB6923F428
:1030C8004F4222F0FF027B685B685C498B4219D84B
:1030D800FB68591E7B685B685B00B1FBF3F3591C06
:1030E80040F6FC730B40002B0AD0FB68591E7B6826
:1030F8005B685B00B1FBF3F30133C3F30B0351E0EF
:1031080004234FE07B689B68002B11D1FB68581E95
:103118007B6859680B465B000B44B0FBF3F3013343
:10312800C3F30B03002B0CBF01230023DBB212E017
:10313800FB68581E7B6859680B469B000B44990036
:103148000B44B0FBF3F30133C3F30B03002B0CBFA9
:1031580001230023DBB2002B01D0012322E07B688E
:103168009B68002B0ED1FB68581E7B6859680B467C
:103178005B000B44B0FBF3F30133C3F30B0343F4DD
:1031880000430FE0FB68581E7B6859680B469B009C
:103198000B4499000B44B0FBF3F30133C3F30B0367
:1031A80043F44043796809681343CB617B681B6823
:1031B8001B6823F0C0017B68DA697B681B6A1A43C5
:1031C8007B681B680A431A607B681B689B6823F44A
:1031D800034323F0FF037A6811697A68D2681143C0
:1031E8007A6812680B4393607B681B68DB6823F07E
:1031F800FF017B685A697B689B691A437B681B6877
:103208000A43DA607B681B681A687B681B6842F0AF
:1032180001021A607B6800221A647B68202283F806
:103228003D207B6800221A637B68002283F83E20D9
:10323800002318461037BD4680BD00BFA086010098
:103248007F841E00FF083D0083DE1B43D34D6210C0
:1032580080B586B002AF78607B68002B01D101236E
:1032680001E17B681B68BB607B6893F89534DBB22F
:10327800002B06D17B68002283F89424786806F036
:10328800E3FB7B68032283F89524BB68B3F1A04F66
:1032980002D17B6800229A717B681B68184602F08D
:1032A80036FF7B6818687B681A7C8DF80020043329
:1032B8000ECB02F015FE0346002B05D07B680222D8
:1032C80083F895240123CEE07B681B68002118460B
:1032D80002F02EFF0346002B05D07B68022283F8FC
:1032E80095240123BFE00023FB734AE0FA7B796849
:1032F8001346DB0013449B000B44153301221A705C
:10330800FA7B79681346DB0013449B000B441433A3
:10331800FA7B1A70FA7BFB7B98B279681346DB005C
:1033280013449B000B442E3302461A80FA7B7968BB
:103338001346DB0013449B000B44183300221A7019
:10334800FA7B79681346DB0013449B000B441C335B
:1033580000221A60FA7B79681346DB0013449B004D
:103368000B44203300221A60FA7B79681346DB008D
:1033780013449B000B44243300221A60FB7B013367
:10338800FB737B681B79FA7B9A42AFD30023FB73EC
:1033980044E0FA7B79681346DB0013449B000B4436
:1033A80003F2552300221A70FA7B79681346DB0072
:1033B80013449B000B4403F51573FA7B1A70FA7BD0
:1033C80079681346DB0013449B000B4403F516731E
:1033D80000221A70FA7B79681346DB0013449B00BD
:1033E8000B4403F5177300221A60FA7B79681346B9
:1033F800DB0013449B000B4403F5187300221A608A
:10340800FA7B79681346DB0013449B000B4403F5F1
:10341800197300221A60FB7B0133FB737B681B79ED
:10342800FA7B9A42B5D37B6818687B681A7C8DF85A
:10343800002004330ECB02F0C7FE0346002B05D054
:103448007B68022283F8952401230CE07B68002224
:103458005A747B68012283F895247B681B68184698
:1034680003F011FF002318461037BD4680BD80B514
:1034780084B000AF78607B681B68FB607B6893F85A
:103488009434012B01D1022322E07B68012283F8C6
:103498009424FB68DB6803F04003002B09D07B68A9
:1034A8005B7B012B05D1FB689B6B43F48032FB6887
:1034B8009A637B681B68184602F018FE7B681B68D5
:1034C800184603F0BFFE7B68002283F8942400238B
:1034D80018461037BD4680BD90B58DB000AF7860F6
:1034E8007B681B683B623B6AFB617B681B6818460C
:1034F80003F07DFF0346002B40F08C847B681B683B
:10350800184603F0E1FE0346002B00F08284FB69B5
:1035180003F500639B681B0AC3F30D027B68C3F8BD
:10352800D4247B681B68184603F0CEFE034603F0DC
:103538000203022B07D17B681B685A697B681B68EA
:1035480002F002025A617B681B68184603F0BCFE51
:10355800034603F01003102B61D17B681B689A693E
:103568007B681B6822F010029A613B6A1B6ABB6188
:10357800BB6903F00F021346DB0013449B0003F5FD
:1035880014737A68134404337B61BB695B0C03F0E2
:103598000F03022B24D1BA6947F6F0731340002BAE
:1035A80035D07B69D968BB691B099BB2C3F30A0391
:1035B8009BB21A46386A03F0F3FC7B69DA68BB6988
:1035C8001B09C3F30A031A447B69DA607B695A69E9
:1035D800BB691B09C3F30A031A447B695A6116E0E5
:1035E800BB695B0C03F00F03062B10D17B6803F259
:1035F8009C4308221946386A03F0D2FC7B695A6951
:10360800BB691B09C3F30A031A447B695A617B68C7
:103618001B689A697B681B6842F010029A617B6894
:103628001B68184603F050FE034603F40023B3F565
:10363800002F40F0A78000237B627B681B68184638
:1036480003F055FEB86299E0BB6A03F00103002B52
:1036580000F08E807B681B687A6AD2B211461846E1
:1036680003F079FE38613B6903F00103002B0CD0AD
:103678007B6A5A01FB69134403F530631A46012338
:103688009360796A786800F0A3FE3B6903F0080349
:10369800002B0CD07B6A5A01FB69134403F5306395
:1036A8001A4608239360796A786800F079FF3B69C5
:1036B80003F01003002B08D07B6A5A01FB691344FE
:1036C80003F530631A46102393603B6903F0020345
:1036D800002B30D03B6A5B6903F08003802B09D153
:1036E800FB6903F500635B68FA6902F5006243F45D
:1036F800806353607A6A1346DB0013449B0003F52A
:1037080014737A68134404337B617B69DB78012B7B
:1037180008D17B690022DA707B6ADBB219467868C7
:1037280006F08EFA7B6A5A01FB69134403F530638D
:103738001A46022393603B6903F02003002B08D04C
:103748007B6A5A01FB69134403F530631A46202348
:1037580093603B6903F40053002B09D07B6A5A013C
:10376800FB69134403F530631A464FF40053936022
:103778007B6A01337B62BB6A5B08BB62BB6A002B56
:103788007FF462AF7B681B68184603F09DFD034613
:1037980003F48023B3F5802F40F0DB807B681B683F
:1037A800184603F0BEFDB86200237B62CDE0BB6A19
:1037B80003F00103002B00F0C2807B681B687A6A63
:1037C800D2B21146184603F0E4FD38613B6903F0B4
:1037D8000103002B57D07B6A03F00F03012202FA82
:1037E80003F3FB60FB6903F500635A6BFB68DB437B
:1037F800F96901F5006113404B637B6A5A01FB6963
:10380800134403F510631A46012393607B689B7980
:10381800012B32D179687A6A1346DB0013449B0086
:103828000B442033196878687A6A1346DB0013441E
:103838009B0003441C331B68194478687A6A134652
:10384800DB0013449B000344203319607B6A002B80
:1038580013D179687A6A1346DB0013449B000B4442
:1038680024331B68002B08D17B6818687B6803F237
:103878009C431A46012103F0EBFD7B6ADBB2194633
:10388800786806F062F93B6903F00803002B08D05A
:103898007B6A5A01FB69134403F510631A4608232F
:1038A80093603B6903F01003002B08D07B6A5A0130
:1038B800FB69134403F510631A46102393603B69B0
:1038C80003F04003002B08D07B6A5A01FB691344BC
:1038D80003F510631A46402393603B6903F0020323
:1038E800002B23D0796A386A02F0D2FD7A6A13462F
:1038F800DB0013449B0010337A68134404337B6164
:103908007B69DB78012B08D17B690022DA707B6A3E
:10391800DBB21946786806F0A5F97B6A5A01FB699B
:10392800134403F510631A46022393603B6903F0BE
:103938008003002B03D0796A786800F0BDFC7B6AAD
:1039480001337B62BB6A5B08BB62BB6A002B7FF4F6
:103958002EAF7B681B68184603F0B6FC034603F0DD
:103968000043B3F1004F22D1FB6903F500635B68A4
:10397800FA6902F5006223F0010353607B6893F84B
:10398800CC34012B08D17B68002283F8CC24002199
:10399800786800F0A3FE02E0786806F043F97B68D7
:1039A8001B685A697B681B6802F000425A617B6891
:1039B8001B68184603F088FC034603F40063B3F55C
:1039C800006F12D1FB6903F500639B6803F00103E4
:1039D800012B02D1786806F0FFF87B681B685A69EA
:1039E8007B681B6802F400625A617B681B68184692
:1039F80003F06AFC034603F48053B3F5805F40F09C
:103A0800B780FB6903F500635B68FA6902F5006239
:103A180023F0010353607B681B681021184602F0ED
:103A280037FD0023FB6246E0FB6A5A01FB69134439
:103A380003F510631A464FF67F339360FB6A5A0109
:103A4800FB69134403F510631B68FA6A5101FA69AC
:103A58000A4402F5106223F400131360FB6A5A014A
:103A6800FB69134403F530631A464FF67F339360BE
:103A7800FB6A5A01FB69134403F530631B68FA6A51
:103A88005101FA690A4402F5306223F40013136005
:103A9800FB6A5A01FB69134403F530631B68FA6A31
:103AA8005101FA690A4402F5306243F00063136079
:103AB800FB6A0133FB627B681B791A46FB6A9342F7
:103AC800B2D3FB6903F50063DB69FA6902F50062AA
:103AD80043F00113D3617B68DB7B002B16D0FB69B5
:103AE80003F50063D3F88430FA6902F5006243F005
:103AF8000B03C2F88430FB6903F500635B6CFA6959
:103B080002F5006243F00B03536415E0FB6903F50B
:103B180000635B69FA6902F5006243F4005343F0FD
:103B28002B035361FB6903F500631B69FA6902F50E
:103B3800006243F00B031361FB6903F500631B6824
:103B4800FA6902F5006223F4FE6313607B68186863
:103B58007B6899797B6803F29C431A4603F078FCEA
:103B68007B681B685A697B681B6802F480525A613B
:103B78007B681B68184603F0A7FB034603F4005351
:103B8800B3F5005F23D17B681B68184603F03DFC42
:103B98007B681B68184602F0F4FC03461A467B68EB
:103BA800DA717B681C6801F0C9F901467B68DB792A
:103BB8001A46204602F0F8F9786805F0EEFF7B68AF
:103BC8001B685A697B681B6802F400525A617B685B
:103BD8001B68184603F078FB034603F00803082B1C
:103BE8000AD1786805F0CBFF7B681B685A697B6847
:103BF8001B6802F008025A617B681B68184603F0CC
:103C080063FB034603F08003802B23D13B6A9B6947
:103C180023F080023B6A9A6101237B6214E0796891
:103C28007A6A1346DB0013449B000B4403F25723C4
:103C38001B78012B05D17B6ADBB21946786800F046
:103C48000AFB7B6A01337B627B681B791A467B6AB5
:103C58009342E4D37B681B68184603F035FB0346A0
:103C680003F48013B3F5801F3CD101237B622BE062
:103C78007B6A5A01FB69134403F510631B68BB6137
:103C880079687A6A1346DB0013449B000B441833A7
:103C98001B78012B15D1BB69002B12DA79687A6A77
:103CA8001346DB0013449B000B44173301221A70A0
:103CB8007B6ADBB263F07F03DBB21946786800F0F9
:103CC800CAFA7B6A01337B627B681B791A467B6A76
:103CD8009342CDD37B681B685A697B681B6802F4E2
:103CE80080125A617B681B68184603F0EDFA034698
:103CF80003F40013B3F5001F56D101237B6245E09E
:103D08007B6A5A01FB69134403F530631B68BB6186
:103D180079687A6A1346DB0013449B000B4403F569
:103D280016731B78012B2ED1BB69002B2BDABB69CC
:103D38001A0C7B68D3F8D434534003F00103002BEA
:103D480021D179687A6A1346DB0013449B000B443F
:103D580003F2572301221A703B6A9B6943F08002E1
:103D68003B6A9A613B6A5B6903F08003002B0AD1C6
:103D7800FB6903F500635B68FA6902F5006243F4C6
:103D88000073536008E07B6A01337B627B681B79B0
:103D98001A467B6A9342B3D37B681B685A697B686F
:103DA8001B6802F400125A617B681B68184603F00E
:103DB8008BFA034603F08043B3F1804F0AD1786849
:103DC80005F062FF7B681B685A697B681B6802F014
:103DD80080425A617B681B68184603F075FA0346EF
:103DE80003F00403042B15D17B681B685B68BB6177
:103DF800BB6903F00403002B02D0786805F052FF7A
:103E08007B681B6859687B681B68BA690A435A60F3
:103E180000E000BF3437BD4690BD80B582B000AF2A
:103E280078600B46FB707B6893F89434012B01D1C2
:103E3800022312E07B68012283F894247B68FA78D5
:103E48005A747B681B68FA781146184603F0D4F94F
:103E58007B68002283F89424002318460837BD465F
:103E680080BD80B584B000AF7860084611461A4618
:103E78000346FB700B463B801346BB700023FB7266
:103E880097F90330002B0FDAFB7803F00F02134683
:103E9800DB0013449B0010337A6813440433FB603F
:103EA800FB6801225A700FE0FB7803F00F021346FB
:103EB800DB0013449B0003F514737A68134404333E
:103EC800FB60FB6800225A70FB7803F00F03DAB23C
:103ED800FB681A703B88C3F30A02FB689A60FB68A8
:103EE800BA781A71FB685B78002B04D0FB681B78E2
:103EF8009AB2FB685A83BB78022B02D1FB68002276
:103F08005A717B6893F89434012B01D102230EE097
:103F18007B68012283F894247B681B68F96818463B
:103F280002F054FB7B68002283F89424FB7A18463D
:103F38001037BD4680BD80B584B000AF78600B46B1
:103F4800FB7097F90330002B0FDAFB7803F00F02B0
:103F58001346DB0013449B0010337A681344043380
:103F6800FB60FB6801225A700FE0FB7803F00F0238
:103F78001346DB0013449B0003F514737A6813445B
:103F88000433FB60FB6800225A70FB7803F00F03D0
:103F9800DAB2FB681A707B6893F89434012B01D16C
:103FA80002230EE07B68012283F894247B681B6857
:103FB800F968184602F092FB7B68002283F8942483
:103FC800002318461037BD4680BD80B586B000AFC7
:103FD800F8607A603B600B46FB72FB7A03F00F02D5
:103FE8001346DB0013449B0003F51473FA6813446B
:103FF80004337B617B697A68DA607B693A681A61A5
:104008007B6900225A617B6900225A70FB7A03F0AF
:104018000F03DAB27B691A70FB689B79012B02D116
:104028007A687B69DA61FB681868FB689B791A46CD
:10403800796902F02FFC002318461837BD4680BD69
:1040480080B483B000AF78600B46FB70FB7803F058
:104058000F0279681346DB0013449B000B4403F5F9
:104068001A731B6818460C37BD465DF8047B704709
:1040780080B586B000AFF8607A603B600B46FB7293
:10408800FB7A03F00F021346DB0013449B00103346
:10409800FA68134404337B617B697A68DA607B6968
:1040A8003A681A617B6900225A617B6901225A7059
:1040B800FB7A03F00F03DAB27B691A70FB689B790D
:1040C800012B02D17A687B69DA61FB681868FB68A2
:1040D8009B791A46796902F0DDFB002318461837E8
:1040E800BD4680BD80B584B000AF78600B46FB70DC
:1040F800FB7803F00F037A681279934201D9012300
:104108004FE097F90330002B0FDAFB7803F00F022A
:104118001346DB0013449B0010337A6813440433BE
:10412800FB60FB6801225A700DE0FA781346DB0049
:1041380013449B0003F514737A6813440433FB603B
:10414800FB6800225A70FB6801229A70FB7803F022
:104158000F03DAB2FB681A707B6893F89434012B6A
:1041680001D102231DE07B68012283F894247B6837
:104178001B68F968184602F06BFFFB7803F00F0321
:10418800002B09D17B6818687B6899797B6803F2F2
:104198009C431A4603F05CF97B68002283F8942458
:1041A800002318461037BD4680BD80B584B000AFE7
:1041B80078600B46FB70FB7803F00F037A6812797E
:1041C800934201D9012342E097F90330002B0FDA1B
:1041D800FB7803F00F021346DB0013449B001033F7
:1041E8007A6813440433FB60FB6801225A700FE0BD
:1041F800FB7803F00F021346DB0013449B0003F522
:1042080014737A6813440433FB60FB6800225A7005
:10421800FB6800229A70FB7803F00F03DAB2FB68A0
:104228001A707B6893F89434012B01D102230EE0B5
:104238007B68012283F894247B681B68F968184618
:1042480002F074FF7B68002283F894240023184648
:104258001037BD4680BD80B584B000AF78600B468E
:10426800FB7097F90330002B0CDAFB7803F00F0290
:104278001346DB0013449B0010337A68134404335D
:10428800FB600CE0FB7803F00F021346DB001344DD
:104298009B0003F514737A6813440433FB607B684E
:1042A8001B68F968184602F093FD0346FB72FB7A17
:1042B80018461037BD4680BD80B58AB002AF786019
:1042C80039607B681B687B617B693B613A68134690
:1042D800DB0013449B0010337A6813440433FB60FB
:1042E800FB685A69FB681B699A4201D901236BE094
:1042F800FB681A69FB685B69D31AFB61FB689B68FA
:10430800FA699A4202D9FB689B68FB61FB6903332F
:104318009B08BB612AE0FB681A69FB685B69D31AD2
:10432800FB61FB689B68FA699A4202D9FB689B6843
:10433800FB61FB6903339B08BB61FB68D9683B6879
:10434800DAB2FB6998B27B689B7900930346786977
:1043580002F0E8FDFB68DA68FB691A44FB68DA607A
:10436800FB685A69FB691A44FB685A613B685A0141
:104378003B69134403F510639B699BB2BA699A427F
:1043880009D8FB685A69FB681B699A4203D2FB6823
:104398001B69002BBFD1FB681A69FB685B699A42ED
:1043A80011D83B6803F00F03012202FA03F3BB6044
:1043B8003B6903F500635A6BBB68DB43396901F558
:1043C800006113404B63002318462037BD4680BD6B
:1043D80080B588B000AF786039607B681B68FB6186
:1043E800FB69BB61FB693C3304331B687B613B6839
:1043F8005A01BB69134403F530639B683B617B68D2
:104408009B79012B7BD13B6903F00803002B15D066
:104418007B69614A934240F2B9803B6903F40043E7
:10442800002B00F0B3803B685A01BB69134403F5C5
:1044380030631A464FF400439360A7E03B6903F0EA
:104448002003002B09D03B685A01BB69134403F5CC
:1044580030631A462023936098E03B6903F02803F1
:10446800002B40F093807B694B4A93420FD93B69FC
:1044780003F40043002B0AD03B685A01BB6913447C
:1044880003F530631A464FF4004393607EE03A68C0
:104498001346DB0013449B0003F514737A68134436
:1044A8000433FB60FB681A6A3B685901BB690B441B
:1044B80003F530631B69C3F31203D21AFB685A6110
:1044C8003B68002B14D1FB681B69002B09D17B6862
:1044D80018687B6803F29C431A46012102F0B8FF72
:1044E80006E0FB68DA68FB685B691A44FB68DA6017
:1044F8003B68DBB21946786805F00CFB46E07B693F
:10450800264A934224D13B6903F40043002B0AD086
:104518003B685A01BB69134403F530631A464FF4EC
:104528000043936032E03B6903F02003002B08D07E
:104538003B685A01BB69134403F530631A462023CC
:1045480093603B68DBB21946786805F0E3FA1DE032
:104558003B68002B14D179683A681346DB00134492
:104568009B000B4403F519731B68002B08D17B686B
:1045780018687B6803F29C431A46002102F068FF22
:104588003B68DBB21946786805F0C4FA0023184680
:104598002037BD4680BD00BF0A30544F0A31544F02
:1045A80080B586B000AF786039607B681B687B6136
:1045B8007B693B617B693C3304331B68FB603B6868
:1045C8005A013B69134403F530639B68BB60FB6881
:1045D800154A93420ED9BB6803F40043002B09D057
:1045E8003B685A013B69134403F530631A464FF49C
:1045F80000439360786805F07BFAFB680A4A9342A7
:104608000CD97B689B79012B08D17B6818687B687B
:1046180003F29C431A46012102F01AFF00231846B0
:104628001837BD4680BD00BF0A30544F80B485B0EE
:1046380000AF78600B46FB7013463B807B681B68B5
:104648005B6ABB60FB78002B07D13B8819047B6849
:104658001B68BA680A439A6228E07B681B689B6AF1
:104668001B0CBA681344BB600023FB730DE07B6826
:104678001A68FB7B40339B0013445B681B0CBA68C9
:104688001344BB60FB7B0133FB73FA7BFB78013B74
:104698009A42ECD33B8818047B681968FB78013B85
:1046A800BA68024340339B000B445A600023184603
:1046B8001437BD465DF8047B704780B483B000AF03
:1046C80078600B467B807B681B687A885A62002377
:1046D80018460C37BD465DF8047B704780B483B03C
:1046E80000AF78600B46FB7000BF0C37BD465DF825
:1046F800047B704780B586B000AF78607B68002B7C
:1047080001D1012367E27B681B6803F00103002BDA
:1047180075D0884B9B6803F00C03042B0CD0854B99
:104728009B6803F00C03082B12D1824B5B6803F4DF
:104738008003B3F5800F0BD17E4B1B6803F4003365
:10474800002B5BD07B685B68002B57D1012342E2CA
:104758007B685B68B3F5803F06D1764B1B68754A6A
:1047680043F4803313601DE07B685B68B3F5A02FCA
:104778000CD1704B1B686F4A43F4802313606D4B58
:104788001B686C4A43F4803313600BE0694B1B6869
:10479800684A23F480331360664B1B68654A23F428
:1047A800802313607B685B68002B13D0FDF7A6F9A4
:1047B800386108E0FDF7A2F902463B69D31A642B79
:1047C80001D9032307E25B4B1B6803F40033002B7A
:1047D800F0D014E0FDF792F9386108E0FDF78EF9A2
:1047E80002463B69D31A642B01D90323F3E1514BE9
:1047F8001B6803F40033002BF0D100E000BF7B6896
:104808001B6803F00203002B63D04A4B9B6803F03C
:104818000C03002B0BD0474B9B6803F00C03082BB1
:104828001CD1444B5B6803F48003002B16D1414B29
:104838001B6803F00203002B05D07B68DB68012BA3
:1048480001D00123C7E13B4B1B6823F0F8027B68CA
:104858001B69DB00374913430B603AE07B68DB6870
:10486800002B20D0344B01221A60FDF747F938613C
:1048780008E0FDF743F902463B69D31A022B01D938
:104888000323A8E12B4B1B6803F00203002BF0D095
:10489800284B1B6823F0F8027B681B69DB0025495D
:1048A80013430B6015E0244B00221A60FDF726F92C
:1048B800386108E0FDF722F902463B69D31A022B5A
:1048C80001D9032387E11B4B1B6803F00203002B6C
:1048D800F0D17B681B6803F00803002B36D07B6897
:1048E8005B69002B16D0154B01221A60FDF706F9FB
:1048F800386108E0FDF702F902463B69D31A022B3A
:1049080001D9032367E10B4B5B6F03F00203002B14
:10491800F0D01BE0094B00221A60FDF7EFF8386170
:104928000EE0FDF7EBF802463B69D31A022B07D9D4
:10493800032350E10038024000004742800E4742FE
:10494800884B5B6F03F00203002BEAD17B681B687E
:1049580003F00403002B00F097800023FB75814BC4
:104968001B6C03F08053002B0FD10023BB607D4BE1
:104978001B6C7C4A43F0805313647A4B1B6C03F026
:104988008053BB60BB680123FB75774B1B6803F43E
:104998008073002B18D1744B1B68734A43F48073DF
:1049A8001360FDF7ABF8386108E0FDF7A7F8024699
:1049B8003B69D31A022B01D903230CE16A4B1B680C
:1049C80003F48073002BF0D07B689B68012B06D121
:1049D800644B1B6F634A43F0010313671CE07B6859
:1049E8009B68052B0CD15F4B1B6F5E4A43F0040399
:1049F80013675C4B1B6F5B4A43F0010313670BE0C3
:104A0800584B1B6F574A23F001031367554B1B6F15
:104A1800544A23F0040313677B689B68002B15D066
:104A2800FDF76CF838610AE0FDF768F802463B6963
:104A3800D31A41F28832934201D90323CBE0494B80
:104A48001B6F03F00203002BEED014E0FDF756F8BD
:104A580038610AE0FDF752F802463B69D31A41F281
:104A68008832934201D90323B5E03E4B1B6F03F014
:104A78000203002BEED1FB7D012B05D1394B1B6CBA
:104A8800384A23F0805313647B689B69002B00F03D
:104A9800A180344B9B6803F00C03082B5CD07B6827
:104AA8009B69022B41D1314B00221A60FDF726F891
:104AB800386108E0FDF722F802463B69D31A022B59
:104AC80001D9032387E0274B1B6803F00073002BF1
:104AD800F0D17B68DA697B681B6A1A437B685B6A7A
:104AE8009B011A437B689B6A5B08013B1B041A43C2
:104AF8007B68DB6A1B061B4913434B601B4B012277
:104B08001A60FCF7FBFF386108E0FCF7F7FF024684
:104B18003B69D31A022B01D903235CE0114B1B68B4
:104B280003F00073002BF0D054E0104B00221A6001
:104B3800FCF7E4FF386108E0FCF7E0FF02463B6958
:104B4800D31A022B01D9032345E0064B1B6803F057
:104B58000073002BF0D13DE07B689B69012B07D1E6
:104B6800012338E0003802400070004060004742EE
:104B78001B4B5B68FB607B689B69012B28D0FB683B
:104B880003F480027B68DB699A4221D1FB6803F059
:104B98003F027B681B6A9A421AD1FA6847F6C073CB
:104BA80013407A68526A9201934211D1FB6803F468
:104BB80040327B689B6A5B08013B1B049A4207D121
:104BC800FB6803F070627B68DB6A1B069A4201D0BF
:104BD800012300E0002318461837BD4680BD00BFFA
:104BE8000038024080B584B000AF786039607B68D7
:104BF800002B01D10123CCE0684B1B6803F00703AD
:104C08003A689A420CD9654B3A68D2B21A70634B2B
:104C18001B6803F007033A689A4201D00123B8E001
:104C28007B681B6803F00203002B20D07B681B689D
:104C380003F00403002B05D0594B9B68584A43F4F2
:104C4800E05393607B681B6803F00803002B05D0D2
:104C5800534B9B68524A43F460439360504B9B68A4
:104C680023F0F0027B689B684D4913438B607B6897
:104C78001B6803F00103002B44D07B685B68012BA1
:104C880007D1474B1B6803F40033002B19D10123CC
:104C98007FE07B685B68022B03D07B685B68032B33
:104CA80007D13F4B1B6803F00073002B09D1012388
:104CB8006FE03B4B1B6803F00203002B01D101237B
:104CC80067E0374B9B6823F003027B685B683449D5
:104CD80013438B60FCF712FFF8600AE0FCF70EFF45
:104CE8000246FB68D31A41F28832934201D9032362
:104CF8004FE02B4B9B6803F00C027B685B689B00C2
:104D08009A42EBD1254B1B6803F007033A689A4295
:104D18000CD2224B3A68D2B21A70204B1B6803F0AF
:104D280007033A689A4201D0012332E07B681B6886
:104D380003F00403002B08D0194B9B6823F4E052BE
:104D48007B68DB68164913438B607B681B6803F03C
:104D58000803002B09D0124B9B6823F460427B6840
:104D68001B69DB000E4913438B6000F021F80246F3
:104D78000B4B9B681B0903F00F030A49CB5C22FA13
:104D880003F3094A1360094B1B681846FCF772FEC7
:104D9800002318461037BD4680BD00BF003C0240C6
:104DA800003802401CA10008000000200400002078
:104DB8002DE9B04F90B000AF00237B630023FB6365
:104DC80000233B630023BB63594B9B6803F00C0330
:104DD800082B0DD0082B00F2A180002B02D0042B49
:104DE80003D09BE0534BBB639BE0534BBB6398E002
:104DF8004F4B5B6803F03F037B634D4B5B6803F4E9
:104E08008003002B28D04A4B5B689B0900223B6239
:104E18007A623B6AC3F308000021474B03FB01F2A7
:104E2800002300FB03F31344434AA0FB0212FA6277
:104E38000A46BA62FA6A1344FB627B6B0022BB61C2
:104E4800FA61D7E90623D7E90A01FBF7C1F9024657
:104E58000B461346FB6353E0354B5B689B09002206
:104E68003B617A613B69C3F3080A4FF0000B524675
:104E78005B464FF000004FF00001590141EAD26152
:104E8800500102460B46B2EB0A0863EB0B094FF0E0
:104E980000024FF000034FEA891343EA98634FEA90
:104EA8008812B2EB080463EB09054FF000024FF0DB
:104EB8000003EB0043EA5473E20014461D4614EB6A
:104EC8000A033B6045EB0B037B604FF000024FF099
:104ED8000003D7E9004529468B02214643EA91534E
:104EE80021468A02104619467B6B0022BB60FA6095
:104EF800D7E90223FBF76CF902460B461346FB631E
:104F08000B4B5B681B0C03F0030301335B003B6333
:104F1800FA6B3B6BB2FBF3F3BB6302E0054BBB637D
:104F280000BFBB6B18464037BD46BDE8B08F00BF19
:104F3800003802400024F40040787D0180B400AFBE
:104F4800034B1B681846BD465DF8047B704700BFDD
:104F58000000002080B500AFFFF7F0FF0246054BC8
:104F68009B689B0A03F007030349CB5C22FA03F30F
:104F7800184680BD003802402CA1000880B582B0D8
:104F880000AF78607B68002B01D1012341E07B688A
:104F980093F83D30DBB2002B06D17B68002283F802
:104FA8003C207868FCF722FC7B68022283F83D20CD
:104FB8007B681A687B6804331946104600F03CFC8D
:104FC8007B68012283F846207B68012283F83E2013
:104FD8007B68012283F83F207B68012283F8402008
:104FE8007B68012283F841207B68012283F84220F4
:104FF8007B68012283F843207B68012283F84420E0
:105008007B68012283F845207B68012283F83D20D4
:10501800002318460837BD4680BD000080B485B01F
:1050280000AF78607B6893F83D30DBB2012B01D08C
:10503800012344E07B68022283F83D207B681B68DB
:10504800DA687B681B6842F00102DA607B681B68DB
:105058001E4A934218D07B681B68B3F1804F13D067
:105068007B681B681A4A93420ED07B681B68194AF2
:10507800934209D07B681B68174A934204D07B6827
:105088001B68164A934211D17B681B689B6803F022
:105098000703FB60FB68062B10D07B681B681A6847
:1050A8007B681B6842F001021A6007E07B681B6896
:1050B8001A687B681B6842F001021A6000231846D0
:1050C8001437BD465DF8047B704700BF00000140FF
:1050D8000004004000080040000C0040004001406F
:1050E80080B582B000AF78607B68002B01D10123C6
:1050F80041E07B6893F83D30DBB2002B06D17B683A
:10510800002283F83C20786800F039F87B68022296
:1051180083F83D207B681A687B680433194610467B
:1051280000F08AFB7B68012283F846207B68012215
:1051380083F83E207B68012283F83F207B680122A8
:1051480083F840207B68012283F841207B68012294
:1051580083F842207B68012283F843207B68012280
:1051680083F844207B68012283F845207B6801226C
:1051780083F83D20002318460837BD4680BD80B41B
:1051880083B000AF786000BF0C37BD465DF8047B84
:105198007047000080B584B000AF786039603B6824
:1051A800002B09D17B6893F83E30DBB2012B14BF8A
:1051B80001230023DBB222E03B68042B09D17B6882
:1051C80093F83F30DBB2012B14BF01230023DBB27D
:1051D80015E03B68082B09D17B6893F84030DBB2B7
:1051E800012B14BF01230023DBB208E07B6893F88E
:1051F8004130DBB2012B14BF01230023DBB2002BAB
:1052080001D0012368E03B68002B04D17B680222AF
:1052180083F83E2013E03B68042B04D17B6802220C
:1052280083F83F200BE03B68082B04D17B680222FF
:1052380083F8402003E07B68022283F841207B68E2
:105248001B6801223968184600F0A2FD7B681B68BC
:10525800234A934207D17B681B685A6C7B681B689A
:1052680042F400425A647B681B681D4A934218D076
:105278007B681B68B3F1804F13D07B681B68194AA1
:1052880093420ED07B681B68174A934209D07B680B
:105298001B68164A934204D07B681B68144A9342E1
:1052A80011D17B681B689B6803F00703FB60FB68F0
:1052B800062B10D07B681B681A687B681B6842F055
:1052C80001021A6007E07B681B681A687B681B6824
:1052D80042F001021A60002318461037BD4680BD0F
:1052E800000001400004004000080040000C00409D
:1052F8000040014080B584B000AF78607B681B68CF
:10530800DB68FB607B681B681B69BB60BB6803F0DC
:105318000203002B20D0FB6803F00203002B1BD0F4
:105328007B681B686FF002021A617B6801221A779A
:105338007B681B689B6903F00303002B03D0786824
:1053480000F05BFA05E0786800F04DFA786800F044
:105358005EFA7B6800221A77BB6803F00403002B0F
:1053680020D0FB6803F00403002B1BD07B681B686C
:105378006FF004021A617B6802221A777B681B6847
:105388009B6903F44073002B03D0786800F035FA6A
:1053980005E0786800F027FA786800F038FA7B684A
:1053A80000221A77BB6803F00803002B20D0FB68A3
:1053B80003F00803002B1BD07B681B686FF0080202
:1053C8001A617B6804221A777B681B68DB6903F023
:1053D8000303002B03D0786800F00FFA05E0786823
:1053E80000F001FA786800F012FA7B6800221A7758
:1053F800BB6803F01003002B20D0FB6803F01003F8
:10540800002B1BD07B681B686FF010021A617B6849
:1054180008221A777B681B68DB6903F44073002B4A
:1054280003D0786800F0E9F905E0786800F0DBF966
:10543800786800F0ECF97B6800221A77BB6803F003
:105448000103002B0CD0FB6803F00103002B07D0ED
:105458007B681B686FF001021A617868FBF780FAB5
:10546800BB6803F08003002B0CD0FB6803F08003BB
:10547800002B07D07B681B686FF080021A61786880
:1054880000F024FDBB6803F04003002B0CD0FB6840
:1054980003F04003002B07D07B681B686FF04002C5
:1054A8001A61786800F0BDF9BB6803F02003002B8F
:1054B8000CD0FB6803F02003002B07D07B681B6827
:1054C8006FF020021A61786800F0F6FC00BF103710
:1054D800BD4680BD80B586B000AFF860B9607A601F
:1054E8000023FB75FB6893F83C30012B01D10223A4
:1054F800AEE0FB68012283F83C207B680C2B00F2AD
:105508009F8001A252F823F045550008495600082B
:1055180049560008495600088555000849560008AC
:105528004956000849560008C7550008495600085A
:10553800495600084956000807560008FB681B68CA
:10554800B968184600F0FEF9FB681B689A69FB68A1
:105558001B6842F008029A61FB681B689A69FB683D
:105568001B6822F004029A61FB681B689969BB6892
:105578001A69FB681B680A439A6164E0FB681B6848
:10558800B968184600F044FAFB681B689A69FB681A
:105598001B6842F400629A61FB681B689A69FB68A1
:1055A8001B6822F480629A61FB681B689969BB6872
:1055B8001B691A02FB681B680A439A6143E0FB688F
:1055C8001B68B968184600F08FFAFB681B68DA692F
:1055D800FB681B6842F00802DA61FB681B68DA693D
:1055E800FB681B6822F00402DA61FB681B68D96952
:1055F800BB681A69FB681B680A43DA6123E0FB6829
:105608001B68B968184600F0D9FAFB681B68DA69A4
:10561800FB681B6842F40062DA61FB681B68DA69A0
:10562800FB681B6822F48062DA61FB681B68D96931
:10563800BB681B691A02FB681B680A43DA6102E04F
:105648000123FB7500BFFB68002283F83C20FB7D2B
:1056580018461837BD4680BD80B584B000AF786065
:1056680039600023FB737B6893F83C30012B01D130
:105678000223B4E07B68012283F83C207B68022285
:1056880083F83D207B681B689B68BB60BB6823F080
:105698007703BB60BB6823F47F43BB607B681B68F0
:1056A800BA689A603B681B68B3F5005F3ED0B3F5F3
:1056B800005F00F28780B3F5805F00F08680B3F565
:1056C800805F7FD8702B1AD0702B7BD8602B50D07E
:1056D800602B77D8502B3CD0502B73D8402B58D008
:1056E800402B6FD8302B64D0302B6BD8202B60D058
:1056F800202B67D8002B5CD0102B5AD062E07B6837
:1057080018683B6899683B685A683B68DB6800F032
:105718001FFB7B681B689B68BB60BB6843F0770313
:10572800BB607B681B68BA689A604FE07B68186842
:105738003B6899683B685A683B68DB6800F008FB7F
:105748007B681B689A687B681B6842F480429A6091
:105758003CE07B6818683B6859683B68DB681A4618
:1057680000F07CFA7B681B685021184600F0D5FAD7
:105778002CE07B6818683B6859683B68DB681A4608
:1057880000F09BFA7B681B686021184600F0C5FA98
:105798001CE07B6818683B6859683B68DB681A46F8
:1057A80000F05CFA7B681B684021184600F0B5FAE7
:1057B8000CE07B681A683B681B681946104600F0C5
:1057C800ACFA03E00123FB7300E000BF7B68012211
:1057D80083F83D207B68002283F83C20FB7B184639
:1057E8001037BD4680BD80B483B000AF786000BF7D
:1057F8000C37BD465DF8047B704780B483B000AFBA
:10580800786000BF0C37BD465DF8047B704780B4F4
:1058180083B000AF786000BF0C37BD465DF8047BED
:10582800704780B483B000AF786000BF0C37BD46C6
:105838005DF8047B7047000080B485B000AF7860E5
:1058480039607B681B68FB607B68374A93420FD0DE
:105858007B68B3F1804F0BD07B68344A934207D002
:105868007B68334A934203D07B68324A934208D11B
:10587800FB6823F07003FB603B685B68FA681343BE
:10588800FB607B68284A93421BD07B68B3F1804F4A
:1058980017D07B68254A934213D07B68244A9342E9
:1058A8000FD07B68234A93420BD07B68224A9342ED
:1058B80007D07B68214A934203D07B68204A9342F1
:1058C80008D1FB6823F44073FB603B68DB68FA6827
:1058D8001343FB60FB6823F080023B685B6913435A
:1058E800FB603B689A687B68DA623B681A687B6889
:1058F8009A627B680C4A934203D13B681A697B68B9
:105908001A637B681B6843F004027B681A607B6833
:1059180001225A617B68FA681A6000BF1437BD46D5
:105928005DF8047B704700BF0000014000040040A0
:1059380000080040000C00400040014000440140C5
:105948000048014080B487B000AF786039607B6858
:105958001B6A7B617B681B6A23F001027B681A6201
:105968007B685B683B617B689B69FB60FB6823F035
:105978007003FB60FB6823F00303FB603B681B6854
:10598800FA681343FB607B6923F002037B613B6881
:105998009B687A6913437B617B681C4A93420CD1EC
:1059A8007B6923F008037B613B68DB687A691343F2
:1059B8007B617B6923F004037B617B68134A934214
:1059C80011D13B6923F480733B613B6923F4007375
:1059D8003B613B685B693A6913433B613B689B6980
:1059E8003A6913433B617B683A695A607B68FA6895
:1059F8009A613B685A687B685A637B687A691A625D
:105A080000BF1C37BD465DF8047B704700000140AD
:105A180080B487B000AF786039607B681B6A7B61AF
:105A28007B681B6A23F010027B681A627B685B68DC
:105A38003B617B689B69FB60FB6823F4E043FB6088
:105A4800FB6823F44073FB603B681B681B02FA6821
:105A58001343FB607B6923F020037B613B689B68F1
:105A68001B017A6913437B617B681E4A93420DD1FF
:105A78007B6923F080037B613B68DB681B017A69E3
:105A880013437B617B6923F040037B617B68154A84
:105A9800934213D13B6923F480633B613B6923F450
:105AA80000633B613B685B699B003A6913433B6158
:105AB8003B689B699B003A6913433B617B683A6981
:105AC8005A607B68FA689A613B685A687B689A638F
